:020000041000EA
:10000000002008205D0100101B0100101D010010E0
:100010001101001011010010110100101101001058
:100020001901001019010010190100101F01001022
:10003000110100101901001021010010230100100E
:100040001101001011010010110100101101001028
:100050001101001011010010110100101101001018
:100060001101001011010010110100101101001008
:1000700011010010110100101101001011010010F8
:1000800011010010110100101101001011010010E8
:1000900011010010110100101101001011010010D8
:1000A00011010010110100101101001011010010C8
:1000B00011010010110100101101001011010010B8
:1000C00011010010110100101101001011010010A8
:1000D0001101001011010010110100101101001098
:1000E0001101001011010010110100101101001088
:1000F0001101001011010010110100101101001078
:100100001101001011010010110100101101001067
:10011000EFF30580103800BE00BE00BE00BE00BE7A
:1001200000BE00BEF2EB887198C10010B8C100108B
:10013000A001001090A31AE7D3DEFFFF42012110B7
:10014000FF01000018D60000793512AB4FF0000017
:100150001E49086006C881F3088810474FF05040D8
:10016000006810B14FF00000F2E70DA40ECC00299A
:1001700002D000F012F8F9E71549164A002000E015
:1001800001C19142FCD11449884714498847144958
:10019000884700BEFDE701C901C29A42FBD3704700
:1001A000B8C1001010010020A816002050D7001080
:1001B000000008200000082050D700100010082080
:1001C00000100820000000007047000008ED00E06B
:1001D000A8160020AC260120ED4700107502001083
:1001E000E5470010F8B500BF0348044B834202D036
:1001F000034B03B118477047A8160020A81600202B
:1002000000000000064B0749C91A891048BF013198
:10021000491003D0044B0BB101481847704700BF89
:10022000A8160020A81600200000000010B5064CFB
:10023000237843B9FFF7D8FF044B13B10448AFF359
:1002400000800123237010BD101900200000000061
:1002500050BC001008B5044B1BB104490448AFF36F
:100260000080BDE80840CDE7000000001419002020
:1002700050BC001000B583B004F0E4FB4FF4FA600A
:1002800002F034F800F022FB0021084600F06EFA7C
:10029000244800F0C5FA00210322012007F0B0FE37
:1002A0000246214B01201A6008F044F804461F4B17
:1002B0000322002101201C6007F0A2FE05461C4C11
:1002C000012225600024012504210F20194B00F094
:1002D0009FFFCDE9005402254FF4007223461649D2
:1002E00016480AF077F94FF400722346CDE900541E
:1002F000134914480AF06EF9CDE9005403254FF470
:1003000000722346104911480AF064F94FF4007254
:1003100023460F49CDE900540E480AF05BF90AF074
:10032000A9FAFEE750BC0010E42501202826012090
:10033000E8250120350C001064BC0010C50A00102F
:1003400068BC0010610C001070BC0010350D00106E
:1003500074BC0010BD0F001010B5044600F0BEFFC5
:100360002046BDE810400022012100F03DBF00BF43
:1003700010B5044600F0B2FF4FF0010343EC4440D7
:1003800010BD00BF08B506F0B7FF1F211B2000F00D
:100390000DFF00221B20114600F026FF00211B202C
:1003A00000F08CFF044B054A1B6883F4805303F470
:1003B0007043136008BD00BF00000A4000100A40EF
:1003C000F0B500253C273826C14C85B02046C149F0
:1003D00007F04CF80321042000F0E8FE032105207B
:1003E00000F0E4FE00220121042000F0FDFE0022C6
:1003F0000121052000F0F8FE322001F077FF0DF119
:100400000F0201232721204600958DF80F7007F079
:1004100053F80120002101F051FF0DF10F020123DB
:100420002721204600958DF80F6007F045F8002140
:10043000322001F043FF052001F058FF0DF10F02BB
:1004400001232721204600958DF80F7007F034F81E
:100450000120002101F032FF0DF10F0201232721BD
:10046000204600958DF80F6007F026F83220002115
:1004700001F024FF9620002101F020FF0DF10F0272
:1004800001238DF80F7027212C272046009507F0B7
:1004900013F80120002101F011FF8DF80F602826CC
:1004A0000DF10F02012327212046009507F004F8E3
:1004B0003220002101F002FF0DF10F02012327215C
:1004C000204600958DF80F7006F0F6FF0120002100
:1004D00001F0F4FE0DF10F020123272120460095C3
:1004E0008DF80F6006F0E8FF3220002101F0E6FEF3
:1004F0000DF10F0201232721204600958DF80F7082
:1005000006F0DAFF0120002101F0D8FE0DF10F0204
:1005100001232721204600958DF80F6006F0CCFFBF
:100520003220002101F0CAFE8C2201238DF80F2019
:1005300027210DF10F022046009506F0BDFF012096
:10054000002101F0BBFE88220C27082601238DF82C
:100550000F2027210DF10F022046009506F0ACFF79
:100560003220002101F0AAFE0DF10F020123272104
:10057000204600958DF80F7006F09EFF01200021A7
:1005800001F09CFE0DF10F0201232721204600956A
:100590008DF80F6006F090FF3220002101F08EFEF2
:1005A000CC230DF10F028DF80F30272101232046B7
:1005B000009506F081FF0120002101F07FFEC82395
:1005C0000DF10F028DF80F302721012320460095F1
:1005D00006F072FF3220002101F070FE0DF10F02D3
:1005E00001232721204600958DF80F7006F064FF47
:1005F0000120002101F062FE0DF10F0201232721ED
:10060000204600958DF80F6006F056FF322000213D
:1006100001F054FE1C230DF10F028DF80F3027213D
:1006200001232046009506F047FF0120002101F03C
:1006300045FE18230DF10F028DF80F3027210123FD
:100640002046009506F038FF0021322001F036FEEA
:10065000022001F04BFE0DF10F020123272120465D
:1006600000958DF80F7006F027FF0120002101F0A2
:1006700025FE0DF10F0201232721204600958DF85C
:100680000F6006F019FF3220002101F017FE6C22E6
:10069000682601238DF80F2027210DF10F02204637
:1006A000009506F009FF0120002101F007FE01235B
:1006B000272120460DF10F0200958DF80F6006F0FE
:1006C000FBFE3220002105B0BDE8F04001F0F6BD90
:1006D0008C160020A086010030B500244FF00C0CD1
:1006E000214D85B00DF10F020123272128460094EA
:1006F0008DF80FC006F0E0FE0120002101F0DEFDC4
:10070000082201238DF80F2027210DF10F02284622
:10071000009406F0D1FE3220002101F0CFFD1C2212
:1007200001238DF80F2027210DF10F022846009498
:1007300006F0C2FE0120002101F0C0FD4FF0180CB0
:1007400001230DF10F022721284600948DF80FC0D8
:1007500006F0B2FE3220002101F0B0FD022005B00B
:10076000BDE8304001F0C2BD8C160020F0B5074650
:100770004FF4804C0C46002585B01037ADF80CC006
:100780006F4417F8047C254E3C4404F0F00767F0F2
:10079000730C0DF10B0201232721304600958DF8D3
:1007A0000BC0E4B206F088FE0120002101F086FDB6
:1007B00067F077070DF10B020123272130460095E2
:1007C00024018DF80B70E4B206F076FE3220002191
:1007D00001F074FD44F00C0201238DF80B20272159
:1007E0000DF10B023046009506F066FE0120002157
:1007F00001F064FD44F008040123272130460DF187
:100800000B0200958DF80B4006F056FE32200021B9
:1008100005B0BDE8F04001F051BD00BF8C160020CE
:100820002DE9F041047884B0002C4AD08046264F50
:10083000002504F0F00646F00D0C01230DF10F0227
:100840002721384600958DF80FC006F035FE0120AF
:10085000002101F033FD46F0090601230DF10F02DE
:1008600027213846009524018DF80F60E4B206F088
:1008700023FE3220002101F021FD44F00D0601236A
:100880000DF10F022721384600958DF80F6006F014
:1008900013FE0120002101F011FD44F009040123A1
:1008A00027210DF10F02384600958DF80F4006F014
:1008B00003FE3220002101F001FD18F8014F002C49
:1008C000B6D104B0BDE8F0818C16002008B509202F
:1008D000FFF74EFD0A20FFF74BFD0B20FFF748FD09
:1008E0000C20FFF745FD0D20FFF742FD0020FFF72C
:1008F00033FD0120FFF730FD0220FFF72DFD03201F
:10090000FFF72AFD0F20FFF727FDFFF73BFDFFF75D
:1009100057FD00F053F8BDE8084000F081B800BF73
:1009200038B511254FF0000343EC40500B4C0C4BF5
:100930002168022203EB41010A480BF05DF9012016
:1009400040EC4050236803445A4202F03F0203F057
:100950003F0358BF5342236038BD00BFF02400203E
:10096000F42400200000084030B500250446094B5F
:1009700085B01D6001F02EFB074A084992FBF4F296
:10098000074B5242CDE901530091D31701F022FDEC
:1009900005B030BDF024002040420F0021090010B6
:1009A0007017002008B5044801F0A4FD11234FF092
:1009B000010242EC403008BD70170020F8B5022754
:1009C000124C1349204606F07FFD124B62685F60AF
:1009D0002368114E114D83F007033A4003F0CF0313
:1009E000336001216A60122000F0E0FB0121132036
:1009F00000F0DCFB112000F071FC11234FF001022C
:100A000042EC443042EC4030F8BD00BF00000840EA
:100A100000127A0000300840001008400020084012
:100A20002DE9F04724A7D7E90067DFF894A04FF637
:100A30003773D1462DED048B4FF00108B7EE009AC5
:100A4000F6EE008A9FED1A8A00241A4D29F8013B20
:100A5000404602F035F932463B4602F0AFF82246F6
:100A60002B4602F0ABF802F01DF902F089FA07EE0E
:100A7000900A77EE897A67EEA87A67EE887AFCEEBC
:100A8000E77A17EE903AC3F30B0343F440531A0A84
:100A90000AF8182009F8183008F10108B8F1400FD9
:100AA000D6D1BDEC048BBDE8F08700BFAFF300806A
:100AB00000F07F450000903F182D4454FB21194061
:100AC000F42400202DE9F0472DED048BDFF8609130
:100AD00084B099F80030002B00F095800024EA469D
:100AE0004B4D26464FF004089FED4A9ADFED4A8AA7
:100AF0004A4F4B4AC7F800801368DB05FCD55468A1
:100B0000A4B207EE904AB8EEE78A28EE098A18EEFA
:100B1000100A0BF051F802460B464248214604F0F9
:100B200057F8B1EE047AC8EE287A67EE877AF8FEB5
:100B3000677AFDEEE77A17EE904A4FF0FF312868AA
:100B400007F026FE002C28DC09234FF0000242ECBF
:100B500040300A234FF0000242EC40300B234FF0AC
:100B6000000242EC40300C234FF0000242EC4030D7
:100B70000D234FF0000242EC4030002328681A4653
:100B8000194607F07DFAB4422FD1642009F0ECFF3A
:100B900099F80030DBB12646ABE709224FF001039C
:100BA00043EC4020012CD4D00A2243EC4020022CFC
:100BB000D4D00B2243EC4020032CD4D00C2243ECA5
:100BC0004020042CD4D00D2243EC4020D5E7FFF781
:100BD00083FD1548FFF724FE642009F0C5FF99F84E
:100BE0000030002B7FF47DAFF6E704EB8403102187
:100BF0000E4A9B00504603F0B1FDFFF76DFD5046D5
:100C0000FFF70EFEC1E7EA46014D03F0FF04E3E7FC
:100C1000282601206740533A3333534000200A40CE
:100C200000000A4078BC0010ACBC00109CBC001056
:100C3000A8260120002300B5084A83B0106801A946
:100C4000019307F0FFFB019B2BB14FF0E0234FF026
:100C50008052C3F8042D03B05DF804FBE4250120A5
:100C60002DE9F84F4FF0000B5E462D4DDFF8B880B0
:100C7000DFF8B890DFF8B8A02A4F4FF0FF312868AE
:100C800007F086FD01280446F7D1642009F06CFFC7
:100C90004FF050435B681B040AD498F8003043B30C
:100CA00099F8003043BB9AF800302BBB89F800401C
:100CB0004FF0FF31386807F06BFD092346EC4030F8
:100CC0000A2346EC40300B2346EC40300C2346EC24
:100CD00040300D2346EC4030002338681A46194650
:100CE00007F0CEF90021286807F052FD0128C4D191
:100CF000F8E788F80040DBE799F8003053B19AF83C
:100D0000003003F0FF022BB9012389F800208AF894
:100D10000030CDE788F800B08AF800B0C8E700BF1F
:100D2000E425012028260120A9260120A82601204B
:100D3000A3260120F8B58E4C2378002B40F00581C6
:100D40008C4D03F0FF0C2378002BFCD04FF0504665
:100D500071687368706803F00203726800F0040041
:100D6000034301F001010B4302F0080243EA0207CA
:100D7000674500F0B8807B1E0E2B00F2EA80DFE8AA
:100D800003F06F47975B8331A9658D3CA0517926AD
:100D90000800FFF7A1FC7848FFF742FD2378002BFD
:100DA00040F0A6800F27FFF797FC7448FFF738FD47
:100DB00000210120FFF7DAFC7148FFF731FD002325
:100DC00028681A46194607F05BF9BC46BBE7FFF7EF
:100DD00083FC6C48FFF724FD2378002B40F0A080B3
:100DE0000E27E0E7FFF778FC6748FFF719FD237847
:100DF000002B40F089800627D5E7FFF76DFC62489D
:100E0000FFF70EFD2378002B40F096800A27CAE7F3
:100E1000FFF762FC5D48FFF703FD2378002B6DD1DF
:100E20000227C0E7FFF758FC5948FFF7F9FC237881
:100E3000002B7BD10C27B6E7FFF74EFC5548FFF798
:100E4000EFFC2378002B65D10427ACE7FFF744FCC7
:100E50005148FFF7E5FC2378002B70D10827A2E763
:100E6000FFF73AFC4D48FFF7DBFC2378002B42D11B
:100E7000012798E7FFF730FC4948FFF7D1FC2378BA
:100E8000002B50D10D278EE7FFF726FC4548FFF7D2
:100E9000C7FC2378002B3AD1052784E7FFF71CFC19
:100EA0004148FFF7BDFC2378002B42D109277AE7A0
:100EB000FFF712FC3D48FFF7B3FC23780BBB032779
:100EC00071E7FFF709FC3A48FFF7AAFC237823BB38
:100ED0000B2768E7FFF700FC3648FFF7A1FC2378F3
:100EE00083BB07275FE72378002B3FF45CAF2FE736
:100EF0004FF00F0C2CE74FF0010C29E74FF0020CDC
:100F000026E74FF0030C23E74FF0060C20E74FF0E5
:100F1000050C1DE74FF0040C1AE74FF00B0C17E718
:100F20004FF00E0C14E74FF00D0C11E74FF00C0CC6
:100F30000EE74FF0090C0BE74FF00A0C08E74FF0F3
:100F4000080C05E74FF0070C02E74FF0000C094DC5
:100F5000FCE6FFF7C1FB1848FFF762FC237803F0BB
:100F6000FF07002B3FF41FAF4FF0000CF0E600BF6F
:100F7000A3260120E825012054BD00105CBD00100F
:100F80006CBD001048BD0010F4BC0010CCBC0010BB
:100F90002CBD0010DCBC00100CBD0010C4BC001047
:100FA00038BD0010ECBC001014BD0010D4BC001003
:100FB00020BD001000BD0010BCBC001008B50C4CDA
:100FC0000C4D4FF0FF31206807F0E2FB0128F8D10B
:100FD0004FF4DC40FFF7C8FC2B782BB9642009F0F4
:100FE000C3FD2B78002BF9D0FFF7DCFCE9E700BF4D
:100FF000E8250120A92601204FF050402DE9F84FA7
:101000006549D0F800A0654A654B51F82A70BAF1DD
:10101000000F0CBF904698464FB30026DFF884B10E
:10102000DFF88491F3080C3358F82340354608362E
:10103000CCB114F00F0110D05BF82A2005F00703A3
:10104000EA40E8089B00D20701FA03F300F18C0C98
:1010500003D4284649F82C30B847240905F1010586
:1010600001D0B542E5D3202EDCD1BDE8F88F4D4844
:10107000F90801F10C0358F823303A460837002BE1
:1010800071D013F00F0508D050F82A40D440E4077F
:1010900003D4454C8C3144F82150190963D011F028
:1010A0000F010BD050F82A40551CEC40E60705D440
:1010B000EC083D4D09018C3445F82410190A52D032
:1010C00011F00F010BD050F82A40951CEC40E407BA
:1010D00005D4EC08344D09028C3445F82410190B62
:1010E00041D011F00F0105D050F82A40D51CEC403A
:1010F000E6073CD5190C36D011F00F0106D0294C6B
:1011000054F82A50141DE540ED0737D5190D2AD0A3
:1011100011F00F0106D0234C54F82A50541DE5401D
:10112000EE0732D5190E1ED011F00F010CD01D4C58
:1011300054F82A50941DE540ED0705D41A4DE408F3
:1011400009068C3445F824101B0F02F107020AD05F
:1011500050F82A10D140C90705D41349D2081B07FB
:101160008C3241F82230202F82D1BDE8F88FEC0874
:101170000D4D09038C3445F82410BBE70A4DE408F3
:1011800009048C3445F82410C0E7074DE40809052C
:101190008C3445F82410C5E7B01F00204882024077
:1011A00090820240E02400200080024010B44FF4FE
:1011B00080740C4B53F8202003EB8003C00082F0B6
:1011C000400200F1804003F5805C02F0C00200F5AF
:1011D000203003F54053CCF8002041601C605DF8DE
:1011E000044B70470480034010B4084CC90041EA26
:1011F000820154F8202004EB8003514003F5805312
:1012000001F00C015DF8044B196070470480034045
:101210002DE9F0434FF050491646DFF89C80D9F88D
:1012200000201F4658F8223004460D4683B053B3C1
:10123000002F34D04FF0504348F822701A681B49F1
:101240001B4B002A18BF0B46E20804F00704A40059
:1012500005FA04F4A1F5247102F18C0041F8204054
:1012600003EB82034EB10121152003F500531C60EE
:1012700003B0BDE8F04300F05DB903F540531C60D6
:1012800003B0BDE8F083002FD9D048F822701520B4
:101290001A46084900F0C0F9D9F80020CFE7152018
:1012A0000449019200F0ACFA019AC3E7908202402F
:1012B00048820240F90F0010B01F0020064B402268
:1012C00003EB800319B103F500531A60704703F56F
:1012D00040531A60704700BF0480034030B44FF0A1
:1012E000000343EC440043EC400005254FF48074B8
:1012F0000B4BC20053F8201003EB800081F040013B
:1013000002F1804303F5203301F0C00200F5805163
:1013100000F540500A605D60046030BC704700BF5B
:10132000048003400FB400B583B0049C074803F069
:10133000CDFB3CB105A92046019103F039FA0448E0
:1013400003F0C4FB012003F04BFA00BF78BD00108E
:1013500088BD0010EFF3108072B6064BD3E8CF1FA4
:1013600001220029FAD1C3E8412F0029F6D1BFF3A9
:101370005F8F7047A71B00200023034AC2E88F3FFE
:1013800080F31088704700BFA71B002070B5864609
:10139000EFF3108572B6124CD4E8CF6F0120002E07
:1013A000FAD1C4E8460F002EF6D1BFF35F8F4FF09D
:1013B000010CC80801F007030CFA03F31EF800C083
:1013C0001CEA030608D14CEA030C0EF800C0C4E87E
:1013D0008F6F85F3108870BD1046FFF7A3FF00BF25
:1013E000A71B0020F8B5EFF3108572B6234CD4E8A4
:1013F000CF7F0126002FFAD1C4E8476F002FF6D126
:10140000BFF35F8F9A4227D80126D70810F807E06C
:1014100002F0070C06FA0CFC1EEA0C0F00EBD207D8
:101420000DD125E04FEAD20E10F80EE002F0070CC5
:1014300006FA0CFC1EEA0C0F00EBD20718D00132A2
:101440009342EFD24FF0FF300023C4E88F3F85F383
:101450001088984207DBF8BD0023C4E88F3F85F36E
:1014600010884FF0FF300029F5D00698FFF75AFF9B
:101470004EEA0C0E104687F800E0E5E7A71B0020B7
:10148000044A1078431CDBB2182B28BF10231370BA
:10149000704700BFF01500200146024A0248FFF7DE
:1014A00075BF00BF8CBD0010C01F002010B5054CDB
:1014B00082B001461F23182200940348FFF792FFD1
:1014C00002B010BDACBD0010C01F00204FF0E022E4
:1014D000936843F000539360704700BF0021044BB2
:1014E00003F12002C3E88F1F01339342FAD1704702
:1014F0009C1B00204FF0E0234FF08032C3F8002403
:10150000C3F80424C3F80824C3F80C24C3F8102437
:10151000C3F81424C3F81824C3F81C24C3F82024E7
:10152000C3F82424C3F82824C3F82C24C3F8302497
:1015300062B67047012300F01F029340400941B199
:10154000800000F1604000F56140C0F88031036028
:101550007047024A203042F82030704700E100E036
:101560000123064A410952F8212000F01F00834060
:10157000134214BF01200020704700BF00E100E0CB
:1015800001224309034900F01F008240403341F823
:101590002320704700E100E0054A10309268054BB7
:1015A00052F82000C01A2F288CBF0020012070475D
:1015B00000ED00E0F4150020F8B50D46EFF31087BC
:1015C00072B6124ED6E8CF2F0123002AFAD1C6E810
:1015D000423F002AF6D1BFF35F8F0D4B00F110049C
:1015E0009B680C4A53F82430934203D0994201D0AF
:1015F00001F076F9064B9B6843F82450BFF35F8FE8
:101600000023C6E88F3F87F31088F8BDA51B002094
:1016100000ED00E0110100102DE9F04F81468B46EE
:10162000164683B0EFF3108372B6DFF8D0A10093B3
:10163000DAE8CF1F01230029FAD1CAE8413F002987
:10164000F6D1BFF35F8F664B93F90040002CC0F2D8
:10165000A080644D04EB440705EB870898F806105A
:1016600009F110091970604BBF009B6853F82900FD
:101670006300411B2F292FD95C49884240F0A48088
:101680001C445B4B02372F44043BDB1BC3F34A0370
:101690006FEAC3434FF421416FEAD34325F8241086
:1016A00005EB840463804BF60153A380FF2348F0CD
:1016B0000100E671C4F808B0A3714B4B9B6843F876
:1016C0002900BFF35F8F0023CAE88F3F009B83F39D
:1016D000108803B0BDE8F08F20F0010E9EF80710CF
:1016E000B1422ED84FF42143EB53414BB91C29444E
:1016F000043B04375B1A2F44AEF104013D4CC91B77
:10170000C1F34A012143A8F80410C3F34A033A493C
:101710002343A8F802304AF6AA2073465B1B5B41BC
:101720005843000D88F8076088F80600C8F808B02C
:1017300048F00100CEF80010BFE7D179B1422ED9B0
:1017400096469EF906C00CEB4C02BCF1000F05EB6F
:101750008202F2DA4BF601510EF10402A8F10407FD
:10176000BF1AC7F34A076FEAC7476FEAD7478EF831
:10177000064003EB0408204C05EB8803AEF8047028
:1017800045F82840998083F806C0DE71C3F808B098
:1017900093E701F0A5F8124B93F9004059E7724620
:1017A00032F8041F490514D44915023102EB4101F6
:1017B00001916FF00701C91B019F491B3944C1F317
:1017C0004A0141F46041C9E7019301F089F8019BA6
:1017D00056E701F5FF1101F5FF511F31E4E700BFA6
:1017E000A4260120F415002000ED00E011010010F6
:1017F0002416002000E0FFFF01488047A51B0020C1
:101800002DE9F04F83B0EFF3108A72B6744ED6E82C
:10181000CF2F0123002AFAD1C6E8423F002AF6D191
:10182000BFF35F8F6F4B00F110089B686E4A53F84F
:10183000285095423FD08D420C464AD06B4FEB1B4F
:101840002F2B38D801214FEA50194FEA890909F1A5
:10185000604909F5614900F01F0301FA03F0D9F866
:101860000030C9F8800000EA030BBFF35F8FEFF38D
:101870000581C9B279B3884577D125F0010EDEF82C
:1018800008C0644505D17CE0D3F808C0644532D077
:101890009E469EF9062002EB4203002A07EB8303D3
:1018A000F2DA644500F08180BBF1000F20D0C9F866
:1018B0008001C9F800004B4B9B6843F82850BFF3E8
:1018C0005F8F0023C6E88F3F8AF3108803B0BDE81E
:1018D000F08F1546EFE725F0010EDEF808C06445ED
:1018E000D7D19EF906407346002C08DA154666E00B
:1018F000C9F88000DFE793F90640002C56DB04EBC3
:10190000440C07EB8C0CDCF8082061009A609CF812
:101910000720DA719CF90620002A9A715DDBBCF879
:101920000420520504D502F5FF1202F5FF521F32C2
:10193000521502F1020C4FF0040E0C2212FB04E2CD
:1019400002EB4C026FF0070C3A44ACEB030C624420
:10195000C2F34A0242F460429A80254B21441A782D
:1019600007EB81011C708A719EE7CDE9000100F050
:10197000B7FFDDE9000125F0010EDEF808C064457F
:1019800087D19EF906407346002CB8DA194A1A4CE2
:10199000D21A083AC2F30A316FEA01516FEA1151C3
:1019A00044EA5202DA8099807EE773460029EDD13D
:1019B000FF228EF806204BF60152AEF804200C4CA4
:1019C0004AF6AA2294F800C01946C91B49414A4365
:1019D000120D83F806C0227066E74BF60152BBE792
:1019E000A51B002000ED00E011010010F4150020FF
:1019F000A42601202E16002000F8FFFF4FF0FF0C58
:101A000020F0030303F1604303F5644300F0030097
:101A10001A68C0000CFA00FC22EA0C0281400A435A
:101A20001A607047F0B5EFF30585EDB2EFF3108C57
:101A300072B62649D1E8CF2F0123002AFAD1C1E896
:101A4000423F002AF6D1BFF35F8F214E40F0010ED6
:101A5000B4684AF6AA2354F825701E4A0446A41A0C
:101A6000644163431B0D77455BB21BD092F906407E
:101A70009C421CD092F912409C4223D092F91E4005
:101A80009C4221D092F92A409C4208BF03240FD0E7
:101A9000114A0024157813708571C1E88F4F8CF3BB
:101AA0001088F0BDB2680D4C42F82540F0E70024E4
:101AB00004EB440402EB8402FF2494714BF60154BE
:101AC0009480E5E70124F3E70224F1E7A51B002059
:101AD00000ED00E0F4150020A42601201101001003
:101AE00010B5074C82B0014605230022009405483A
:101AF000FFF778FC0028A8BFC0F1330002B010BD8A
:101B0000C8BD0010AB260120014B0B440360704799
:101B10009C1B0020F8B5124C124DAC4211D24FF074
:101B2000FF36002723686BB1FFF7AAFC0146204669
:101B3000FFF7EAFF66602772BFF35F8F0C34AC4299
:101B4000F0D3F8BDFFF79CFC01462046FFF7DCFF11
:101B50006660BFF35F8F0834AC42E3D3F8BD00BFCB
:101B600098160020A816002010B50446FFF788FC40
:101B700001462046FFF7C8FF4FF0FF336360BFF315
:101B80005F8F10BD10B504460120FFF78FFC034B9B
:101B900003442360BFF35F8F10BD00BF9C1B002078
:101BA000024B0B440360BFF35F8F70479C1B002008
:101BB0002DE9F04F2DED028B85B0EFF30583DBB2FD
:101BC000103B9A0818BF01224FF0010103F00300F7
:101BD00018BFAF4DAF4B08BFAF4D00EB820253F8BB
:101BE000226001FA00FB05F541539FEDA78B0190A0
:101BF000C3F804B02EE0B388180440F19280B379A2
:101C0000002B40F0DC80B6F908100029C0F21D81DD
:101C1000736901EB410103EBC103D3E90247B7F15B
:101C2000FF3F08BFB4F1FF3F0DD0019B05EB8301DF
:101C3000AB6A0A69D21AE31A934203D32B6A13EAF6
:101C40000B0F00D10C61284600F0B4FCA042B94152
:101C5000C0F2FB80B6F90830C5F83CB0002B009309
:101C6000C9DBD6F8149003EB430A284609EBCA07F0
:101C7000D7E9024800F09EFCA04271EB0801BADBF4
:101C8000B8F1000FC0F2C380D7E90431834A934210
:101C900000F0ED807A88B6F9080092B242EA00407E
:101CA000984702460B4652EA030100F0B080002B31
:101CB00080F2D180B4EB020E68EB030839F93A30B8
:101CC000C7E902E8002B96DB716903EB430201EBE5
:101CD000C202D2E90270BE4578EB000C4FEA430223
:101CE00089DBB4462CF8083F0BE031F93230A446CA
:101CF000002B0DDB03EB430001EBC0005A00D0E9E1
:101D00000270BE451A4478EB000001EBC204ECDA25
:101D100029F83A30009BACF80030B38818043FF53E
:101D20006EAF3369EFF3108272B6D3E8CF0F0121A3
:101D30000028FAD1C3E8401F0028F6D1BFF35F8F17
:101D40004FF6FF74B0880023316900B2B480C1E857
:101D50008F3F82F310889842FFF651AF0746A9469D
:101D6000746906F1080807EB470E04EBCE03D3E9CC
:101D70000250B6F90830C446002B13DBB246009778
:101D800004E034F936309446002B09DB03EB4306BC
:101D900004EBC602D2E90271BD4270EB0101F0DA38
:101DA0005646009FACF8007034F93E7024F83E307F
:101DB000002FD8DAB3794D46002B3FF424AF00232F
:101DC000B371B6F9083006F10808591C3DD0194620
:101DD000776903E080465A1C3FF417AF03EB4302D8
:101DE00007EBC200B0F802C01C461CF4004F9E4630
:101DF00037F93230EED08C4280ED028B05D0A8F856
:101E00000030318927F8321034817146E3E739F820
:101E10003A3033813369EFF3108272B6D3E8CF0FD3
:101E200001210028FAD1C3E8401F0028F6D1BFF3F2
:101E30005F8F7388316929F83A30009B73800023E3
:101E4000C1E88F3F82F31088D5E640BF05B0BDECF6
:101E5000028BBDE8F08F2846CDE9022300F0AAFBF3
:101E6000029A039B10EB020E43EB010826E708469B
:101E70000B69029198470028C9D00299D1E9002343
:101E800011E700BFAFF30080FFFFFFFFFFFFFFFF81
:101E900000800B404024002000000B40B11B0010CC
:101EA0000B4808B50368EFF3108172B6D3E8CFCFC3
:101EB0000122BCF1000FF9D1C3E84C2FBCF1000F97
:101EC000F4D1BFF35F8F05F089FD0020002108BD2C
:101ED000742500202DE9F84F364C25692DB1BDE859
:101EE000F84F0A213448FFF70FBEDFF8E4800321E2
:101EF000404600F04DFB0326C4F80C80FFF7C0FA03
:101F00004FF0504C2D4B267003442361DCF8003019
:101F10000F216370636961801D834FF00405A3F88E
:101F200078504FF00505A3F890504FF00605A3F840
:101F3000A8504FF007050E214FF6FF7208274FF00B
:101F40000A0EA3F8C0504FF001094FF00C0C4FF0EF
:101F5000020B4FF0090A0D204FF00B05A3F8681192
:101F60001749A280A3F808E1A160A3F848B0A3F83C
:101F7000F0A0A3F82051A3F838C1A3F85001A3F8AA
:101F80003090A3F86060A3F8D8701A800D4B3046EB
:101F9000C8F820700C49DC60FFF70EFB494630465C
:101FA000FFF7C8FA094B0A211F640348BDE8F84F40
:101FB000FFF7AABD3C160020742500209C1B0020C2
:101FC000FFFF100040240020B11B001000200B4038
:101FD00000000B40004870473C160020F8B59DF803
:101FE0002070044616461D4637B900F0EBFA8642CB
:101FF00065EB010100295CDB2369EFF3108772B602
:10200000D3E8CF1F01220029FAD1C3E8412F0029CC
:10201000F6D1BFF35F8FB4F902C063690CEB4C01DA
:10202000BCF1000F4FEAC10203EBC10138DB985A43
:102030004FF0000E60802069C0E88FEF87F31088B2
:102040000698C1E90265086107984861488801302F
:10205000C0F30E00012838BF0120488040EA0C4040
:102060002169EFF3108572B6D1E8CF7F0126002FEA
:10207000FAD1C1E8476F002FF6D1BFF35F8FA18877
:102080009952A4F804C02369C3E88FEF85F3108840
:102090000122E368217803F501538A405A60F8BDB4
:1020A00000232269C2E88F3F87F310884FF0FF308A
:1020B000F8BD3846F8BD00BF0146F0B50069EFF342
:1020C000108772B6D0E8CF5F0124002DFAD1C0E8A6
:1020D000454F002DF6D1BFF35F8FB1F902E04C6997
:1020E0000EEB4E0CBEF1000F4FEACC0504EBCC0C0E
:1020F0003DDB605B002648800869C0E88F6F87F38E
:102100001088BCF80200CCE902230130C0F30E00B5
:10211000012838BF0120059BACF80200CCF8103034
:10212000069B40EA0E40CCF814300B69EFF31082A6
:1021300072B6D3E8CFCF0127BCF1000FF9D1C3E8C5
:102140004C7FBCF1000FF4D1BFF35F8F8B886353DA
:10215000A1F804E00B69C3E88F6F82F310880122B5
:10216000CB68097803F501538A405A60F0BD00231B
:102170000A69C2E88F3F87F310884FF0FF30F0BD47
:1021800003464089B0EB214F37DD58690A1402EB52
:10219000420210B500EBC2001C69EFF3108C72B65E
:1021A000D4E8CFEF0122BEF1000FF9D1C4E84E2FE1
:1021B000BEF1000FF4D1BFF35F8F428889B292B2B3
:1021C0008A4207D000221B69C3E88F2F8CF3108846
:1021D000002010BD42F40042428001210022186913
:1021E0009971C0E88F2F8CF310881C78DA68084644
:1021F00002F50153A140596010BD0020704700BF97
:10220000407870472DE9F043B0F1960641F1FF3573
:10221000B04271EB050338BF002683B038BF3546A6
:1022200004460F4600F0CEF9301A65EB0103012891
:1022300073F1000306DA2046394603B0BDE8F043E7
:1022400000F0CAB900F0BEF9864265EB0101002931
:102250000ADB0021154B3246009315482B460191AD
:10226000FFF72AFF0028E6DBDFF84C80DFF8449018
:10227000D8F824309D4205D8D8F82820B242DAD2C6
:102280009D42D8D1D9F80030EFF3108172B6D3E86F
:10229000CF0F01220028FAD1C3E8402F0028F6D141
:1022A000BFF35F8F034805F059FBE1E7A11E001063
:1022B0003C1600207425002000000B4038B5044671
:1022C0000D4600F07FF94FF0FF326FF00043201809
:1022D00045EB0101824273EB010438BF1946BDE8AA
:1022E000384038BF1046FFF78DBF00BF10B5044619
:1022F00000F068F94FF47A734FF0FF3C6FF0004242
:10230000E4FB0301BDE81040844572EB01033CBFD0
:1023100060461146FFF776BF2DE9F04306460D46AD
:1023200083B0EFF30584E4B23CB1274B586AA8426E
:102330001CD2002003B0BDE8F083244FD7F80C90E6
:1023400097F80080484600F035F908F1040859F87C
:1023500028301B1A301A65EB0101984271F1000117
:1023600011DB20BF184B586AA842E2D39B6AB342E4
:1023700003D3012003B0BDE8F083401B18BF012048
:1023800003B0BDE8F08300F01DF9864265EB010162
:102390000029CADB0E4B3846CDE9003432462B46C5
:1023A000FFF78AFE011EC0DD074B5A6AAA4208D316
:1023B0009B6AB34203D30548FFF7E2FEB5E7AA42A2
:1023C000F9D120BFF7E700BF00000B403C1600200A
:1023D000A11E00102DE9F0410446DDE9071552EA7F
:1023E000030070D0002B16461F4671DB0698C5E926
:1023F00000232861AC60696100F0E4F84FF0FF321F
:102400006FF00043801947EB0107824273EB07012D
:102410003CBF1F4610462369EFF3108872B6D3E81D
:10242000CF1F01220029FAD1C3E8412F0029F6D19C
:10243000BFF35F8FB4F90260616906EB4603002EBB
:102440004FEAC30C01EBC30346DB31F80C204FF01D
:10245000000E62802269C2E88FEF88F310885A88E4
:10246000C3E902070132C2F30E02012A38BF01227A
:102470001F485A805D61186142EA06422369EFF302
:10248000108072B6D3E8CF8F0127B8F1000FF9D1D1
:10249000C3E8487FB8F1000FF4D1BFF35F8FA38882
:1024A00021F80C30A6802369C3E88FEF80F31088F1
:1024B00001202178E36800FA01F103F50153596026
:1024C000EA60BDE8F0810126002732463B468DE7F1
:1024D000564263EB430789E700202369C3E88F0F67
:1024E00088F310884FF0FF32EA60BDE8F08100BF4A
:1024F000B11B00100246C06800B970479168031410
:10250000B1F80AC0BCEB204F3DDD30B54C6903EBA0
:10251000430304EBC30C0B69EFF3108E72B6D3E8E0
:10252000CF5F0124002DFAD1C3E8454F002DF6D12D
:10253000BFF35F8F83B2BCF8020080B2834209D040
:1025400000230969C1E88F3F8EF310880023002023
:10255000D36030BD43F40043ACF802304FF0010CBF
:102560000023086981F806C0C0E88F3F8EF3108809
:10257000CB68097803F501530CFA01F15960002387
:102580006046D36030BD00230020D360704700BF99
:1025900010B4054B054C064AA04214BF1846581CFF
:1025A0005DF8044BFEF7F2BEC41F002000800B4014
:1025B000E4BD00100346416A0A46986A596A8A4295
:1025C000FAD17047034B596A0A46986A596A914290
:1025D000FAD1704700000B40074A536A9942FCD871
:1025E000994207D1044B02E05A6A914202D19A6A99
:1025F0008242F9D3704700BF00000B4000EB400C53
:102600004FEA8C0C0CF1804C0CF5803CF0B5164672
:10261000DCF80420051FB2F5803F38BF4FF480324C
:10262000EDB238BFCCF80420012D2AD94FF4006751
:10263000254C0CF54052176054F82020B2B9DCF854
:102640000020012D82EA461202F0E0020CF58056CD
:1026500032602AD94FF4006144F820304FF48033BF
:102660000CF500521160CCF80430F0BD6769B7FB7F
:10267000F2FE0EF1010E0EEB4E0EBEF1030EFCD279
:10268000DDE70129D2D103240CF540521460DCF8B7
:102690000820D207FBD5DCF800200B4C82EA46125A
:1026A00002F0E0020CF5805632600122DCF80050A6
:1026B0004D4005F00305356002FA01F1DCF8082011
:1026C0000A42FBD0C6E700BFC81F0020014B53F8E9
:1026D00020007047C81F002070B4039D04682D03BC
:1026E00045EA03451B4B002CB3FBF1F3B2FBF3F6B9
:1026F0001FDB194A194B904214BF4FF480424FF42C
:102700000042174C1A6003F580531A60A36832EA3E
:102710000303FBD1212200F540530433016086609E
:102720001A600268002AFCDA0822C5601A6070BCD0
:102730007047036803F03F038B42DAD18368C3F329
:102740000B03B342D5D1C36803F4EE23AB42D0D11F
:10275000EDE700BF001BB7000080054000200240ED
:102760000000024030B44FF080441C4B1C60E0B1CC
:102770001B4CA3F54053DC611A4C40F0010044406F
:102780001C62596298624FF080454FF0E061134B34
:102790001548164C1D60846019604AB930BC4FF072
:1027A0000042A3F580531A607047114BD861EAE7E5
:1027B0004FF47A7303FB02F2B2F1807F2ABF6FF00D
:1027C0007F4313461A464FF080410A4C0848236065
:1027D000094B426030BC1960704700BF00B00D402B
:1027E000D3C007B02D3FF84F00A00140F3FFFF0119
:1027F00000800D402C24002000A00D40012300EBA0
:102800004000800000F1804000F5841041600360CA
:10281000704700BF002370B5DB8A04460D460022D6
:1028200042E800F2520254BF1021042144F2522027
:10283000984786462B462246F446BDE870400A215A
:102840004FF48170604700BF0023DB8A002242E81A
:1028500000F2520201D4102118470421184700BF8A
:1028600008B503460846191E02DB1AB140F03000D5
:10287000FFF7D0FF40F02000FAE700BF034AD2F88C
:102880002838002BFBD0BFF35F8F704700000E404D
:102890000021044B044ABFF35F8F43F8041B9342AB
:1028A000F9D170470C080E402C080E4010B44FF4BC
:1028B0008D704FF42A64064A064B07491460D060B5
:1028C00019605368002BFCDA5DF8044B704700BFB9
:1028D0000080044000A0044000B0FA00704700BF30
:1028E00008B50148FEF71EFD08BE001038B5054CBE
:1028F000054DAC4204D254F8043B9847AC42FAD39D
:1029000038BD00BF00BC001040BC001038B5054CFD
:10291000054DAC4204D254F8043B9847AC42FAD37C
:1029200038BD00BF2CBC001040BC001010B40748DC
:10293000074C084B084A094904601A608B6832EA60
:102940000303FBD15DF8044B704700BF0020024039
:102950007F3BEFEF00300240F6FFF3030000024040
:10296000044BDB6CB3F5004F03D14FF48022024BD4
:10297000DA64704700001150002011504FF0E0223F
:10298000044BD2F8881D0B43C2F8883D10EE30048A
:10299000704700BF030330006FF06041044B054AED
:1029A00019609368DB4333F06043FAD1704700BF8E
:1029B000003002400000024010B545F25320FFF7FE
:1029C00043FFBDE8104003460420184710B545F208
:1029D0005320FFF739FFBDE8104003460120184798
:1029E000FEF77CBD70B51449144C154D641AA61041
:1029F000442E324628BF44222846920008F0D0FFD9
:102A0000B4F5867F13D80F4AC6F1440112D02B19B2
:102A1000480803EBC000C3E9002208338342FAD11F
:102A2000CB0704D521F00103334445F82320064B9E
:102A30009D6070BD4323F8E70000001010010010F6
:102A4000000000201101001000ED00E0002370B52F
:102A50002B4C82B0C4F88430FFF728FF0122294BA9
:102A6000DA63636C012BFCD10321264A244B1163EA
:102A70009C6B012CFCD10226052521460523224A08
:102A800022480096FFF728FE21462B46204A21487F
:102A90000095FFF721FE0022042031461E4BFFF770
:102AA000ADFD2146284600221C4BFFF7A7FD002262
:102AB000082011461A4BFFF7A1FD002209201146FC
:102AC000174BFFF79BFD002206201146134BFFF723
:102AD00095FD0022114B07201146FFF78FFD0420C2
:102AE000FFF7F4FD00240F4BA3FB0035AD0CE0B263
:102AF00029460134FFF782FE062CF8D102B070BDE2
:102B00000000014000300140002F685900000540DE
:102B1000008C864700800540001BB70080D1F0087C
:102B2000006CDC0283DE1B4386B003B451FC080456
:102B3000CDE9020151FC0904CDE9040151EC0A047C
:102B4000CDE9060103BCF047BDE800504EEC00C4DF
:102B5000BDE800504EEC01C4BDE800504EEC02C48C
:102B600000BD000000B5FFF7DFFF02E010FE30F40B
:102B7000F8D441EC100443EC112400EE010410EEF3
:102B8000010480EE200451EC1004704700B5FFF7FB
:102B9000CBFF02E010FE30F4F8D441EC100443EC1B
:102BA000112400EE010410EE210480EE200451EC0B
:102BB0003004704700B5FFF7B7FF02E010FE30F4B5
:102BC000F8D410B541EC100443EC112451EC04048A
:102BD00053EC0524A0FB024C5FF0000EE0FB03CE9B
:102BE000E1FB02CE4CEC20440024E1FB03E444EC86
:102BF00030E480EE200451EC5004BDE810407047F2
:102C000000B5FFF791FF02E010FE30F4F8D441EC7C
:102C1000100443EC112451EC2104A0FB01126FEAD3
:102C2000820252FB100052FB12F252FB1000A0EB8A
:102C3000D07C53EC04245CFB13F153EC1524A1FB72
:102C4000022001FB030053EC4424A2EB000050FBE4
:102C50001CF24FEA111312EB017043EBE27140EAF0
:102C6000515020EA915020F0070053EC7524A0FB4E
:102C7000023C53EC752400FB03CC01FB02CC53EC6B
:102C80000424ACEB824C40EA5C70A0F1010041EC02
:102C9000400480EE200451EC7004704700B5FFF74B
:102CA00043FF02E010FE30F4F8D441EC100480EE53
:102CB000220410EEB204704700B5FFF735FF02E0C2
:102CC00010FE30F4F8D440EC700400EE010410EE75
:102CD000210480EE200451EC3004704700B5FFF76A
:102CE00023FF02E010FE30F4F8D440EC600400EE64
:102CF000010410EE210480EE200451EC30047047F2
:102D000000B5FFF711FF02E010FE30F4F8D441ECFB
:102D1000800400EE010410EE010480EE400410EE89
:102D20001304704700B5FFF7FFFE02E010FE30F419
:102D3000F8D441EC800400EE010410EE010480EEB2
:102D4000400410EE3304704700B5FFF7EDFE02E0DB
:102D500010FE30F4F8D441EC100443EC112400EEE2
:102D6000010410EE3004C0F30070704700B5FFF7A7
:102D7000DBFE02E010FE30F4F8D443EC102441EC0A
:102D8000110400EE010410EE30F48CBF012000208D
:102D9000704700BF00B5FFF7C7FE02E010FE30F439
:102DA000F8D441EC100443EC112400EE010410EEC1
:102DB00030F42CBF01200020704700BF00B5FFF7A2
:102DC000B3FE02E010FE30F4F8D441EC100443EC02
:102DD000112400EE010410EE30F48CBF012000201D
:102DE000704700BF0000000000000000000000006D
:102DF000DB60BE284A059193F4D5097F70374D7D7D
:102E000066A5D83610E4104FAFF224024B1102EB46
:102E1000830201F01F034FF001049C40A4FB003427
:102E2000D568A5FB0456956805FB0466E5FB0356CB
:102E3000556805FB03667047410201D150F0004020
:102E400050F480007047F0B5012363F3DF50C1F107
:102E500009014FF07E07FFF7D7FFB30F53F10003CF
:102E60009C44B6EB8376B20028BF5242B2F1805F39
:102E70000BD20231FFF7C8FF96EA260242F10002A8
:102E8000B2F1805F01D2023FF3D50A4CA2FB0424C9
:102E9000B4FA84F29440240AA7EB020244EBC25035
:102EA000C10DD1F17F01F60F00EBC673BDE8F04014
:102EB00073E00000A2DA0FC911F1800FBCD030EA34
:102EC000CC7248BF0CF1020C20F0004000EE100A5A
:102ED0000DA2F2EC032A22EE802A11F1080FB9FEAE
:102EE000422AB0DDA2EE630AA2EE430A10EE103AC7
:102EF000FDEEC21AC3F3C752782AA4D3D2F17F01E0
:102F000011EE902A944448E083F9223F7A7795B6EF
:102F10000010C93F07B5C0F3C751FF2925D000F005
:102F200032F8BDE80640CEF800000ED2C9438CEA64
:102F3000D17C63EEA02AE1EE032A73EE622A12EE40
:102F4000900A80EACC70106000BD8CEAD17C21EE42
:102F5000232AA3EE602A8CEAD37133EEC22A12EE42
:102F6000100A80EAC170106000BD4102BDE80E4049
:102F700001D150F0004050F480001060186070479C
:102F80005FF0000C01E05FF0010CC0F3C751A1B38A
:102F9000D1F17F0190D920EACC7323F0004000EEFC
:102FA000100AC0F38440203030FA01F1834A51F115
:102FB0000001B2EC024A02EB810202EBC102D2EC48
:102FC000032A70EE620A20EEA01A5FEA5C0C61EE42
:102FD000201A15D221EE041A61EEA41A70EEE10A4D
:102FE00021EE232AA3EE602A8CEAD37133EEC22AA3
:102FF00012EE100A80EAC170704700F00040C7E787
:1030000061EEA41A70EEE10A21EE041A63EEA02A22
:10301000E1EE032A73EE622A12EE900A80EACC7087
:10302000704700BFAFF30080C1FEFF3E25AA2A3ED5
:10303000000000000000803F0000000061C9FC3C6F
:10304000CDE07F3F1CBFFC3C7605813DFE7D7F3F90
:103050009EEF803D090CBF3D0FE37E3F22C5BE3D84
:10306000B624FF3D14047E3FE27BFE3D13071F3E66
:1030700048EB7C3FA0631E3E6D30403E1D817B3F90
:1030800015103F3EA2AD603ECFDC793F3EE15E3E93
:103090007B0D803EFA08783F96717D3E6E988F3E9C
:1030A00065FF753F68B88D3EF4E19F3E939E733F88
:1030B000FD4B9D3EC654B03EAEF7703FB3DDAC3E17
:1030C000C589BF3E604B6E3F0A1ABB3E26C4CF3E49
:1030D000CA356B3F631CCA3EF254E03E66D1673F7F
:1030E0000739D93EDDF0EF3E4B66643F1641E73EBF
:1030F000312B003F8894603F0FC3F53E07E4073F44
:10310000A2C55C3F2B99013FC51F103F8F7D583FE3
:1031100065A1083F8AF6173FB534543FCA310F3FC7
:10312000E2FF1F3F599B4F3FD7C8153F4606283F38
:103130006BCF4A3FC4371C3F4130303FE0B9453F79
:10314000E49A223FA71D383FCA98403F20A6283F57
:103150002FC73F3FAC763B3F4A562E3FDB13483FDD
:10316000CCB6353F6B52343F79C74F3F2F35303F98
:10317000D0B4393F52DD573F70412A3F912D3F3F38
:1031800026CE5F3F9F3E243FC35D443FF125683F0D
:1031900050C21D3F1C9D493FE13B703F4150173FCE
:1031A000BF7E4E3F7810783F71ED103FAF06533F22
:1031B000D4F47F3FA75A0A3F9B64573F2830001042
:1031C0009A4238BF88547047704700BF2DE9F04FCE
:1031D00083B09946DDE90DAB0F9B884611469A07EF
:1031E000074616D1DA453AD20C460D46ABEB0A0635
:1031F0000E4422464B46414620200134B847B44293
:10320000F7D12946BAF1000F08D1204603B0BDE836
:10321000F08F0C46BAF1000F10D00E4655460C9BAD
:103220002E449A440191721B4B46013D41461AF8C7
:10323000010D3446B847002DF5D101990F9B9B072E
:10324000E3D5651AAB45E0D922464B4641462020DE
:103250000135B8475D4504F10104F5D3D5E7BAF16E
:10326000000FDAD10C46D0E72DE9F04F0F9FDDF8C3
:1032700024E017F0020F0A9C9DF82C900E9DDDE9CA
:103280000C8629D1002D6FD1B44225D2202C07F015
:10329000010B00F0128104F1FF3C4FF0300AF444BE
:1032A00001E0202C7AD00134A6420CF801AFF8D806
:1032B000BBF1000F10D0AC420ED2202C74D004F120
:1032C000FF3C4FF0300AF44401E0202C29D00134B7
:1032D000AC420CF801AFF8D117F0100F3AD017F448
:1032E000806F28D11CBBB8F1100F00F0CA80B8F174
:1032F000020F00F0D48030248EF800400124B9F190
:10330000000F67D17E0740F1AA802B260EF80460DB
:103310000134CDE90B57CDE909E4BDE8F04FFFF7E3
:1033200055BFFC0640F189807C0535D42024A64297
:103330006AD0AC4268D0B8F1100F00F08780B8F1C5
:10334000020F5AD0202CE4D0264601344FF0300C26
:103350000EF806C0202CD2D1CDE90B57CDE909E4F7
:10336000BDE8F04FFFF732BF17F0010B3ED0B9F1C7
:10337000000F47D117F00C0F44D1B4429BD2202C40
:1033800089D1202D10D8FC0657D57C0555D4202E88
:1033900000F0B980202D10D02024CCE7BBF1000F25
:1033A00000F0A580202DBCD9FC0646D57C0544D470
:1033B000202E00F0A880202D3FD12C461F26B8F1EA
:1033C000100F7FD0B8F1020FC0D14FF0620C0EF891
:1033D00006C0B7E72D260EF804600134CDE90B577F
:1033E000CDE909E4BDE8F04FFFF7F0BEB442BFF409
:1033F00073AF202C7FF44FAFD6E7202C89D0264620
:103400000134E2E7013DB8E7661ED8D1B8F1100FEC
:1034100064D0B8F1020F7FF46EAF62268EF80060C0
:10342000302644468EF80160B9F1000F3FF46AAFD0
:10343000D0E7B8F1100F7FF46CAF2024CDE90B5723
:10344000CDE909E4BDE8F04FFFF7C0BEBE060ED4DB
:10345000202CF2D078260EF80460013472E73E0783
:103460007FF557AF20260EF80460013451E7202C79
:10347000E3D04FF0580C0EEB040686F800C0013480
:1034800060E7BE0617D558248EF8004030248EF829
:1034900001400224B9F1000F3FF434AF9AE76224EF
:1034A0008EF8004030248EF801400224B9F1000F5C
:1034B0003FF428AF8EE77824F2E7BBF1000F7FF4EA
:1034C00062AF71E717F0200F0CBF4FF0780C4FF090
:1034D000580CA61E0EF806C0013C35E7BC06EAD51E
:1034E00058248EF8004030248EF80140DDE717F0B4
:1034F000100F3FF40EAF17F4806F9AD1202E7FF497
:1035000018AF1F265BE734461F2658E700B97047FF
:1035100001F09ABA10B1D1E900311847704700BFE5
:103520002DE9F04F9FB09DED287BDDE92AA558ECF1
:10353000177B83461E460D91109243463A46384605
:1035400041468DED087B2C9CFFF702FC002840F0E3
:10355000D880384641464FF0FF32754BFFF732FCBA
:10356000002840F0CE80384641464FF0FF326FF4DD
:103570008013FFF7FFFB002840F0C380DDE90878E7
:103580000022384641460023FFF7F4FB002840F0B4
:10359000C081CDE90A78DDE90A2390461F4614F47C
:1035A000806308BF4FF0060A139304F4006258EAE0
:1035B0000703119240F0C080002A00F0A2819FED25
:1035C0005A7B00278DED0E7B4FF00009BA45CCBF2A
:1035D000AAEB070A4FF0000A4F46C8BF0AF1FF3AAC
:1035E00044F480644D4594BF4FF00008A5EB0908F2
:1035F00014F00203119304D0B9F1000F18BF4FF07B
:1036000000083FB1DDE90A01DDE90E23FFF7FCFA0E
:10361000CDE90A01DDE9080100220023FFF7AAFB3A
:1036200030B1DDE90A01024601F10043CDE90A2388
:103630009DED0A7BCDE902A8DDF834A024F40063F7
:1036400004938DED007B334651465846109A00F0A6
:1036500097F98046B9F1000F4FD014F0200F0246C1
:1036600000F1010433460CBF652045205146D84780
:1036700009F1FF3087EAE77C0DF1580900224B463B
:10368000DFF8B080ACEBE77C4FEAD77E01E0202A80
:1036900010D0E246A8FB0C71C90801EB8107ACEB26
:1036A00047073037BAF1090F8C4602F1010203F8DF
:1036B000017BECD805230590069300200A230D9F7B
:1036C000CDE90330CDE9012E33462246394658462E
:1036D000CDF80090FFF7C8FD119B80466BB1109BA1
:1036E000C41AA54209D9424633463946202001343E
:1036F000D847A54208F10108F5D840461FB0BDE8FB
:10370000F08F9DED087B33465846109A0D998DED4C
:10371000287BCDE92B54CDF8A8A01FB0BDE8F04F11
:1037200000F02EB9AFF300800000000000000000A0
:10373000FFFFEF7FCDCCCCCCC7F30A50A0F2FF3017
:10374000FFF7BEFA8AA3D3E90023FFF737FA8AA36B
:10375000D3E90023FFF70AFAC7F31307CDE90E01F7
:1037600047F07F51404600227B4B41F44011FFF768
:1037700011FA6BA3D3E90023FFF720FA02460B46A8
:10378000DDE90E01FFF7F2F9FFF7BEFA0746FFF792
:1037900097FA65A3D3E9002380468946FFF70EFA1E
:1037A00000226E4BFFF7E2F9FFF7AEFA03464946F7
:1037B000404612935EA3D3E90023FFF7FFF980464A
:1037C00012988946FFF77CFA5BA3D3E90023FFF741
:1037D000F5F902460B4640464946FFF7DBF902463B
:1037E0000B4680468946FFF7E9F942464B46CDE94C
:1037F0000E0140464946FFF7B9F90022CDE9140110
:10380000DDE90E01564BFFF7FFF90022554BFFF79C
:10381000ADF902460B46DDE90E01FFF7F5F900228E
:10382000514BFFF7A3F902460B46DDE90E01FFF706
:10383000EBF942464B468046894600204FF08041D6
:10384000FFF7A8F902460B4640464946FFF78EF9B6
:1038500002460B46DDE91401FFF7D6F90022434B7F
:10386000FFF784F9129B002203F2FF3C4FEA0C534E
:10387000FFF7A4F980468946DDE90A0142464B4636
:10388000CDE90E89FFF776FA68BB4346494607F152
:103890006302C62A119A8CBF4FF005094FF0040944
:1038A000002A3FF49FAE0B433FF48EAEDDE90A01E0
:1038B00023A3D3E90023FFF771FA48B1DDE90A0138
:1038C00021A3D3E90023FFF755FA00287FF47CAE4B
:1038D000BAF1000F3FF486AE139B002B3FF482AE8B
:1038E0000AF1FF3A7EE600221E4B40464946FFF7AA
:1038F0008BF90A4601460346CDE90E12013F1146F7
:10390000C5E79FED137B17464FF004098DED0E7B45
:1039100068E608F100430A970B933CE6AFF300809A
:1039200061436F63A787D23F71A379094F930A4020
:103930001655B5BBB16B0240EF39FAFE422EE63F99
:103940002D431CEBE2361A3F0000000080842E411C
:1039500000000000000000000000F83F0000E03F11
:1039600000002C4000002440000018400000F03F00
:10397000FB799F501344D33FB3C8608B288AC63F5E
:103980002DE9F04F97B0DDE92089CDE90401DDE9AB
:10399000224BCDE90623404642464B464946DDF8D8
:1039A00090A0FFF7D5F9002840F0C5814046494670
:1039B0004FF0FF326FF48013FFF7DCF9002840F07E
:1039C0001D81404649464FF0FF32C14BFFF7FAF9DF
:1039D000002840F0E380B8A3D3E9002340464946DD
:1039E000FFF7F0F9002840F0CB80B5A3D3E900231E
:1039F00040464946FFF7BEF9002840F0C1804046E6
:103A0000494600220023FFF7B5F9002840F0E08086
:103A10001AF480650D9000F0E980092C40F296813F
:103A20000EAB1A460C9330210023A4F10905013393
:103A3000202B02F8011BA4EB030600F03A81AB42F5
:103A4000F5D19FED9D7B8DED087B49464046FFF704
:103A50005BF90446FFF734F902460B4640464946F7
:103A6000FFF798F8DDE90823FFF7A8F802460B46B0
:103A7000CDE90A23FFF75AF90746FFF733F9024663
:103A80000B46DDE90A01FFF785F802460B46CDE952
:103A90000A2300228F4BFFF795F9002800F0DB8006
:103AA00001373846FFF71EF9DDE90823FFF776F9FD
:103AB00008B100270134002E40F0B1802046FFF706
:103AC000FFF802460B4640464946FFF763F80022DE
:103AD000804B06460F46FFF74DF940B93046394650
:103AE00000227C4BFFF76EF9002800F015810C9B3B
:103AF000691E7948194410E080FB0462C3EBA203FD
:103B000003EB8302A4EB420404F1300201351C46AE
:103B100001F8012F002B00F0AB80202D4FEAE47359
:103B2000EAD10AF00303012B1CD1BBF1000F19D01D
:103B30000D9B002B40F0F9801AF00C0F40F0F5803F
:103B4000AB4540F2D380202D0BD030220C996B1E58
:103B50000B4401355D4503F8012F00F08D80202DC9
:103B6000F7D12025DDE90623DDE904010C9CCDE930
:103B700002BA01950094FFF729FB17B0BDE8F08F5A
:103B8000CDE92089DDE90623DDE90401CDE923BA89
:103B9000229417B0BDE8F04FFFF7C2BC4F4DCDF8EF
:103BA0008CA00AF0040ABAF1000F4D4C18BF2C4645
:103BB000DDE90623DDE9040120940CBF032404247D
:103BC000CDF888B0219417B0BDE8F04FFFF7FEBAEA
:103BD0004B46424600200021FEF7DCFF01231AF489
:103BE0008065804689460D937FF417AF9FED367B45
:103BF0000EAB06268DED087B0C9326E70424DDE949
:103C00000623DDE90401374DCDF88CA0CDF888B04E
:103C10002095219417B0BDE8F04FFFF7D7BA0C9B61
:103C2000681EDFF8C4C018440DE0ACFB0721C908CA
:103C300001EB8102A7EB42023032092F00F8012F7D
:103C400027D90F461D46202D05F1010306F1FF3649
:103C5000EBD120254BE70022DDE90A011D4BFFF7E0
:103C600089F800287FF427AF002F5AD1013722E7C7
:103C70000AF00303012B75D0202D3FF473AF0D9B89
:103C8000BBB32D2205F158036B4403F8202C0135FA
:103C900068E7202BDDD0AEB30C9A1E4415443022C9
:103CA00001E0B3422ED00133202B05F8012FF8D1CB
:103CB000CFE71D46C5E600BF0000000065CDCD4141
:103CC0000000000065CDCDC10000000080842E41C1
:103CD000FFFFEF7F0000E03F6766666658BE00109A
:103CE00060BE001068BE0010CDCCCCCC202D3FF4BF
:103CF00039AF1AF0040F0DD11AF0080F3FF432AFAC
:103D00002022BFE72E2103F158026A4402F8201C4A
:103D10005D1CECE62B22B5E7E3077FF5E8AE013446
:103D2000E5E6FA077FF5C7AEA0E70BF1FF3BAB4531
:103D30003FF609AFA0E70324DDE90623DDE904012E
:103D40000A4DCDF88CA0CDF888B061E7084B264627
:103D500003EBC40393ED007B0EAB8DED087B0025D8
:103D60000C9372E6BBF1000F86D0E1E664BE001052
:103D700080BF00102DE9F04F9A469BB0249C964DD1
:103D80000B94964C0B1E18BF834625609AF80000D2
:103D9000934C0A9308BFA3460992002800F0BC8206
:103DA0004FF000090AE04A46099B0A9909F1010906
:103DB000D8479AF80000002800F0CE8025280AF1A4
:103DC000010AF0D10023524612F8010BA0F12001A4
:103DD00010290AD8DFE801F04009093C090909095E
:103DE00009090938093409093000A0F1300109290D
:103DF00040F28C802A2800F0F58000210C912E28BA
:103E000000F099800027A0F1680112292DD8DFE881
:103E100011F057012C0051012C0045012C002C0001
:103E20002C002C002C002C002C0027002C002C0037
:103E30002C002C002C002700924643F00103C2E71F
:103E4000924643F00203BEE7924643F00403BAE70A
:103E5000924643F01003B6E7924643F00803B2E7F8
:103E60009AF8010043F4807301326728924600F209
:103E70008280242840F2C680A0F12502422A00F266
:103E8000C180DFE812F05F01BF00BF00BF00BF00CC
:103E9000BF00BF00BF00BF00BF00BF00BF00BF002A
:103EA000BF00BF00BF00BF00BF00BF00BF00BF001A
:103EB000BF00BF00BF00BF00BF00BF00BF00BF000A
:103EC000BF00BF00BF00260145012601BF00BF00A3
:103ED000BF00BF00BF00BF00BF00BF00BF00BF00EA
:103EE000BF00BF00BF00BF00BF00BF00D301BF00C5
:103EF000BF00BF00BF00BF00BF00BF00BF00BF00CA
:103F0000D3016701D301260145012601002100E00C
:103F1000013201EB810100EB410110789246A0F1E2
:103F20003004092CA1F13001F2D92E280C9102F1B4
:103F300001027FF467AF9AF801001146A0F1300644
:103F4000092E43F4806340F231812A2800F03E813B
:103F500092460027013256E74C46099B994501D30A
:103F600003F1FF394A460020099B0A99D8472046A9
:103F70001BB0BDE8F08FA0F16902D2B20F2A41D880
:103F8000012649F2410196400E4040F001810A2A83
:103F90003FD0072A36D10B9C54F8042B002A00F09E
:103FA000288143F021010DF1480E704603E0202ED8
:103FB00000F029811A4602F00F052B46092D94BF07
:103FC000303337330F2A00F8013B06F101064FEA80
:103FD0001213ECD817E100BF753D00102824002013
:103FE000C93100100B9C9AF8010054F8045B92460A
:103FF000002DBDBF694243F002030C910C950B9458
:104000000132FCE64A46099B0A9909F10109D847A1
:10401000CFE60B9951F8048B98F800201046002F3A
:1040200040F0E18072B16FF0010C0CF1010C4646DA
:10403000C44401E0664503D016F8014F002CF9D1C5
:10404000A6EB080613F4806C02D0BE4228BF3E46A1
:1040500013F0020400F08781002A00F02B81BCF1EC
:10406000000F00F041810B940D964A46DDE909549A
:104070000E464F4408E02B462146D84718F8010F5A
:1040800009F1010910B14A464F45F4D131460B9C64
:104090000D9E002C40F00E810B918AE69AF80100EB
:1040A0006C287FF4DFAE9AF8020043F440730AF103
:1040B0000302DAE69AF8010043F400730132D4E611
:1040C0009AF80100682800F0208143F08003013253
:1040D000CBE6672800F0E780472800F000814528FC
:1040E00000F0FF800B9C04930C9B0734CDE9027316
:1040F00024F007031C46DDE90931F4E802674A466B
:104100005846CDE900670B94FFF70AFA814650E65E
:1041100046280B9C08BF43F0200304930C9B0734F4
:10412000CDE9027324F007031C46DDE90931F4E808
:1041300002674A465846CDE900670B94FFF720FC1A
:10414000814636E64A462520099B0A9909F101096C
:10415000D8472EE60B9A9C0702F1040709F10106E5
:1041600040F1E6801078099B4A460A99D8470C9B93
:10417000012B40F22C81DDE90954994432462B464B
:10418000214620200136D8474E45F7D10B9710E63F
:104190006F2800F08B8040F26581782800F008815C
:1041A0004FF00A0823F01003C44647E0002707EB4E
:1041B000870700EB4700A0F1300711F8010FA0F1CD
:1041C0003002092AF3D98A464A1C1CE60B9C9AF84D
:1041D000020054F8047B0AF1020A0AF101020B946E
:1041E00027EAE7770FE6002A3FF42CAF07F1FF3C00
:1041F0001BE723F0100113F4806241F021013FF42A
:10420000D2AE0DF1480E08231020059300234A4634
:10421000CDE9023006915846DDE90931CDE900E6E5
:104220000497FFF721F80B948146C2E5582879D00E
:10423000622840F051824FF00208C44613F48060B7
:104240006DD123F00C0313F4007240F0C2800B997F
:1042500004310D9113F4807140F02E825E060B9AAA
:1042600040F1AA801278002A40F0DA8023F010038F
:10427000002800F0D58011460DF1480E06930C9BE6
:10428000CDF80CC0CDE90473019100234A46029396
:104290005846DDE90931CDF800E0FEF7E5FF0D9B5A
:1042A00081460B9385E543F400631BE74FF0080854
:1042B000C446C3E70C9B4C46B3427FF6EDAE0F46B7
:1042C0004B44A3EB0609DDE909652246334629463E
:1042D00020200134D8474C45F7D13946DCE643F479
:1042E000006343F02003FDE60F460B94DDE909541B
:1042F0004A462B462146D84718F8010F09F1010913
:104300000028F5D139460B9CC3E69AF8020043F029
:10431000C0030AF10302A8E5044681461DE623F026
:104320000D0390E74FF0100843F02003C44685E7E3
:104330000C9B012B45D9DDE909544E4609F1FF38A4
:10434000984432462B46214620200136D847464520
:10435000F7D10C9B324699440B9B1878DDE9093163
:10436000D8470B9725E50C9BB34240F2EE81CDE98F
:104370000D48DDE9095488464B449E1BCDF82CC0FE
:104380004A462B462146202009F10109D847B1456C
:10439000F6D14146DDF838800C9BDDF82CC00D9C31
:1043A00098F800205E1C1046002A7FF458AE73E691
:1043B0004FF01008C44641E71D064CBF1288126832
:1043C00051E713464A461878DDE90931D847B14626
:1043D000DCE60B9C073424F007042246656852F89B
:1043E000084B0B9254EA050240F02C8123F0100395
:1043F000002800F0278100260DF1480E06930C9B43
:104400004A46CDE904730023CDE900E6CDF80CC09F
:1044100002935846DDE90931FEF726FF8146C8E4DC
:1044200013F0200F14BF412061200DF1480E764695
:10443000A0F10A0803E020293FF420AF2246B2FB96
:10444000FCF40CFB1425E8B2092D00F130058ABFFD
:104450004044E8B2C0B2624506F8010B01F1010127
:10446000E9D20BE723F0100269280D9240F06F812A
:1044700013F4806204D04FF4806223F011030D9393
:104480000D9B13F4007640D10B9B03F104080D9BA8
:1044900013F4807040F09880590640F1C6800B9B61
:1044A00019780C46CB0F002900F0B98022460DF197
:1044B000480E74461646DFF8A0C201E020280FD04F
:1044C0003546ACFB0621C90801EB8102A6EB42028E
:1044D0003032092D0E4600F1010004F8012BEDD811
:1044E0000D9ACDE9010306920C9ACDE904720A23D4
:1044F0004A4603935846DDE90931CDF800E0FEF75E
:10450000B3FECDF82C80814653E40B9C073424F095
:10451000070421460846636850F8081BDC0F0B901F
:1045200051EA030000F0C3800A46191E48DB134617
:104530000DF1480EF4460026CDE90E94DFF81882FE
:1045400001E0202E2DD05A1842F10002A8FB02599A
:1045500029F0030505EB9905521B1C469B1A61F1D6
:10456000000508464FF0CC3101FB03F108FB0511B3
:10457000A3FB08531944052305F00109A9FB0339DE
:104580009B180A2C03F130034FEA550570F1000027
:104590000CF8013B06F1010645EAC1734FEA5101EF
:1045A000CFD2DDE90E940D9B4A4606930C9BCDE9D4
:1045B0000164CDE904730A23CDF800E0039328E7F2
:1045C000524261EB4101B2E70B9B1968CB0F002906
:1045D00000F0AB8081EAE172A2EBE1720DF1480ECE
:1045E0007046DFF874C101E0202E10D01546ACFBF8
:1045F0000241C90801EB8104A2EB440404F130023A
:10460000092D00F8012B06F101060A46ECD80D9A97
:10461000CDE9016306920C9ACDE9047267E7002A9E
:104620003FF445AF0DF1480E5AE713F0800F0B9B96
:1046300000F08180B3F9001081EAE174A4EBE17429
:10464000A4B22FE713F0200F14BF412261220DF115
:10465000480E0A3ACDE90D97CDF844B000267746CA
:10466000F3469146CDE90F3C03E0202E17D00446D7
:104670000D46294642460023204607F0A1FAD2B251
:10468000092A02F1300388BF02EB09034445DBB27B
:1046900075F1000507F8013B06F10106E5D2DE469B
:1046A000DDE90D97DDE90F3CDDF844B0A6E6002A10
:1046B00047D1134611463BE70B990968A1B923F08E
:1046C000100388B10DF1480E06930C9BCDF80CC079
:1046D000CDE904730192D8E513F480627FF4CBAE88
:1046E00023F010030D93CBE613F0200F14BF4120ED
:1046F00061200DF1480E7646A0F10A0802E0202A5A
:10470000E2D02146B1FBFCF40CFB1415E8B2092DF4
:1047100000F130058ABF4044E8B2C0B2614506F8F6
:10472000010B02F10102EAD2CEE7002A3FF456AFB4
:104730000DF1480E6BE7196881EAE174A4EBE174AE
:10474000B0E600260DF1480E2DE701362BE64FF0BE
:104750000A081346C44671E5CDCCCCCC84460CB4D3
:1047600010B584B006AC54F8043B0A460094614688
:1047700004480394FFF7FEFA04B0BDE8104002B00D
:10478000704700BFC131001070B594461E46054603
:104790000C4684B04FF0FF32634602A900960348EE
:1047A000CDE90254FFF7E6FA04B070BD15350010EC
:1047B00010B5094B84B01C684CB1034600914FF012
:1047C000FF3203A90548A047012004B010BD00F046
:1047D0007DF9204604B010BD282400200D350010BE
:1047E00000BEFDE708B5FFF7FBFF00BF38B5064C7C
:1047F000064DFEF77BF8AC4204D254F8043B9847D0
:10480000AC42FAD338BD00BF40BC001050BC001011
:104810000368084611461847437D2DE9F047814655
:104820000F461646002B43D0002A3BDD037D0020B7
:104830004D1E014615F8012FDFF884800A2A01F188
:1048400001040ED0A6421CD02B782146A3F10D0303
:10485000B3FA83F315F8012F5B090A2A01F1010469
:10486000F0D1002BEED18142A1EB000138441BDCDA
:1048700002214046D9F800309847A64208D0204689
:10488000E2E7864204DD311AD9F80030384498470F
:10489000374417F8013CA3F10D03B3FA83F35B0926
:1048A00089F81430BDE8F087D9F800309847DFE781
:1048B0003846D9F800301146BDE8F047184700BF28
:1048C000D0BF00100B682DE9F041802B0D46064645
:1048D00005D05A1C2B442A601E71BDE8F0810F4B95
:1048E0001C68A4B10E4F01F1040801E0246974B101
:1048F0002368002BFAD03B680BB1A342F6D12046C7
:1049000041462A68FFF788FF2469002CF0D1002374
:1049100001222B442A601E71BDE8F0811C2000207A
:10492000242000202DE9F04782B00D46924699469A
:104930000746FDF747FE4FF0FF366FF000442F4A61
:10494000821841F10003964274EB03013CBF3246EA
:1049500023462B4807F044F96B1C804603D13846A8
:1049600007F09AF80546274B274E1C68274BB9F1EC
:10497000000F18BF1E46B4B1BAF1000F1AD1DFF80C
:10498000909001E0246974B12368002BFAD0D9F823
:1049900000300BB19C42F5D120462A463946B0473B
:1049A0002469002CF0D1B8F1000F1FD1284602B0C5
:1049B000BDE8F0874FF00A0ADFF8549002E024695E
:1049C000002CF0D02368002BF9D0D9F800300BB1BF
:1049D000A342F4D12A4639462046B0470122204658
:1049E0000DF107018DF807A0B047E8E7044807F08C
:1049F000EBF8284602B0BDE8F08700BF40420F0048
:104A0000A01600201C20002011480010194800109A
:104A1000242000200A4A13684BB1834202D109E0E6
:104A2000984207D003F110021B69002BF8D101B1A5
:104A3000106070470029FCD1036913600161704761
:104A40001C20002000F0E0BAF0B583B006468DF8D7
:104A50000700FDF7B7FD4FF0FF356FF00044174A30
:104A6000821841F10003954274EB03013CBF2346D9
:104A70002A46134807F0B4F8124B07461C689CB14D
:104A8000114D01E024697CB12368002BFAD02B681A
:104A90000BB19C42F6D1204601220DF10701FFF730
:104AA000BBFE2469002CEFD117B9304603B0F0BD2E
:104AB000034807F089F8304603B0F0BD40420F00CC
:104AC000A01600201C2000202420002038B5044619
:104AD00006F0E2FF012305461A4620462946FFF765
:104AE00021FF084B1C682CB163682BB198472469DF
:104AF000002CF9D1284638BD2469002CF4D1284671
:104B000038BD00BF1C2000202DE9F041A2B00446B2
:104B10000D46FDF757FD4FF0FF376FF00046274A6F
:104B2000821841F10003974276EB03013CBF3A46FD
:104B30003346234807F054F800262B460746224602
:104B4000204801A90196FFF71FFE019B06467BB98D
:104B50001D4B1C682CB1636843B198472469002C35
:104B6000F9D10FBB304622B0BDE8F0812469F1E7EE
:104B7000DFF85480D8F80050EDB1144C01E02D69F5
:104B800075B12B68002BFAD023680BB1AB42F6D17C
:104B90002846019A02A9FFF73FFE2D69002DF0D1AA
:104BA000D8F800400195D5E7054807F00DF83046E4
:104BB00022B0BDE8F0810195D3E700BF40420F006D
:104BC000A0160020C54800101C2000202420002032
:104BD0000FB400B583B004A951F8040B0191FFF79D
:104BE00093FF03B05DF804EB04B07047704700BF5B
:104BF0000022014B1A707047A52601204B79FF2B2C
:104C00000BD1887948B9CB79012B07D1082A05D96E
:104C1000034B8A7809201A7070470020704700BF44
:104C2000A526012001207047012901D001207047ED
:104C300008B5104B91881B78994201D0002008BD1F
:104C40005378012B08D0022BF8D1002164220846AA
:104C5000FDF788FD012008BD5188CB054BBF4A0AEE
:104C60004A0A10464FF0FF3002F0010201F07F01C6
:104C7000FDF7F6FDA5260120004870479CC00010F6
:104C8000012907D15378012B02D19388072B03D038
:104C900000207047012070471146A623014A01F009
:104CA00041BA00BFF4BF00100346012201481A7048
:104CB000704700BFD4BF001008B50B68B3F5966FFE
:104CC00000D008BD00224FF0FF301146FDF7C8FDAF
:104CD000024A034B10601960704700BFB81F0020E4
:104CE000BC1F0020184B70B51A68002A28D0EFF3BB
:104CF000108172B6D2E8CF4F0120002CFAD1C2E861
:104D0000440F002CF6D1BFF35F8F00220F4C1868C0
:104D100059602270C0E88F2F81F31088002400258D
:104D20000B4E3078FCF71CFC20B9002400252046EF
:104D3000294670BD3078FCF723FC2046294670BD1B
:104D40004FF47A740025EBE738240020A7260120D1
:104D5000A6260120014B1878FCF712BCA6260120DC
:104D600038B5044600200D4601F008FBA8B300202A
:104D700001F01AFB88B3FDF725FC4FF0FF3E6FF002
:104D8000004C174A821841F1000396457CEB030161
:104D90003CBF72466346134806F022FFE8B100208C
:104DA00001F0ECFA58B900214FF0FF3000F012FD8D
:104DB0006FF002040B4806F007FF204638BD0020C4
:104DC00001F0F2FA0028EED021462A46002001F038
:104DD000F7FA04460028EDD1EAE76FF00204ECE7A9
:104DE00040420F007825002008B5FDF7EBFB4FF09F
:104DF000FF3E6FF0004C0F4A821841F100039645C8
:104E00007CEB03013CBF724663460B4806F0E8FEAC
:104E100070B14FF0FF30002100F0DCFC002001F009
:104E200015FB0028F5D1BDE80840034806F0CCBECC
:104E300008BD00BF40420F00782500202DE9F8434F
:104E400007460E46FDF7BEFB4FF0FF356FF00044FE
:104E5000334A821841F10003954274EB03013CBFD1
:104E60002A4623462F4806F0BBFE08B9BDE8F88362
:104E7000002001F083FA002848D0002E41DD0025F3
:104E8000DFF8A480DFF8A49013E02246002001F0B0
:104E900023FB002104464FF0FF3000F09BFC002074
:104EA00001F0D4FAFDF78EFBC8E900012544AE42BB
:104EB00027DD002001F032FB741B8442A8BF0446AA
:104EC0007919002CE1D121464FF0FF3000F082FC2F
:104ED000204601F0BBFA204601F050FA88B1204686
:104EE00001F01CFB0028E2D1FDF76CFBD8F8003084
:104EF000D8F8042013EB090342F1000283428A41EF
:104F0000D5D20848BDE8F84306F05EBE0020002177
:104F1000054BC3E90001BDE8F843024806F054BE62
:104F200040420F00782500200819002020A107002A
:104F300030B5002185B02E4806F056FEF0B92D4B55
:104F40001A68CAB1EFF3108172B6D2E8CF5F0124BC
:104F5000002DFAD1C2E8454F002DF6D1BFF35F8F87
:104F6000254C1D6822785960D3B201222270C5E811
:104F70008F0F81F31088CBB105B030BD00214FF009
:104F8000FF3000F027FC002001F00EFA044618481C
:104F900006F01AFE002CEFD0184B1B68002BEBD04C
:104FA000174A106805B0BDE830401847FDF712F801
:104FB0000446FDF707FB4FF0FF3C6FF0004510F58E
:104FC0007A7241F10003944575EB030138BF2B461B
:104FD0004FF000014FF0010520460A4C38BF6246F1
:104FE000CDE901150094FCF7F9FF05B030BD00BF15
:104FF0007825002038240020A7260120B81F002093
:10500000BC1F0020E54C00104FF0504330B585B078
:105010001C68FCF7DFFFFDF7F3F8A04202D0002088
:1050200005B030BD00212A4B08461B7801F046FD33
:1050300028480368002B47D00120FCF751FD0346A8
:10504000254C2649C0B22370FCF7B6FA207801211E
:10505000FCF770FA0E20FCF79FFA40BB204B0125AD
:10506000C3E90000FCF7B6FF0446FDF7ABFA4FF0CA
:10507000FF3E6FF0004C10F57A7241F10003964547
:105080007CEB03014FF000012046164C3CBF7246FA
:105090006346CDE901150094FCF7A0FF0028BEDBB4
:1050A00001211148FFF7B6FC012005B030BD0120F9
:1050B000FCF7FCF901460A48FCF772FD00220E20BD
:1050C0000A49FCF7A9FAEBE7FCF74EFDB4E700BF8D
:1050D000B4C1001078250020A6260120314F001011
:1050E00038240020E54C001054160020554D0010C7
:1050F0000048704738C1001000487047E4C00010F5
:1051000038B5184B04461A780AB344B940F209423C
:105110004FF44173144D6A8013482B8038BD052C21
:105120001AD8124B104D53F8241028460023013989
:1051300003E0132B20F8022F10D011F8012F0133B8
:10514000DBB2002AF5D15B0043F44073E4E71121A0
:10515000184600F025F8D8E7002038BD4FF44A7310
:10516000DAE700BF94250120F01F0020CCC000101A
:1051700000B545F247308BB0FDF766FB01220346D0
:10518000092101A89847DDE90332044912BA1BBA84
:10519000C1E900230BB05DF804FB00BFE824002048
:1051A000012901F1FF3300F0B3805D490A784FEA2D
:1051B000121C9F2A8CBF0CF1370C0CF1300C012B08
:1051C00080F800C000F0A78002F00F02092A8CBF0F
:1051D00037323032022B427000F09D804A784FEA1D
:1051E000121C9F2A8CBF0CF1370C0CF1300C032BD6
:1051F00080F802C000F08F8002F00F02092A8CBFF5
:1052000037323032042BC27000F085808A784FEA42
:10521000121C9F2A8CBF0CF1370C0CF1300C052BA3
:1052200080F804C077D002F00F02092A8CBF373211
:105230003032062B42716ED0CA784FEA121C9F2A78
:105240008CBF0CF1370C0CF1300C072B80F806C02A
:1052500061D002F00F02092A8CBF37323032082B9E
:10526000C27158D00A794FEA121C9F2A8CBF0CF1E8
:10527000370C0CF1300C092B80F808C04BD002F031
:105280000F02092A8CBF373230320A2B427242D0C9
:105290004A794FEA121C9F2A8CBF0CF1370C0CF193
:1052A000300C0B2B80F80AC035D002F00F02092A0F
:1052B0008CBF373230320C2BC2722CD08A794FEA35
:1052C000121C9F2A8CBF0CF1370C0CF1300C0D2BEB
:1052D00080F80CC01FD002F00F02092A8CBF3732B1
:1052E00030320E2B427316D0CA7911099F2A8CBF17
:1052F000373130310F2B81730DD002F00F02092AA4
:1053000094BF30323732102BC27318BF103002D026
:10531000002303707047184400230370704700BFD8
:10532000E824002070B500F033F90C2340261B4C14
:10533000FF22A3670E201A49FCF76EF9194B32467B
:105340000021184606F0DAFA0346002101258020E4
:10535000154A58849A60843A5D701E831E8759608E
:10536000C2F88410C2F8801002F58072DA60DA6246
:10537000803A83F8211083F83B1059629A624FF00B
:10538000005606F015FC4FF480320849084B25649E
:105390002846E664C4F89010DA6470BD000011502D
:1053A000A9030020282000208400105010D0010004
:1053B0000020115001210E20FCF7BCB80022024849
:1053C000114600F005B900BF48200020044B1970B9
:1053D00021B14FF40032034BC3F89020704700BF57
:1053E000A1260120002011500B785B0602D14B78DA
:1053F000052B00D070474B88014ADBB21360704721
:1054000000001150CB782DE9F04103F0030EBEF1FE
:10541000010FC3F301005DD0002791F802C0354CA5
:105420000CF07F035E00898806EBDC1204EB42126D
:105430004FEADC15D076C1F30A0185F00100507007
:1054400082F802C01183D77018B2DA008DBB2A48E7
:10545000043204EB831C02EB0008CCF808801750E0
:105460008BB3264ADB001A44CCF80420244B3F318E
:105470001A6821F03F01BEF1020F08BF4900114434
:105480001960204B771904EB47179942FA602CD822
:105490002E4404EB4613D97E82F0A04282F480129F
:1054A0005B6842EA816242F000421A600120BDE876
:1054B000F081DFF844C004EB83186244C8F8282068
:1054C0004CF830704BB900220F4904EB4513D960FA
:1054D0005A60EBE70020BDE8F081DB0003F1A04358
:1054E00003F58013C8F82430C0E7FDF7F9F9FA682E
:1054F000CEE700BF2820002080001050040010508C
:1055000034240020FF0F10500001105006F050BB53
:105510008C4608B5114607481A460CF07F034FEA3F
:10552000DC1C0CEB430C00EB4C1000F051F801209C
:1055300008BD00BF28200020CB0911F07F0103D156
:10554000064AC3F102009066054803EB41034FF49D
:105550000062002100EB431006F03EBB002011501A
:105560002820002011F07F0300D17047002210B4E2
:10557000C809064C00EB430004EB40136FF40061D4
:1055800018465DF8044BDA7006F026BB2820002090
:105590004FF0805209480A4908B50A4B02600A6078
:1055A0009968C94311F08051FAD14FF480520648EE
:1055B00006F0A4F90922054B5A6708BD00200240F5
:1055C0000030024000000240000010500000115066
:1055D00000234FF0010C10B580F81AC08282C382FC
:1055E0000161044606F004FB20B14FF40032074B82
:1055F000C3F89020204606F0CFFA10B1012323779C
:1056000010BD2046BDE8104006F0CEBA0020115073
:105610002DE9F04100241D4E054623463278DFF87F
:1056200078801B4F0DE03B6813EB441325D0DB68FB
:105630002846984732780134E4B2511CA1422346EF
:1056400006DBA242A3EB0203EDD808EB4313EEE71F
:10565000104C54220021204606F050F94FF0FF3341
:10566000251D6360C5E90133EB6004F114002022BD
:10567000BDE8F041FF2106F041B94FF0E023D3F837
:10568000F03DDB0700D500BEBDE8F081A02601207B
:10569000C01A0020C81B00204CC10010704700BF7A
:1056A000704700BF0020704700207047704700BF60
:1056B000704700BF704700BF704700BF024B58786B
:1056C000003818BF01207047C81B0020024B187813
:1056D000C0F38000704700BFC81B00202DE9F047D1
:1056E000DFF8E8A09AF80030FF2B02D00120BDE8D7
:1056F000F0870E4600293ED0002154220746294853
:1057000006F0FCF80022284C284B20461A70FCF7C3
:105710002BFA274B27481C60274CFCF733FA20460E
:1057200001F0B0FD254A264B264D146063B3284690
:10573000FFF7BAFA244B2A7818600024DFF890901B
:105740002346DFF884800EE0D8F8003013EB4413D2
:1057500011D05B687BB198472A780134E4B2511CC0
:10576000A142234612DBA242EED89B1A09EB431357
:105770005B68002BEFD14FF0E023D3F8F03DDB075F
:1057800000D500BE0020B2E72A78D6E73146384679
:105790008AF80070FFF7C6FD0028ECD03846FFF706
:1057A00009FEA3E7C81B0020C01B0020A226012081
:1057B0001C1C0020801600206C160020201C0020DD
:1057C000A94C0010A0260120C01A00208816002035
:1057D0004CC100102DE9F04FDFF8C8928BB099F85A
:1057E0000030FF2B00F0F180A84CA94DDFF8B0A2EB
:1057F000DFF8B4B226687369EFF3108272B6D3E8AB
:10580000CF0F01210028FAD1C3E8401F0028F6D1AC
:10581000BFF35F8FB261304607A901F081FB00231F
:105820007269C2E88F3FB36983F31088002800F0E3
:10583000CC809DF81D30013B072B00F27D83DFE813
:1058400003F0A7B1959D8E350A04089B002BD1D09B
:1058500009989847CEE79DF8201001F07F0605EBE8
:10586000460000EBD11090F8343023F0010380F8AB
:10587000343090F8343023F0040380F83430002EB4
:1058800000F0A680037D9AF80020934280F0938078
:10589000804A126812EB431300F090809E699DF8D5
:1058A0002120099B9DF81C00B047A3E79BF800301E
:1058B000002B00F083809BF80030013BDBB28BF8BB
:1058C00000309BF8003003F0FF00002B92D1704FA6
:1058D0009DF81C803B7843F001033B7097F834300F
:1058E00060F3000387F8343097F8343060F38203B4
:1058F00087F8343097F8353060F3000387F8353097
:1059000097F8353060F3820387F8353000F06AFC91
:105910009DF8203003F06002602A6CD0402A7CD0D1
:1059200003F01F03012B00F0C180022B00F08180E7
:10593000002B60D1202A00F0E981002A5BD19DF87C
:105940002130092B57D8DFE813F0B001A20156002F
:10595000C101560095016B0156006001F4002B78DF
:10596000D9077FF547AFFFF7A7FE43E7EB78DA07E4
:105970007FF540AF0898FFF793FE3BE72B78D807F9
:105980007FF538AF2878C0F3C000FFF793FE31E70A
:105990009DF81C00FFF73CFE00F01AFC9DF820303B
:1059A000AB7027E79DF81C00FFF732FE00F010FCFB
:1059B000FFF77EFE1EE7501C984211DA4FF0E023FD
:1059C000D3F8F03DDC0700D500BE0BB0BDE8F08F8A
:1059D000099B9DF821209DF81C0000F017FC09E7A9
:1059E0009B1A2D4A02EB431358E7FFF785FB02464B
:1059F000002840F082814FF0E023D3F8F03DDE072D
:105A000000D500BE9DF81C000021FFF795FD802108
:105A10009DF81C00FFF790FDECE6204800F0E2FB4B
:105A20000121404608AAFFF72BF900287FF4E2AED7
:105A3000E8E79DF8241011F0700FDCD101F07F062B
:105A400007EB4600164B00EBD1101B78007D76006B
:105A5000019698424FEAD116009659D35E1C8642B1
:105A6000C0F26681C01A0C4B03EB4016002A00F00E
:105A70006381706900F0B6FB01214046736908AA92
:105A8000984700287FF4B6AEBCE700BF201C00207A
:105A9000C81B0020C01A00204CC10010814C00100F
:105AA000A026012088160020A22601209DF824307F
:105AB0000F2BA7D8AE4A3B441B791278934232D3BE
:105AC000511C99429EDBAB4E9B1A06EB4316706944
:105AD00000F088FB01214046736908AA9847002816
