:020000041000EA
:10000000002008205D0100101B0100101D010010E0
:100010001101001011010010110100101101001058
:100020001901001019010010190100101F01001022
:10003000110100101901001021010010230100100E
:100040001101001011010010110100101101001028
:100050001101001011010010110100101101001018
:100060001101001011010010110100101101001008
:1000700011010010110100101101001011010010F8
:1000800011010010110100101101001011010010E8
:1000900011010010110100101101001011010010D8
:1000A00011010010110100101101001011010010C8
:1000B00011010010110100101101001011010010B8
:1000C00011010010110100101101001011010010A8
:1000D0001101001011010010110100101101001098
:1000E0001101001011010010110100101101001088
:1000F0001101001011010010110100101101001078
:100100001101001011010010110100101101001067
:10011000EFF30580103800BE00BE00BE00BE00BE7A
:1001200000BE00BEF2EB88710CAE001034AE0010C1
:10013000A001001090A31AE7D3DEFFFF42012110B7
:10014000FF01000024B40000793512AB4FF000002D
:100150001E49086006C881F3088810474FF05040D8
:10016000006810B14FF00000F2E70DA40ECC00299A
:1001700002D000F012F8F9E71549164A002000E015
:1001800001C19142FCD11449884714498847144958
:10019000884700BEFDE701C901C29A42FBD3704700
:1001A00034AE001020010020480800205CB500108B
:1001B00000000820000008205CB500100010082096
:1001C00000100820000000007047000008ED00E06B
:1001D000480800205C920020F1330010ED0200106E
:1001E000E9330010F8B500BF0348044B834202D046
:1001F000034B03B118477047480800204808002007
:1002000000000000064B0749C91A891048BF013198
:10021000491003D0044B0BB101481847704700BF89
:1002200048080020480800200000000010B5064CD7
:10023000237843B9FFF7D8FF044B13B10448AFF359
:1002400000800123237010BD100A00200000000070
:100250005C98001008B5044B1BB104490448AFF387
:100260000080BDE80840CDE700000000140A00202F
:100270005C9800102DE9F041092000F0F9F80A20FF
:1002800000F0F6F80B2000F0F3F80C2000F0F0F886
:100290000D2000F0EDF80124092044EC44004FF05B
:1002A0000A0844EC44800B2744EC44700C2644ECD0
:1002B00044600D2544EC44500022214600F068F8CB
:1002C00040462146002200F063F8384621460022CD
:1002D00000F05EF821463046002200F059F8214631
:1002E0002846BDE8F041002200F052B82DE9F8435D
:1002F00003F0AAF908F038FD10BBFFF7BBFF4FF47D
:1003000000784FF00009002400254FF48066002794
:1003100044EC108044EC10604FF40062002344EC85
:1003200010204FF48052002344EC10204FF4005270
:10033000002344EC10204FF47A7001F079F8E7E7DD
:10034000034803F04BFA4FF0FF30BDE8F88300BFDD
:100350006098001010B44FF480740C4B53F82020B8
:1003600003EB8003C00082F0400200F1804003F5FF
:10037000805C02F0C00200F5203003F54053CCF859
:10038000002041601C605DF8044B7047048003400E
:1003900010B4084CC90041EA820154F8202004EB53
:1003A0008003514003F5805301F00C015DF8044BCC
:1003B000196070470480034070B44FF050460F4BF3
:1003C00036680F4D00F0070C002E18BF2B46C008F2
:1003D0000C4C4FEA8C0C01FA0CF103EB80038C30CF
:1003E00044F8201022B170BC03F500531960704727
:1003F00003F54053196070BC704700BF488202404B
:1004000090820240008002402DE9F0414FF05048B8
:100410000D4FD8F80030164657F823200446024204
:100420000D4609D114432946324647F8234015208A
:10043000BDE8F04100F0A8B901F07AFAD8F8003030
:1004400057F82320EEE700BFEC91002010B50446DA
:10045000152000F08DFA4FF05043044A196852F805
:10046000213023EA040342F8213010BDEC91002032
:1004700030B44FF0000343EC440043EC400005254A
:100480004FF480740B4BC20053F8201003EB800034
:1004900081F0400102F1804303F5203301F0C002F6
:1004A00000F5805100F540500A605D60046030BC8A
:1004B000704700BF048003400FB400B583B0049CB4
:1004C000074803F009F93CB105A92046019102F063
:1004D00071FF044803F000F9012002F083FF00BF20
:1004E0007098001080980010EFF3108072B6064BE1
:1004F000D3E8CF1F01220029FAD1C3E8412F0029F8
:10050000F6D1BFF35F8F7047CB0B00200023034A67
:10051000C2E88F3F80F31088704700BFCB0B0020EC
:1005200070B58646EFF3108572B6124CD4E8CF6FE3
:100530000120002EFAD1C4E8460F002EF6D1BFF3F9
:100540005F8F4FF0010CC80801F007030CFA03F3AA
:100550001EF800C01CEA030608D14CEA030C0EF892
:1005600000C0C4E88F6F85F3108870BD1046FFF798
:10057000A3FF00BFCB0B0020F8B5EFF3108572B6D8
:10058000234CD4E8CF7F0126002FFAD1C4E8476F6F
:10059000002FF6D1BFF35F8F9A4227D80126D708E4
:1005A00010F807E002F0070C06FA0CFC1EEA0C0F2C
:1005B00000EBD2070DD125E04FEAD20E10F80EE085
:1005C00002F0070C06FA0CFC1EEA0C0F00EBD20737
:1005D00018D001329342EFD24FF0FF300023C4E82D
:1005E0008F3F85F31088984207DBF8BD0023C4E8ED
:1005F0008F3F85F310884FF0FF300029F5D0069823
:10060000FFF75AFF4EEA0C0E104687F800E0E5E7C8
:10061000CB0B002000B5EFF3108E72B6104BD3E871
:10062000CFCF0122BCF1000FF9D1C3E84C2FBCF1B0
:10063000000FF4D1BFF35F8F01224FEAD10C01F01C
:10064000070102FA01F110F80C2022EA010200F879
:100650000C200022C3E88F2F8EF310885DF804FB76
:10066000CB0B0020044A1078431CDBB2182B28BFA8
:1006700010231370704700BF680700204FF0E0227E
:10068000936843F000539360704700BF0021044B10
:1006900003F12002C3E88F1F01339342FAD1704760
:1006A000C00B00204FF0E0234FF08032C3F800244D
:1006B000C3F80424C3F80824C3F80C24C3F8102496
:1006C000C3F81424C3F81824C3F81C24C3F8202446
:1006D000C3F82424C3F82824C3F82C24C3F83024F6
:1006E00062B67047012300F01F029340400941B1F8
:1006F000800000F1604000F56140C0F88031036087
:100700007047024A203042F82030704700E100E094
:1007100001224309034900F01F008240403341F8A1
:100720002320704700E100E0F8B50D46EFF3108795
:1007300072B6124ED6E8CF2F0123002AFAD1C6E8AE
:10074000423F002AF6D1BFF35F8F0D4B00F110043A
:100750009B680C4A53F82430934203D0994201D04D
:1007600001F0E6F8064B9B6843F82450BFF35F8F17
:100770000023C6E88F3F87F31088F8BDC90B00201F
:1007800000ED00E0110100102DE9F04F81468B468D
:10079000164683B0EFF3108372B6DFF8D0A1009352
:1007A000DAE8CF1F01230029FAD1CAE8413F002926
:1007B000F6D1BFF35F8F664B93F90040002CC0F277
:1007C000A080644D04EB440705EB870898F80610F9
:1007D00009F110091970604BBF009B6853F829009C
:1007E0006300411B2F292FD95C49884240F0A48027
:1007F0001C445B4B02372F44043BDB1BC3F34A030F
:100800006FEAC3434FF421416FEAD34325F8241024
:1008100005EB840463804BF60153A380FF2348F06B
:100820000100E671C4F808B0A3714B4B9B6843F814
:100830002900BFF35F8F0023CAE88F3F009B83F33B
:10084000108803B0BDE8F08F20F0010E9EF807106D
:10085000B1422ED84FF42143EB53414BB91C2944EC
:10086000043B04375B1A2F44AEF104013D4CC91B15
:10087000C1F34A012143A8F80410C3F34A033A49DB
:100880002343A8F802304AF6AA2073465B1B5B415B
:100890005843000D88F8076088F80600C8F808B0CB
:1008A00048F00100CEF80010BFE7D179B1422ED94F
:1008B00096469EF906C00CEB4C02BCF1000F05EB0E
:1008C0008202F2DA4BF601510EF10402A8F104079C
:1008D000BF1AC7F34A076FEAC7476FEAD7478EF8D0
:1008E000064003EB0408204C05EB8803AEF80470C7
:1008F00045F82840998083F806C0DE71C3F808B037
:1009000093E701F015F8124B93F9004059E772464E
:1009100032F8041F490514D44915023102EB410194
:1009200001916FF00701C91B019F491B3944C1F3B5
:100930004A0141F46041C9E7019300F0F9FF019BCE
:1009400056E701F5FF1101F5FF511F31E4E700BF44
:10095000519200206C07002000ED00E01101001012
:100960009C07002000E0FFFF01488047C90B0020E2
:100970002DE9F04F83B0EFF3108A72B6744ED6E8CB
:10098000CF2F0123002AFAD1C6E8423F002AF6D130
:10099000BFF35F8F6F4B00F110089B686E4A53F8EE
:1009A000285095423FD08D420C464AD06B4FEB1BEE
:1009B0002F2B38D801214FEA50194FEA890909F144
:1009C000604909F5614900F01F0301FA03F0D9F805
:1009D0000030C9F8800000EA030BBFF35F8FEFF32C
:1009E0000581C9B279B3884577D125F0010EDEF8CB
:1009F00008C0644505D17CE0D3F808C0644532D016
:100A00009E469EF9062002EB4203002A07EB830371
:100A1000F2DA644500F08180BBF1000F20D0C9F804
:100A20008001C9F800004B4B9B6843F82850BFF386
:100A30005F8F0023C6E88F3F8AF3108803B0BDE8BC
:100A4000F08F1546EFE725F0010EDEF808C064458B
:100A5000D7D19EF906407346002C08DA154666E0A9
:100A6000C9F88000DFE793F90640002C56DB04EB61
:100A7000440C07EB8C0CDCF8082061009A609CF8B1
:100A80000720DA719CF90620002A9A715DDBBCF818
:100A90000420520504D502F5FF1202F5FF521F3261
:100AA000521502F1020C4FF0040E0C2212FB04E26C
:100AB00002EB4C026FF0070C3A44ACEB030C6244BF
:100AC000C2F34A0242F460429A80254B21441A78CC
:100AD00007EB81011C708A719EE7CDE9000100F0EF
:100AE00027FFDDE9000125F0010EDEF808C06445AE
:100AF00087D19EF906407346002CB8DA194A1A4C81
:100B0000D21A083AC2F30A316FEA01516FEA115161
:100B100044EA5202DA8099807EE773460029EDD1DB
:100B2000FF228EF806204BF60152AEF804200C4C42
:100B30004AF6AA2294F800C01946C91B49414A4303
:100B4000120D83F806C0227066E74BF60152BBE730
:100B5000C90B002000ED00E0110100106C0700201F
:100B600051920020A607002000F8FFFF4FF0FF0C75
:100B700020F0030303F1604303F5644300F0030036
:100B80001A68C0000CFA00FC22EA0C0281400A43F9
:100B90001A607047F0B5EFF30585EDB2EFF3108CF6
:100BA00072B62649D1E8CF2F0123002AFAD1C1E835
:100BB000423F002AF6D1BFF35F8F214E40F0010E75
:100BC000B4684AF6AA2354F825701E4A0446A41AAB
:100BD000644163431B0D77455BB21BD092F906401D
:100BE0009C421CD092F912409C4223D092F91E40A4
:100BF0009C4221D092F92A409C4208BF03240FD086
:100C0000114A0024157813708571C1E88F4F8CF359
:100C10001088F0BDB2680D4C42F82540F0E7002482
:100C200004EB440402EB8402FF2494714BF601545C
:100C30009480E5E70124F3E70224F1E7C90B0020E3
:100C400000ED00E06C07002051920020110100101F
:100C500001460248C1F13301FFF7DCBC5892002085
:100C600010B5074C82B001460523002200940548C8
:100C7000FFF782FC0028A8BFC0F1330002B010BD0E
:100C8000849800105892002070B504460E46154610
:100C9000FFF7E8FC0146204600F006F8A680E58054
:100CA000BFF35F8F70BD00BF014B0B440360704703
:100CB000C00B002070B5104C104DAC420ED2FF2678
:100CC000236863B1FFF7CEFC01462046FFF7ECFF37
:100CD000A680BFF35F8F0834AC42F1D370BDFFF73D
:100CE000C1FC01462046FFF7DFFF2671BFF35F8F8F
:100CF0000834AC42E4D370BD40080020480800200E
:100D000010B50446FFF7AEFC01462046FFF7CCFFC6
:100D1000FF23A380BFF35F8F10BD00BF0D4B1A6888
:100D2000EFF3108172B6D2E8CFCF0120BCF1000FF3
:100D3000F9D1C2E84C0FBCF1000FF4D1BFF35F8FC3
:100D400000221B68C3E88F2F81F3108840BF00206A
:100D500000217047049200202DE9F04F2DED028B09
:100D600085B0EFF30583DBB2103B9A0818BF012270
:100D70004FF0010103F0030018BFAF4DAF4B08BFA8
:100D8000AF4D00EB820253F8226001FA00FB05F53B
:100D900041539FEDA78B0190C3F804B02EE0B388B8
:100DA000180440F19280B379002B40F0DC80B6F952
:100DB00008100029C0F21D81736901EB410103EBAA
:100DC000C103D3E90247B7F1FF3F08BFB4F1FF3FCA
:100DD0000DD0019B05EB8301AB6A0A69D21AE31AB5
:100DE000934203D32B6A13EA0B0F00D10C61284600
:100DF00000F0A4FBA042B941C0F2FB80B6F9083074
:100E0000C5F83CB0002B0093C9DBD6F8149003EB77
:100E1000430A284609EBCA07D7E9024800F08EFBCF
:100E2000A04271EB0801BADBB8F1000FC0F2C38039
:100E3000D7E90431834A934200F0ED807A88B6F90D
:100E4000080092B242EA0040984702460B4652EA36
:100E5000030100F0B080002B80F2D180B4EB020ED1
:100E600068EB030839F93A30C7E902E8002B96DB52
:100E7000716903EB430201EBC202D2E90270BE4585
:100E800078EB000C4FEA430289DBB4462CF8083FAC
:100E90000BE031F93230A446002B0DDB03EB4300AD
:100EA00001EBC0005A00D0E90270BE451A4478EB4D
:100EB000000001EBC204ECDA29F83A30009BACF8F0
:100EC0000030B38818043FF56EAF3369EFF310823A
:100ED00072B6D3E8CF0F01210028FAD1C3E8401F32
:100EE0000028F6D1BFF35F8F4FF6FF74B088002360
:100EF000316900B2B480C1E88F3F82F31088984214
:100F0000FFF651AF0746A946746906F1080807EBDA
:100F1000470E04EBCE03D3E90250B6F90830C446BD
:100F2000002B13DBB246009704E034F936309446C8
:100F3000002B09DB03EB430604EBC602D2E9027186
:100F4000BD4270EB0101F0DA5646009FACF800702C
:100F500034F93E7024F83E30002FD8DAB3794D468C
:100F6000002B3FF424AF0023B371B6F9083006F12B
:100F70000808591C3DD01946776903E080465A1C81
:100F80003FF417AF03EB430207EBC200B0F802C017
:100F90001C461CF4004F9E4637F93230EED08C428E
:100FA00080ED028B05D0A8F80030318927F8321087
:100FB00034817146E3E739F83A3033813369EFF32E
:100FC000108272B6D3E8CF0F01210028FAD1C3E80E
:100FD000401F0028F6D1BFF35F8F7388316929F86D
:100FE0003A30009B73800023C1E88F3F82F3108862
:100FF000D5E640BF05B0BDEC028BBDE8F08F2846BA
:10100000CDE9022300F09AFA029A039B10EB020E3C
:1010100043EB010826E708460B6902919847002830
:10102000C9D00299D1E9002311E700BFAFF30080D6
:10103000FFFFFFFFFFFFFFFF00800B40108200203B
:1010400000000B40590D00102DE9F84F364C256972
:101050002DB1BDE8F84F0A213448FFF725BEDFF86F
:10106000E4800321404600F057FA0326C4F80C80C0
:10107000FFF7F8FA4FF0504C2D4B267003442361D4
:10108000DCF800300F216370636961801D834FF0CD
:101090000405A3F878504FF00505A3F890504FF0E1
:1010A0000605A3F8A8504FF007050E214FF6FF7272
:1010B00008274FF00A0EA3F8C0504FF001094FF077
:1010C0000C0C4FF0020B4FF0090A0D204FF00B05EE
:1010D000A3F868111749A280A3F808E1A160A3F85A
:1010E00048B0A3F8F0A0A3F82051A3F838C1A3F8A2
:1010F0005001A3F83090A3F86060A3F8D8701A806C
:101100000D4B3046C8F820700C49DC60FFF70CFB33
:1011100049463046FFF7E6FA094B0A211F640348A7
:10112000BDE8F84FFFF7C0BDB407002004920020CF
:10113000C00B0020FFFF100010820020590D00108E
:1011400000200B4000000B4000487047B40700200F
:10115000F8B59DF82070044616461D4637B900F0D4
:10116000F5F9864265EB010100295CDB2369EFF3A9
:10117000108772B6D3E8CF1F01220029FAD1C3E845
:10118000412F0029F6D1BFF35F8FB4F902C0636924
:101190000CEB4C01BCF1000F4FEAC10203EBC101A3
:1011A00038DB985A4FF0000E60802069C0E88FEF5E
:1011B00087F310880698C1E90265086107984861BD
:1011C00048880130C0F30E00012838BF0120488054
:1011D00040EA0C402169EFF3108572B6D1E8CF7F69
:1011E0000126002FFAD1C1E8476F002FF6D1BFF3D7
:1011F0005F8FA1889952A4F804C02369C3E88FEFD8
:1012000085F310880122E368217803F501538A40B1
:101210005A60F8BD00232269C2E88F3F87F3108827
:101220004FF0FF30F8BD3846F8BD00BF0146F0B5BD
:101230000069EFF3108772B6D0E8CF5F0124002D6C
:10124000FAD1C0E8454F002DF6D1BFF35F8FB1F959
:1012500002E04C690EEB4E0CBEF1000F4FEACC05DC
:1012600004EBCC0C3DDB605B002648800869C0E8DD
:101270008F6F87F31088BCF80200CCE9022301309D
:10128000C0F30E00012838BF0120059BACF8020016
:10129000CCF81030069B40EA0E40CCF814300B69B5
:1012A000EFF3108272B6D3E8CFCF0127BCF1000F65
:1012B000F9D1C3E84C7FBCF1000FF4D1BFF35F8FCD
:1012C0008B886353A1F804E00B69C3E88F6F82F346
:1012D00010880122CB68097803F501538A405A60CF
:1012E000F0BD00230A69C2E88F3F87F310884FF0F2
:1012F000FF30F0BD03464089B0EB214F37DD586920
:101300000A1402EB420210B500EBC2001C69EFF3B5
:10131000108C72B6D4E8CFEF0122BEF1000FF9D1E4
:10132000C4E84E2FBEF1000FF4D1BFF35F8F4288A7
:1013300089B292B28A4207D000221B69C3E88F2F7C
:101340008CF31088002010BD42F40042428001213D
:10135000002218699971C0E88F2F8CF310881C78CF
:10136000DA68084602F50153A140596010BD00201B
:10137000704700BF2DE9F041861F41F1FF35B042B3
:1013800071EB050338BF002682B038BF35460446EE
:101390000F4600F0DBF8301A65EB0103012873F10A
:1013A000000306DA2046394602B0BDE8F04100F0FD
:1013B00009B900F0CBF8864265EB010100290ADB90
:1013C0000021174B3246009316482B460191FFF738
:1013D0002DFF0028E6DB4FF0000C1348134A436A48
:1013E0009D4204D8816AB142DCD29D42DAD11368B1
:1013F000EFF3108172B6D3E8CF8F5FF0010EB8F132
:10140000000FF8D1C3E848EFB8F1000FF3D1BFF3F4
:101410005F8F1368C3E88FCF81F3108820BFDEE7AA
:101420001D0D0010B407002000000B4004920020A6
:1014300010B5044600F08AF84FF47A734FF0FF3C81
:101440006FF00042E4FB0301BDE81040844572EBFD
:1014500001033CBF60461146FFF78CBF2DE9F04306
:1014600006460D4683B0EFF30584E4B23CB1274B4A
:10147000586AA8421CD2002003B0BDE8F083244F74
:10148000D7F80C9097F80080484600F057F808F11C
:10149000040859F828301B1A301A65EB01019842EC
:1014A00071F1000111DB20BF184B586AA842E2D34A
:1014B0009B6AB34203D3012003B0BDE8F083401B15
:1014C00018BF012003B0BDE8F08300F03FF886426A
:1014D00065EB01010029CADB0E4B3846CDE900342B
:1014E00032462B46FFF7A2FE011EC0DD074B5A6AAB
:1014F000AA4208D39B6AB34203D30548FFF7FAFE1A
:10150000B5E7AA42F9D120BFF7E700BF00000B40C2
:10151000B40700201D0D001010B4054B054C064A01
:10152000A04214BF1846581C5DF8044BFEF7F8BFE4
:10153000000D002000800B40A09800100346416A77
:101540000A46986A596A8A42FAD17047034B596A27
:101550000A46986A596A9142FAD1704700000B40D6
:1015600010B4174A536A9C46946A536A6345FAD189
:10157000001959414FF0000228BF01220346CAB1A9
:101580000F4B596A4B1C08BF0B4608D04FF0FF3178
:101590000B460B48426A8A42FCD38A4207D1084A6A
:1015A00002E0506A884202D1906A9842F9D35DF80D
:1015B000044B7047024A526A9142EAD8EDE700BFF5
:1015C00000000B40074A536A9942FCD8994207D160
:1015D000044B02E05A6A914202D19A6A8242F9D3DC
:1015E000704700BF00000B40F8B5054606200E46C8
:1015F00000F0E4F8002842D0354A3648954214BF3E
:101600004FF080624FF00062334B344902601A6041
:101610008C6832EA0404FBD12D4B4FF48071EB1A35
:10162000B3FA83F32E4A5B09062022F8131000F068
:10163000C5F8C300B3FBF6F30133DA0920D1402625
:1016400001216962AA622F6BFB0722D42B4600227C
:1016500053F82C1F062003F5805422602F6300F0FE
:10166000ADF840F2013103228000B0FBF6F0EB6AE6
:1016700083F0700303F07E0323602963AA64F8BD3E
:101680004FF6FE718A421BD922464FF6FF71154E66
:10169000D7E740F2013205F540531A636B6AAC6A32
:1016A000062004EB831400F089F80F4BA402A3FB7F
:1016B0000023DB0A0021B4FBF3F0FFF751FFC5E77D
:1016C000C3F34503114603EB82161A46B9E700BF80
:1016D000008007400020024000300240000002402D
:1016E00038920020C0FF3F00757B2B8F00EB400C31
:1016F0004FEA8C0C0CF1804C0CF5803CF0B5164692
:10170000DCF80420051FB2F5803F38BF4FF480326B
:10171000EDB238BFCCF80420012D2AD94FF4006770
:10172000254C0CF54052176054F82020B2B9DCF873
:101730000020012D82EA461202F0E0020CF58056EC
:1017400032602AD94FF4006144F820304FF48033DE
:101750000CF500521160CCF80430F0BD6769B7FB9E
:10176000F2FE0EF1010E0EEB4E0EBEF1030EFCD298
:10177000DDE70129D2D103240CF540521460DCF8D6
:101780000820D207FBD5DCF800200B4C82EA461279
:1017900002F0E0020CF5805632600122DCF80050C5
:1017A0004D4005F00305356002FA01F1DCF8082030
:1017B0000A42FBD0C6E700BF080D0020014B53F8DA
:1017C00020007047080D002070B4039D04682D03AD
:1017D00045EA03451B4B002CB3FBF1F3B2FBF3F6D8
:1017E0001FDB194A194B904214BF4FF480424FF44B
:1017F0000042174C1A6003F580531A60A36832EA5E
:101800000303FBD1212200F54053043301608660BD
:101810001A600268002AFCDA0822C5601A6070BCEF
:101820007047036803F03F038B42DAD18368C3F348
:101830000B03B342D5D1C36803F4EE23AB42D0D13E
:10184000EDE700BF001BB70000800540002002400C
:1018500000000240012300EB4000800000F18040C6
:1018600000F5841041600360704700BF0023DB8AED
:10187000002242E800F2520201D41021184704214C
:10188000184700BF002310B5DA8A044686B000234B
:1018900043E800F35B0254BF1021042145F24730B6
:1018A000904710220346052101A89847052802D039
:1018B000002006B010BD0DF1080CBCE80F00206040
:1018C00001206160A260E36006B010BD034AD2F857
:1018D0002838002BFBD0BFF35F8F704700000E400D
:1018E0000021044B044ABFF35F8F43F8041B93426B
:1018F000F9D170470C080E402C080E4010B44FF47C
:101900008D704FF42A64064A064B07491460D06074
:1019100019605368002BFCDA5DF8044B704700BF78
:101920000080044000A0044000B0FA00704700BFEF
:1019300008B50148FEF7C0FDC498001038B5054C45
:10194000054DAC4204D254F8043B9847AC42FAD35C
:1019500038BD00BF109800105098001010B4074810
:10196000074C084B084A094904601A608B6832EA40
:101970000303FBD15DF8044B704700BF0020024019
:101980007F3BEFEF00300240F6FFF3030000024020
:10199000044BDB6CB3F5004F03D14FF48022024BB4
:1019A000DA64704700001150002011504FF0E0221F
:1019B000044BD2F8881D0B43C2F8883D10EE30046A
:1019C000704700BF030330006FF06041044B054ACD
:1019D00019609368DB4333F06043FAD1704700BF6E
:1019E000003002400000024010B545F25320FFF7DE
:1019F0003DFFBDE8104003460420184710B545F2EE
:101A00005320FFF733FFBDE810400346012018477D
:101A1000FEF73CBE70B51449144C154D641AA6105F
:101A2000442E324628BF44222846920007F0D2FDB9
:101A3000B4F5867F13D80F4AC6F1440112D02B1992
:101A4000480803EBC000C3E9002208338342FAD1FF
:101A5000CB0704D521F00103334445F82320064B7E
:101A60009D6070BD4323F8E70000001010010010D6
:101A7000000000201101001000ED00E0002370B50F
:101A80002B4C82B0C4F88430FFF738FF0122294B79
:101A9000DA63636C012BFCD10321264A244B1163CA
:101AA0009C6B012CFCD10226052521460523224AE8
:101AB00022480096FFF788FE21462B46204A2148FF
:101AC0000095FFF781FE0022042031461E4BFFF7F0
:101AD0000DFE2146284600221C4BFFF707FE002280
:101AE000082011461A4BFFF701FE0022092011467B
:101AF000174BFFF7FBFD002206201146134BFFF7A3
:101B0000F5FD0022114B07201146FFF7EFFD0420E1
:101B1000FFF754FE00240F4BA3FB0035AD0CE0B2E1
:101B200029460134FFF796FE062CF8D102B070BDAD
:101B30000000014000300140002F685900000540BE
:101B4000008C864700800540001BB70080D1F0085C
:101B5000006CDC0283DE1B4386B003B451FC080436
:101B6000CDE9020151FC0904CDE9040151EC0A045C
:101B7000CDE9060103BCF047BDE800504EEC00C4BF
:101B8000BDE800504EEC01C4BDE800504EEC02C46C
:101B900000BD000000B5FFF7DFFF02E010FE30F4EB
:101BA000F8D441EC100443EC112400EE010410EED3
:101BB000010480EE200451EC1004704700B5FFF7DB
:101BC000CBFF02E010FE30F4F8D441EC100443ECFB
:101BD000112400EE010410EE210480EE200451ECEB
:101BE0003004704700B5FFF7B7FF02E010FE30F495
:101BF000F8D410B541EC100443EC112451EC04046A
:101C000053EC0524A0FB024C5FF0000EE0FB03CE7A
:101C1000E1FB02CE4CEC20440024E1FB03E444EC65
:101C200030E480EE200451EC5004BDE810407047D1
:101C300000B5FFF791FF02E010FE30F4F8D441EC5C
:101C4000100443EC112451EC2104A0FB01126FEAB3
:101C5000820252FB100052FB12F252FB1000A0EB6A
:101C6000D07C53EC04245CFB13F153EC1524A1FB52
:101C7000022001FB030053EC4424A2EB000050FBC4
:101C80001CF24FEA111312EB017043EBE27140EAD0
:101C9000515020EA915020F0070053EC7524A0FB2E
:101CA000023C53EC752400FB03CC01FB02CC53EC4B
:101CB0000424ACEB824C40EA5C70A0F1010041ECE2
:101CC000400480EE200451EC7004704700B5FFF72B
:101CD00043FF02E010FE30F4F8D440EC700400EE54
:101CE000010410EE210480EE200451EC3004704712
:101CF00000B5FFF731FF02E010FE30F4F8D440ECFD
:101D0000600400EE010410EE210480EE200451EC8A
:101D10003004704700B5FFF71FFF02E010FE30F4FB
:101D2000F8D441EC800400EE010410EE010480EED2
:101D3000400410EE1304704700B5FFF70DFF02E0FA
:101D400010FE30F4F8D441EC800400EE010410EEF3
:101D5000010480EE400410EE3304704700B5FFF735
:101D6000FBFE02E010FE30F4F8D441EC100443EC2A
:101D7000112400EE010410EE3004C0F3007070472F
:101D800000B5FFF7E9FE02E010FE30F4F8D443ECB2
:101D9000102441EC110400EE010410EE30F48CBF6D
:101DA00001200020704700BF00B5FFF7D5FE02E01C
:101DB00010FE30F4F8D441EC100443EC112400EE92
:101DC000010410EE30F42CBF01200020704700BF4A
:101DD00000B5FFF7C1FE02E010FE30F4F8D441EC8C
:101DE000100443EC112400EE010410EE30F48CBF1B
:101DF00001200020704700BF704700BF2DE9F04F61
:101E000083B09946DDE90DAB0F9B884611469A07D2
:101E1000074616D1DA453AD20C460D46ABEB0A0618
:101E20000E4422464B46414620200134B847B44276
:101E3000F7D12946BAF1000F08D1204603B0BDE81A
:101E4000F08F0C46BAF1000F10D00E4655460C9B91
:101E50002E449A440191721B4B46013D41461AF8AB
:101E6000010D3446B847002DF5D101990F9B9B0712
:101E7000E3D5651AAB45E0D922464B4641462020C2
:101E80000135B8475D4504F10104F5D3D5E7BAF152
:101E9000000FDAD10C46D0E72DE9F04F0F9FDDF8A7
:101EA00024E017F0020F0A9C9DF82C900E9DDDE9AE
:101EB0000C8629D1002D6FD1B44225D2202C07F0F9
:101EC000010B00F0128104F1FF3C4FF0300AF444A2
:101ED00001E0202C7AD00134A6420CF801AFF8D8EA
:101EE000BBF1000F10D0AC420ED2202C74D004F104
:101EF000FF3C4FF0300AF44401E0202C29D001349B
:101F0000AC420CF801AFF8D117F0100F3AD017F42B
:101F1000806F28D11CBBB8F1100F00F0CA80B8F157
:101F2000020F00F0D48030248EF800400124B9F173
:101F3000000F67D17E0740F1AA802B260EF80460BF
:101F40000134CDE90B57CDE909E4BDE8F04FFFF7C7
:101F500055BFFC0640F189807C0535D42024A6427B
:101F60006AD0AC4268D0B8F1100F00F08780B8F1A9
:101F7000020F5AD0202CE4D0264601344FF0300C0A
:101F80000EF806C0202CD2D1CDE90B57CDE909E4DB
:101F9000BDE8F04FFFF732BF17F0010B3ED0B9F1AB
:101FA000000F47D117F00C0F44D1B4429BD2202C24
:101FB00089D1202D10D8FC0657D57C0555D4202E6C
:101FC00000F0B980202D10D02024CCE7BBF1000F09
:101FD00000F0A580202DBCD9FC0646D57C0544D454
:101FE000202E00F0A880202D3FD12C461F26B8F1CE
:101FF000100F7FD0B8F1020FC0D14FF0620C0EF875
:1020000006C0B7E72D260EF804600134CDE90B5762
:10201000CDE909E4BDE8F04FFFF7F0BEB442BFF4EC
:1020200073AF202C7FF44FAFD6E7202C89D0264603
:102030000134E2E7013DB8E7661ED8D1B8F1100FD0
:1020400064D0B8F1020F7FF46EAF62268EF80060A4
:10205000302644468EF80160B9F1000F3FF46AAFB4
:10206000D0E7B8F1100F7FF46CAF2024CDE90B5707
:10207000CDE909E4BDE8F04FFFF7C0BEBE060ED4BF
:10208000202CF2D078260EF80460013472E73E0767
:102090007FF557AF20260EF80460013451E7202C5D
:1020A000E3D04FF0580C0EEB040686F800C0013464
:1020B00060E7BE0617D558248EF8004030248EF80D
:1020C00001400224B9F1000F3FF434AF9AE76224D3
:1020D0008EF8004030248EF801400224B9F1000F40
:1020E0003FF428AF8EE77824F2E7BBF1000F7FF4CE
:1020F00062AF71E717F0200F0CBF4FF0780C4FF074
:10210000580CA61E0EF806C0013C35E7BC06EAD501
:1021100058248EF8004030248EF80140DDE717F097
:10212000100F3FF40EAF17F4806F9AD1202E7FF47A
:1021300018AF1F265BE734461F2658E700B97047E3
:1021400001F088BA10B1D1E900311847704700BFDB
:102150002DE9F04F9FB09DED287BDDE92AA558ECD5
:10216000177B83461E460D91109243463A463846E9
:1021700041468DED087B2C9CFFF7F4FD002840F0D4
:10218000D880384641464FF0FF32754BFFF724FEAA
:10219000002840F0CE80384641464FF0FF326FF4C1
:1021A0008013FFF7F1FD002840F0C380DDE90878D7
:1021B0000022384641460023FFF7E6FD002840F0A4
:1021C000C081CDE90A78DDE90A2390461F4614F460
:1021D000806308BF4FF0060A139304F4006258EAC4
:1021E0000703119240F0C080002A00F0A2819FED09
:1021F0005A7B00278DED0E7B4FF00009BA45CCBF0E
:10220000AAEB070A4FF0000A4F46C8BF0AF1FF3A8F
:1022100044F480644D4594BF4FF00008A5EB0908D5
:1022200014F00203119304D0B9F1000F18BF4FF05E
:1022300000083FB1DDE90A01DDE90E23FFF7FCFCF0
:10224000CDE90A01DDE9080100220023FFF79CFD2A
:1022500030B1DDE90A01024601F10043CDE90A236C
:102260009DED0A7BCDE902A8DDF834A024F40063DB
:1022700004938DED007B334651465846109A00F08A
:1022800097F98046B9F1000F4FD014F0200F0246A5
:1022900000F1010433460CBF652045205146D84764
:1022A00009F1FF3087EAE77C0DF1580900224B461F
:1022B000DFF8B080ACEBE77C4FEAD77E01E0202A64
:1022C00010D0E246A8FB0C71C90801EB8107ACEB0A
:1022D00047073037BAF1090F8C4602F1010203F8C3
:1022E000017BECD805230590069300200A230D9F5F
:1022F000CDE90330CDE9012E334622463946584612
:10230000CDF80090FFF7C8FD119B80466BB1109B84
:10231000C41AA54209D94246334639462020013421
:10232000D847A54208F10108F5D840461FB0BDE8DE
:10233000F08F9DED087B33465846109A0D998DED30
:10234000287BCDE92B54CDF8A8A01FB0BDE8F04FF5
:1023500000F02EB9AFF30080000000000000000084
:10236000FFFFEF7FCDCCCCCCC7F30A50A0F2FF30FB
:10237000FFF7B0FC8AA3D3E90023FFF737FC8AA359
:10238000D3E90023FFF70AFCC7F31307CDE90E01D9
:1023900047F07F51404600227B4B41F44011FFF74C
:1023A00011FC6BA3D3E90023FFF720FC02460B4688
:1023B000DDE90E01FFF7F2FBFFF7B0FC0746FFF780
:1023C00089FC65A3D3E9002380468946FFF70EFC0C
:1023D00000226E4BFFF7E2FBFFF7A0FC03464946E5
:1023E000404612935EA3D3E90023FFF7FFFB80462C
:1023F00012988946FFF76EFC5BA3D3E90023FFF731
:10240000F5FB02460B4640464946FFF7DBFB02461A
:102410000B4680468946FFF7E9FB42464B46CDE92D
:102420000E0140464946FFF7B9FB0022CDE91401F1
:10243000DDE90E01564BFFF7FFFB0022554BFFF77E
:10244000ADFB02460B46DDE90E01FFF7F5FB00226E
:10245000514BFFF7A3FB02460B46DDE90E01FFF7E8
:10246000EBFB42464B468046894600204FF08041B8
:10247000FFF7A8FB02460B4640464946FFF78EFB96
:1024800002460B46DDE91401FFF7D6FB0022434B61
:10249000FFF784FB129B002203F2FF3C4FEA0C5330
:1024A000FFF7A4FB80468946DDE90A0142464B4618
:1024B000CDE90E89FFF768FC68BB4346494607F142
:1024C0006302C62A119A8CBF4FF005094FF0040928
:1024D000002A3FF49FAE0B433FF48EAEDDE90A01C4
:1024E00023A3D3E90023FFF763FC48B1DDE90A0128
:1024F00021A3D3E90023FFF747FC00287FF47CAE3B
:10250000BAF1000F3FF486AE139B002B3FF482AE6E
:102510000AF1FF3A7EE600221E4B40464946FFF78D
:102520008BFB0A4601460346CDE90E12013F1146D8
:10253000C5E79FED137B17464FF004098DED0E7B29
:1025400068E608F100430A970B933CE6AFF300807E
:1025500061436F63A787D23F71A379094F930A4004
:102560001655B5BBB16B0240EF39FAFE422EE63F7D
:102570002D431CEBE2361A3F0000000080842E4100
:1025800000000000000000000000F83F0000E03FF5
:1025900000002C4000002440000018400000F03FE4
:1025A000FB799F501344D33FB3C8608B288AC63F42
:1025B0002DE9F04F97B0DDE92089CDE90401DDE98F
:1025C000224BCDE90623404642464B464946DDF8BC
:1025D00090A0FFF7C7FB002840F0C5814046494660
:1025E0004FF0FF326FF48013FFF7CEFB002840F06E
:1025F0001D81404649464FF0FF32C14BFFF7ECFBCF
:10260000002840F0E380B8A3D3E9002340464946C0
:10261000FFF7E2FB002840F0CB80B5A3D3E900230D
:1026200040464946FFF7B0FB002840F0C1804046D5
:10263000494600220023FFF7A7FB002840F0E08076
:102640001AF480650D9000F0E980092C40F2968123
:102650000EAB1A460C9330210023A4F10905013377
:10266000202B02F8011BA4EB030600F03A81AB42D9
:10267000F5D19FED9D7B8DED087B49464046FFF7E8
:102680004DFB0446FFF726FB02460B4640464946F3
:10269000FFF798FADDE90823FFF7A8FA02460B4690
:1026A000CDE90A23FFF74CFB0746FFF725FB02465F
:1026B0000B46DDE90A01FFF785FA02460B46CDE934
:1026C0000A2300228F4BFFF787FB002800F0DB80F6
:1026D00001373846FFF710FBDDE90823FFF768FBF9
:1026E00008B100270134002E40F0B1802046FFF7EA
:1026F000F1FA02460B4640464946FFF763FA0022CC
:10270000804B06460F46FFF73FFB40B9304639463F
:1027100000227C4BFFF760FB002800F015810C9B2A
:10272000691E7948194410E080FB0462C3EBA203E0
:1027300003EB8302A4EB420404F1300201351C4692
:1027400001F8012F002B00F0AB80202D4FEAE4733D
:10275000EAD10AF00303012B1CD1BBF1000F19D001
:102760000D9B002B40F0F9801AF00C0F40F0F58023
:10277000AB4540F2D380202D0BD030220C996B1E3C
:102780000B4401355D4503F8012F00F08D80202DAD
:10279000F7D12025DDE90623DDE904010C9CCDE914
:1027A00002BA01950094FFF729FB17B0BDE8F08F3E
:1027B000CDE92089DDE90623DDE90401CDE923BA6D
:1027C000229417B0BDE8F04FFFF7C2BC4F4DCDF8D3
:1027D0008CA00AF0040ABAF1000F4D4C18BF2C4629
:1027E000DDE90623DDE9040120940CBF0324042461
:1027F000CDF888B0219417B0BDE8F04FFFF7FEBACE
:102800004B46424600200021FFF7DCF901231AF471
:102810008065804689460D937FF417AF9FED367B28
:102820000EAB06268DED087B0C9326E70424DDE92C
:102830000623DDE90401374DCDF88CA0CDF888B032
:102840002095219417B0BDE8F04FFFF7D7BA0C9B45
:10285000681EDFF8C4C018440DE0ACFB0721C908AE
:1028600001EB8102A7EB42023032092F00F8012F61
:1028700027D90F461D46202D05F1010306F1FF362D
:10288000EBD120254BE70022DDE90A011D4BFFF7C4
:102890007BFA00287FF427AF002F5AD1013722E7B7
:1028A0000AF00303012B75D0202D3FF473AF0D9B6D
:1028B000BBB32D2205F158036B4403F8202C0135DE
:1028C00068E7202BDDD0AEB30C9A1E4415443022AD
:1028D00001E0B3422ED00133202B05F8012FF8D1AF
:1028E000CFE71D46C5E600BF0000000065CDCD4125
:1028F0000000000065CDCDC10000000080842E41A5
:10290000FFFFEF7F0000E03F6766666614990010E6
:102910001C99001024990010CDCCCCCC202D3FF474
:1029200039AF1AF0040F0DD11AF0080F3FF432AF8F
:102930002022BFE72E2103F158026A4402F8201C2E
:102940005D1CECE62B22B5E7E3077FF5E8AE01342A
:10295000E5E6FA077FF5C7AEA0E70BF1FF3BAB4515
:102960003FF609AFA0E70324DDE90623DDE9040112
:102970000A4DCDF88CA0CDF888B061E7084B26460B
:1029800003EBC40393ED007B0EAB8DED087B0025BC
:102990000C9372E6BBF1000F86D0E1E6209900109F
:1029A00020AC00102DE9F04F9A469BB0249C964D28
:1029B0000B94964C0B1E18BF834625609AF80000B6
:1029C000934C0A9308BFA3460992002800F0BC82EA
:1029D0004FF000090AE04A46099B0A9909F10109EA
:1029E000D8479AF80000002800F0CE8025280AF188
:1029F000010AF0D10023524612F8010BA0F1200188
:102A000010290AD8DFE801F04009093C0909090941
:102A100009090938093409093000A0F130010929F0
:102A200040F28C802A2800F0F58000210C912E289D
:102A300000F099800027A0F1680112292DD8DFE865
:102A400011F057012C0051012C0045012C002C00E5
:102A50002C002C002C002C002C0027002C002C001B
:102A60002C002C002C002700924643F00103C2E703
:102A7000924643F00203BEE7924643F00403BAE7EE
:102A8000924643F01003B6E7924643F00803B2E7DC
:102A90009AF8010043F4807301326728924600F2ED
:102AA0008280242840F2C680A0F12502422A00F24A
:102AB000C180DFE812F05F01BF00BF00BF00BF00B0
:102AC000BF00BF00BF00BF00BF00BF00BF00BF000E
:102AD000BF00BF00BF00BF00BF00BF00BF00BF00FE
:102AE000BF00BF00BF00BF00BF00BF00BF00BF00EE
:102AF000BF00BF00BF00260145012601BF00BF0087
:102B0000BF00BF00BF00BF00BF00BF00BF00BF00CD
:102B1000BF00BF00BF00BF00BF00BF00D301BF00A8
:102B2000BF00BF00BF00BF00BF00BF00BF00BF00AD
:102B3000D3016701D301260145012601002100E0F0
:102B4000013201EB810100EB410110789246A0F1C6
:102B50003004092CA1F13001F2D92E280C9102F198
:102B600001027FF467AF9AF801001146A0F1300628
:102B7000092E43F4806340F231812A2800F03E811F
:102B800092460027013256E74C46099B994501D3EE
:102B900003F1FF394A460020099B0A99D84720468D
:102BA0001BB0BDE8F08FA0F16902D2B20F2A41D864
:102BB000012649F2410196400E4040F001810A2A67
:102BC0003FD0072A36D10B9C54F8042B002A00F082
:102BD000288143F021010DF1480E704603E0202EBC
:102BE00000F029811A4602F00F052B46092D94BFEB
:102BF000303337330F2A00F8013B06F101064FEA64
:102C00001213ECD817E100BFA529001028170020E7
:102C1000F91D00100B9C9AF8010054F8045B9246D1
:102C2000002DBDBF694243F002030C910C950B943B
:102C30000132FCE64A46099B0A9909F10109D84785
:102C4000CFE60B9951F8048B98F800201046002F1E
:102C500040F0E18072B16FF0010C0CF1010C4646BE
:102C6000C44401E0664503D016F8014F002CF9D1A9
:102C7000A6EB080613F4806C02D0BE4228BF3E4685
:102C800013F0020400F08781002A00F02B81BCF1D0
:102C9000000F00F041810B940D964A46DDE909547E
:102CA0000E464F4408E02B462146D84718F8010F3E
:102CB00009F1010910B14A464F45F4D131460B9C48
:102CC0000D9E002C40F00E810B918AE69AF80100CF
:102CD0006C287FF4DFAE9AF8020043F440730AF1E7
:102CE0000302DAE69AF8010043F400730132D4E6F5
:102CF0009AF80100682800F0208143F08003013237
:102D0000CBE6672800F0E780472800F000814528DF
:102D100000F0FF800B9C04930C9B0734CDE90273F9
:102D200024F007031C46DDE90931F4E802674A464E
:102D30005846CDE900670B94FFF70AFA814650E642
:102D400046280B9C08BF43F0200304930C9B0734D8
:102D5000CDE9027324F007031C46DDE90931F4E8EC
:102D600002674A465846CDE900670B94FFF720FCFE
:102D7000814636E64A462520099B0A9909F1010950
:102D8000D8472EE60B9A9C0702F1040709F10106C9
:102D900040F1E6801078099B4A460A99D8470C9B77
:102DA000012B40F22C81DDE90954994432462B462F
:102DB000214620200136D8474E45F7D10B9710E623
:102DC0006F2800F08B8040F26581782800F0088140
:102DD0004FF00A0823F01003C44647E0002707EB32
:102DE000870700EB4700A0F1300711F8010FA0F1B1
:102DF0003002092AF3D98A464A1C1CE60B9C9AF831
:102E0000020054F8047B0AF1020A0AF101020B9451
:102E100027EAE7770FE6002A3FF42CAF07F1FF3CE3
:102E20001BE723F0100113F4806241F021013FF40D
:102E3000D2AE0DF1480E08231020059300234A4618
:102E4000CDE9023006915846DDE90931CDE900E6C9
:102E50000497FFF721F80B948146C2E5582879D0F2
:102E6000622840F051824FF00208C44613F480609B
:102E70006DD123F00C0313F4007240F0C2800B9963
:102E800004310D9113F4807140F02E825E060B9A8E
:102E900040F1AA801278002A40F0DA8023F0100373
:102EA000002800F0D58011460DF1480E06930C9BCA
:102EB000CDF80CC0CDE90473019100234A4602937A
:102EC0005846DDE90931CDF800E0FEF7E5FF0D9B3E
:102ED00081460B9385E543F400631BE74FF0080838
:102EE000C446C3E70C9B4C46B3427FF6EDAE0F469B
:102EF0004B44A3EB0609DDE9096522463346294622
:102F000020200134D8474C45F7D13946DCE643F45C
:102F1000006343F02003FDE60F460B94DDE90954FE
:102F20004A462B462146D84718F8010F09F10109F6
:102F30000028F5D139460B9CC3E69AF8020043F00D
:102F4000C0030AF10302A8E5044681461DE623F00A
:102F50000D0390E74FF0100843F02003C44685E7C7
:102F60000C9B012B45D9DDE909544E4609F1FF3888
:102F7000984432462B46214620200136D847464504
:102F8000F7D10C9B324699440B9B1878DDE9093147
:102F9000D8470B9725E50C9BB34240F2EE81CDE973
:102FA0000D48DDE9095488464B449E1BCDF82CC0E2
:102FB0004A462B462146202009F10109D847B14550
:102FC000F6D14146DDF838800C9BDDF82CC00D9C15
:102FD00098F800205E1C1046002A7FF458AE73E675
:102FE0004FF01008C44641E71D064CBF1288126816
:102FF00051E713464A461878DDE90931D847B1460A
:10300000DCE60B9C073424F007042246656852F87E
:10301000084B0B9254EA050240F02C8123F0100378
:10302000002800F0278100260DF1480E06930C9B26
:103030004A46CDE904730023CDE900E6CDF80CC083
:1030400002935846DDE90931FEF726FF8146C8E4C0
:1030500013F0200F14BF412061200DF1480E764679
:10306000A0F10A0803E020293FF420AF2246B2FB7A
:10307000FCF40CFB1425E8B2092D00F130058ABFE1
:103080004044E8B2C0B2624506F8010B01F101010B
:10309000E9D20BE723F0100269280D9240F06F810E
:1030A00013F4806204D04FF4806223F011030D9377
:1030B0000D9B13F4007640D10B9B03F104080D9B8C
:1030C00013F4807040F09880590640F1C6800B9B45
:1030D00019780C46CB0F002900F0B98022460DF17B
:1030E000480E74461646DFF8A0C201E020280FD033
:1030F0003546ACFB0621C90801EB8102A6EB420272
:103100003032092D0E4600F1010004F8012BEDD8F4
:103110000D9ACDE9010306920C9ACDE904720A23B7
:103120004A4603935846DDE90931CDF800E0FEF741
:10313000B3FECDF82C80814653E40B9C073424F079
:10314000070421460846636850F8081BDC0F0B9003
:1031500051EA030000F0C3800A46191E48DB1346FB
:103160000DF1480EF4460026CDE90E94DFF81882E2
:1031700001E0202E2DD05A1842F10002A8FB02597E
:1031800029F0030505EB9905521B1C469B1A61F1BA
:10319000000508464FF0CC3101FB03F108FB051197
:1031A000A3FB08531944052305F00109A9FB0339C2
:1031B0009B180A2C03F130034FEA550570F100000B
:1031C0000CF8013B06F1010645EAC1734FEA5101D3
:1031D000CFD2DDE90E940D9B4A4606930C9BCDE9B8
:1031E0000164CDE904730A23CDF800E0039328E7D6
:1031F000524261EB4101B2E70B9B1968CB0F0029EA
:1032000000F0AB8081EAE172A2EBE1720DF1480EB1
:103210007046DFF874C101E0202E10D01546ACFBDB
:103220000241C90801EB8104A2EB440404F130021D
:10323000092D00F8012B06F101060A46ECD80D9A7B
:10324000CDE9016306920C9ACDE9047267E7002A82
:103250003FF445AF0DF1480E5AE713F0800F0B9B7A
:1032600000F08180B3F9001081EAE174A4EBE1740D
:10327000A4B22FE713F0200F14BF412261220DF1F9
:10328000480E0A3ACDE90D97CDF844B000267746AE
:10329000F3469146CDE90F3C03E0202E17D00446BB
:1032A0000D46294642460023204606F091FAD2B246
:1032B000092A02F1300388BF02EB09034445DBB25F
:1032C00075F1000507F8013B06F10106E5D2DE467F
:1032D000DDE90D97DDE90F3CDDF844B0A6E6002AF4
:1032E00047D1134611463BE70B990968A1B923F072
:1032F000100388B10DF1480E06930C9BCDF80CC05D
:10330000CDE904730192D8E513F480627FF4CBAE6B
:1033100023F010030D93CBE613F0200F14BF4120D0
:1033200061200DF1480E7646A0F10A0802E0202A3D
:10333000E2D02146B1FBFCF40CFB1415E8B2092DD8
:1033400000F130058ABF4044E8B2C0B2614506F8DA
:10335000010B02F10102EAD2CEE7002A3FF456AF98
:103360000DF1480E6BE7196881EAE174A4EBE17492
:10337000B0E600260DF1480E2DE701362BE64FF0A2
:103380000A081346C44671E5CDCCCCCC70B5944642
:103390001E4605460C4684B04FF0FF32634602A934
:1033A00000960348CDE90254FFF7FCFA04B070BD63
:1033B0004521001010B5094B84B01C684CB1034680
:1033C00000914FF0FF3203A90548A047012004B047
:1033D00010BD00F081F9204604B010BD2817002070
:1033E0003D21001000BEFDE708B5FFF7FBFF00BF61
:1033F00038B5064C064DFEF7A1FAAC4204D254F89B
:10340000043B9847AC42FAD338BD00BF5098001037
:103410005C9800100368084611461847437D2DE963
:10342000F04781460F461646002B43D0002A3BDD6D
:10343000037D00204D1E014615F8012FDFF8848022
:103440000A2A01F101040ED0A6421CD02B78214695
:10345000A3F10D03B3FA83F315F8012F5B090A2AD0
:1034600001F10104F0D1002BEED18142A1EB00016A
:1034700038441BDC02214046D9F800309847A64268
:1034800008D02046E2E7864204DD311AD9F8003040
:1034900038449847374417F8013CA3F10D03B3FAB9
:1034A00083F35B0989F81430BDE8F087D9F8003060
:1034B0009847DFE73846D9F800301146BDE8F047B5
:1034C000184700BF70AC00100B682DE9F041802B4D
:1034D0000D46064605D05A1C2B442A601E71BDE8D5
:1034E000F0810F4B1C68A4B10E4F01F1040801E0FC
:1034F000246974B12368002BFAD03B680BB1A34256
:10350000F6D1204641462A68FFF788FF2469002C3F
:10351000F0D1002301222B442A601E71BDE8F08106
:10352000081700200C1700202DE9F04782B00D4647
:10353000924699460746FEF709F84FF0FF366FF0BE
:1035400000442F4A821841F10003964274EB0301B4
:103550003CBF324623462B4806F042F96B1C80469E
:1035600003D1384606F0B2F80546274B274E1C68B3
:10357000274BB9F1000F18BF1E46B4B1BAF1000FC6
:103580001AD1DFF8909001E0246974B12368002B10
:10359000FAD0D9F800300BB19C42F5D120462A462A
:1035A0003946B0472469002CF0D1B8F1000F1FD183
:1035B000284602B0BDE8F0874FF00A0ADFF85490C1
:1035C00002E02469002CF0D02368002BF9D0D9F850
:1035D00000300BB1A342F4D12A4639462046B04709
:1035E000012220460DF107018DF807A0B047E8E75A
:1035F000044806F0F1F8284602B0BDE8F08700BFA5
:1036000040420F0040080020081700201534001029
:103610001D3400100C1700200A4A13684BB1834276
:1036200002D109E0984207D003F110021B69002B78
:10363000F8D101B1106070470029FCD10369136013
:10364000016170470817002008B500F0A5F90120B6
:1036500008BD00BFF0B583B006468DF80700FDF742
:1036600075FF4FF0FF356FF00044174A821841F1A3
:103670000003954274EB03013CBF23462A461348DE
:1036800006F0AEF8124B07461C689CB1114D01E0E4
:1036900024697CB12368002BFAD02B680BB19C42C3
:1036A000F6D1204601220DF10701FFF7B7FE24698C
:1036B000002CEFD117B9304603B0F0BD034806F037
:1036C0008BF8304603B0F0BD40420F0040080020A8
:1036D000081700200C17002038B5044605F0F6FF47
:1036E000012305461A4620462946FFF71DFF084BD1
:1036F0001C682CB163682BB198472469002CF9D160
:10370000284638BD2469002CF4D1284638BD00BFB6
:10371000081700202DE9F041A2B004460D46FDF740
:1037200015FF4FF0FF376FF00046274A821841F12E
:103730000003974276EB03013CBF3A4633462348E9
:1037400006F04EF800262B4607462246204801A9DF
:103750000196FFF71BFE019B06467BB91D4B1C68BB
:103760002CB1636843B198472469002CF9D10FBB91
:10377000304622B0BDE8F0812469F1E7DFF85480DB
:10378000D8F80050EDB1144C01E02D6975B12B68EB
:10379000002BFAD023680BB1AB42F6D12846019A30
:1037A00002A9FFF73BFE2D69002DF0D1D8F80040AB
:1037B0000195D5E7054806F00FF8304622B0BDE880
:1037C000F0810195D3E700BF40420F004008002080
:1037D000C9340010081700200C1700200FB400B5E2
:1037E00083B004A951F8040B0191FFF793FF03B0D4
:1037F0005DF804EB04B07047B1F1000C1DDD0F4A19
:103800000F4B126830B5D31AB3FA83F30D240D4D64
:103810005B09411E35F913E08C4411F8010F864510
:1038200006D093699B06FCD461451060F5D130BD8C
:1038300093699D06FCD41460F3E770473C92002026
:103840000080074038920020224BB1F1000C10B4E8
:103850001C682EDD034600201F4A591E126893691A
:10386000DB0617D401309369DB06FCD4136884456A
:1038700001F8013FF3D14CB150211346916353F845
:10388000342F02F0380203F580531A6060465DF869
:10389000044B70474CB150211346916353F8342FB9
:1038A00002F0380203F580531A6078B15DF8044BDA
:1038B00070475CB1084B50211A681346916353F866
:1038C000342F02F0380203F580531A606FF00200C3
:1038D000ECE700BFF80C00203C920020054B1B6871
:1038E00033B10021044A0548126800689163184703
:1038F000704700BFF80C00203C920020FC0C002018
:10390000024B1A6893691B07FCD470473C92002055
:10391000F8B51C4F1C4D3A681C4EAA4214BF212515
:1039200022250446D6F800C018B1BCF1000F10D013
:10393000F8BDBCF1000FFBD0014690632846FCF7B0
:10394000D1FE28461249FDF713F8124B34601C6073
:10395000F8BD0B460F4A0E49306028461360FCF74D
:10396000E3FE01212846FCF7BDFE3A6850211346CC
:10397000916353F8342F02F0380203F580531A6034
:10398000F8BD00BF3C92002000800740F80C0020EA
:10399000DD380010FC0C002010B50E490E4C0F480D
:1039A0000F4A104B007821600020022112781B780A
:1039B000FCF7D0FC02210120FCF7CCFC4FF4E131F4
:1039C0002068FDF711FEBDE8104001210648FFF711
:1039D00023BE00BF000007403C92002030AE001024
:1039E0002CAE001028AE0010CC0700200146014884
:1039F000FCF710BE489200204FF0A04C012182013C
:103A000002EB0C0370B41E690D4D81400D4C1A463B
:103A100086EA40301033054003F580531D60C4F83A
:103A20000414C4F81414C4F82414C4F83414CCF8DE
:103A30006414D3685B01FCD470BCCCF800147047EC
:103A400001E001000030005002F018BD012370B504
:103A50000B72044602F040FD431C0CD1104AD2E91F
:103A60000032256820460F496C69C1E902322346BD
:103A7000BDE8704018470546FDF768FD03460A4655
:103A80004FF47A704FF0FF3E6FF0004CE5FB0032D0
:103A90009E457CEB02013CBF73466246E1E700BFF6
:103AA000C0AB0010E807002038B5094D04462B785C
:103AB00043B10125236807492046DB690D72984709
:103AC000284638BD00F090FA01232B70F1E700BFC3
:103AD000509200200008002010B5044603680549F4
:103AE0009B69984723682046BDE8104002491B6A3D
:103AF000184700BFE807002000080020002070479A
:103B0000704700BF08B5FDF721FD29B14FF47A7267
:103B1000002305F05DFE08BD024AA2FB00208009DB
:103B200008BD00BFD34D6210836800F108021BB9C5
:103B300006E01A461B681BB19942FAD10020704773
:103B40000023116001200B60704700BF836843B100
:103B50008B4202D107E0994207D01A461B68002B1E
:103B6000F9D11846704700F108020B680120136074
:103B7000704700BF4368021D1BB906E01A461B6868
:103B80001BB19942FAD10020704700231160012037
:103B90000B607047436843B18B4202D107E0994202
:103BA00006D01A461B68002BF9D118467047021D33
:103BB0000B68012013607047344B2DE9F047D3E9BF
:103BC00000458368804663B300F10806FDF7BEFC3C
:103BD000D8F808A0B646BAF1000F22D053464FF0ED
:103BE000000CD3E90227B0EB020961EB0709B9F138
:103BF000000FA8BFF4469E461B68A4BF1046394676
:103C0000002BEED1BCF1000F3BD0DCF80010404699
:103C1000D1E90023CCF800209847D8F80830002BD1
:103C2000D4D1D8F8046006B30027337A1BB33146E9
:103C300073683772404698473668002EF5D1D8F839
:103C400008A0BAF1000F10D05246D2E90231E01AB2
:103C500065EB0102012872F10002DAF800A0F0DB46
:103C60001C460D46BAF1000FEED120462946C8E9A0
:103C70000445BDE8F0873668002ED6D1D8F808A0F4
:103C8000DFE7D8F80460002ECED1DDE7C0AB00102E
:103C9000F0B4154F154AC01942EB0101820F42EAF8
:103CA0008102134B424002FB03F3124E81EA9171F1
:103CB00006FB0133A2FB06263344D00E0E4C40EA2D
:103CC0004310504004FB00F10C4D83EAD363A0FB8A
:103CD000050205FB0311F0BCC30F114443EA410385
:103CE000584081EAD1717047157C4A7FB979379E77
:103CF0006D4758BFB9E5E41CBB49D094EB113113B3
:103D000070B5EFF3108C72B6204CD4E8CF2F01239E
:103D1000002AFAD1C4E8423F002AF6D1BFF35F8FF0
:103D20001B490B78012B10D9023BDBB21846194A0C
:103D300003F1010E0B7052F8200052F82E100023F0
:103D4000C4E88F3F8CF3108870BD4FF0FF32002025
:103D5000114B18639A63DA629A60D3F8B820002A8C
:103D6000FBD104205D690B4A4FF0050E15609D697B
:103D70005560DD6995601D6AD5605D6A1561074D06
:103D80009E6A2D685661DD600346D3E7CC0B0020A8
:103D9000579200202092002000010F4010010020C7
:103DA000F8B5D0E9004605468068E96844EA0003B2
:103DB00046EA0102134304D1FDF7C8FB50EA0103B0
:103DC000FAD0220684EA000342EA16225A407140E1
:103DD00082EA03424FEA066EB000A7004EEA142EB4
:103DE0002A600A043F1940EA947042EA13428EEABC
:103DF000010482EA040246EB00006A60DA0E4FEA30
:103E0000C71C42EA4112C601C90E46EA57664CEA8F
:103E1000506041EA4313EB60F100C300181841EA17
:103E20005C71AA6046EB0101F8BD00BF2DE9F04FBF
:103E3000DFF878918BB099F80030002B58D0584FAC
:103E4000584C06AD584E94E80F0085E80F0096F8E0
:103E50000090FDF77BFBFFF71BFF069B5FFA89F9DC
:103E600043400693079B4B400793FFF749FFFFF73B
:103E70000FFF089B43400893099B4B400993EFF3C6
:103E8000108872B6D7E8CF2F0123002AFAD1C7E8ED
:103E9000423F002AF6D1BFF35F8F33784B450FD0F6
:103EA000DDE906122068089B4140069161684A409E
:103EB0000792A26853400893099AE3685340099314
:103EC0002846FFF76DFF337886460133DBB28C4618
:103ED00033704FF0000995E80F0084E80F00C7E841
:103EE0008F9F88F31088704661460BB0BDE8F08F55
:103EF00006AD2846FDF7C6FCDDE90601FFF7C8FE62
:103F0000029A039B80460F46DDE908010192009367
:103F1000FFF7BEFEDDE904BA06460C46FDF716FBC8
:103F2000FFF7B6FE009B019A88EA00084F4088EA36
:103F300002025F40CDE90227FFF7E2FEFFF7A8FE8D
:103F400046404C4086EA0B0684EA0A04CDE9046444
:103F5000EFF3108672B6124FD7E8CF2F0123002A55
:103F6000FAD1C7E8423F002AF6D1BFF35F8F99F834
:103F7000003033B10B4C0023C7E88F3F86F3108825
:103F800060E70DF108084046FFF70AFF0123054CE2
:103F900089F8003098E80F0084E80F00EBE700BFD5
:103FA000CC0B0020100100204E92002053920020E4
:103FB00008B5FFF73BFF08BD00B545F247308BB0B1
:103FC000FDF754FC01220346092101A89847DDE9C9
:103FD0000332044912BA1BBAC1E900230BB05DF8E1
:103FE00004FB00BFFC91002008B500F0CFF800F002
:103FF00075FA00F0E7FA02F081FA00F02DFFBDE853
:10400000084002F0F3B900BF40BA80B2704700BF69
:1040100000BA704730B510F001044FF0000E06D022
:10402000714550DD10F8013B013963F31F2E10F08C
:10403000030352D1072958DD083921F0070500F1A3
:104040001002154400F1080C5CF8082C0CF1080C67
:10405000D2185CF80C3C28BF01329B1828BF0133F2
:104060006545F1D1CA08551CC2EB427201EBC20191
:1040700000EBC5009AB2012902EB134313DD02885D
:1040800013448A1E012A06DD05294588C8BF818898
:104090002B44C8BF5B1851084D1CC1EBC17100EB2C
:1040A000450002EB4101012904D1027862F3070EB9
:1040B0001FFA8EFE73449AB202EB13431FFA83FE7B
:1040C0000EEB134E34B14FEA0E239BB2CEF3072E04
:1040D00043EA0E0E1FFA8EF030BD012903DD30F8E1
:1040E000023B0239A6E70023DDE71A46C3E700BF1B
:1040F0002DE9F843089C1B6824688946250C15FAAD
:1041000084F414FA83F404EB1344A3B203EB1443D2
:104110009CB2904604EB1344E0B1054600276E893B
:1041200068683146FFF776FF204484B2F30704EB5A
:10413000104406D523029BB2C4F3072487F001077D
:104140001C432D68002DEAD127B123029BB2C4F392
:1041500007241C434846FFF757FF05464046FFF734
:1041600053FF2844204483B203EB104398B200EB82
:104170001340C04380B2BDE8F88300BFFFF7B8BF6B
:1041800008B5FFF747FFC04380B208BD10B4002058
:104190004FF47A6401210A4B0A4A23F003031360A7
:1041A000094A1871181983F8A41F10600749084AB2
:1041B0001C60C3F8A01F5DF8044B1360704700BF7C
:1041C0003B8200203082002034820020A00FA00F0C
:1041D0002C170020002877D02DE9F843830777D1EA
:1041E0003E4AA0F1080312689A426ED83C4C00F196
:1041F0000C0124688C4268D310F8041C00296AD092
:1042000030F8081C30F806CCB1F57A6F0ED8BCF542
:104210007A6F0BD8A3EB02081FFA88F8E04502EB8F
:104220000C0606D032F80C50454502D02D48FCF75C
:1042300043F902EB010E74453AD0BEF802504545F1
:10424000F4D10025284F00F8045C3D689D4201D957
:104250001D463B609C4234D9734518D09EF80490AB
:10426000B9F1000F13D1744511D0BEF80010AE455E
:1042700004BF1D463B60B1F57A6F20F8081C06D0DC
:104280005418A4F8028030F806CC02EB0C06B342B6
:104290000CD0307950B9AB4208BF3E60B1F57A6FAF
:1042A00018BF5218318018BFA2F802C0BDE8F883C9
:1042B00000250D4F00F8045C3D68AB42C8D39C421A
:1042C000CCD80A48FCF7F8F870470948FCF7F4F82E
:1042D0000848FCF7F1F80848FCF7EEF830820020B7
:1042E00034820020C09900102C170020F49900108F
:1042F0007C9900105899001098990010CB1C23F05D
:1043000003039BB20B2B3CD9B3F57A6F3CD899428F
:104310003AD82C4A70B5146884424AD82A4A12689E
:10432000824246D930F808CCA0F10802121B92B2A2
:10433000ACF10801891A89B299423DD320D004EB2F
:104340000C0E9EF804500DBBBCF57A6F37D01F4D94
:1043500002F108012E680B449BB2764534F80CC07C
:1043600004EB030123D000250D7124F803C04A801B
:1043700020F8083CE25AB2F57A6F01D0224453800B
:1043800070BD0C239942C4D90020704703F1140575
:10439000ADB2A942F4D302F108010B44BCF57A6F27
:1043A0009BB20CD0094DE1182E688E42DBD92960F2
:1043B000D9E70748FCF780F80648FCF77DF806487F
:1043C000FCF77AF830820020348200202C1700207D
:1043D000109A0010289A0010489A001000285BD00C
:1043E0002DE9F843C31C23F003039FB20B2F25D9FB
:1043F000B7F57A6F1FD8B8421DD8324BDFF8D89086
:104400001D68D9F80080C7F57A61A8EB050290B263
:10441000884203460FD26FF0070E2C189C4626796F
:104420002B5A0246184626B9AEEB02021A44BA428B
:1044300006D29942F1D80020BDE8F8830C27DAE7CC
:1044400007F114018A4207F1080710D201232371F2
:104450001D4BA045186820D02744B8422BD3A30792
:1044600008BF04F10800E7D01848FCF725F80CEB6A
:10447000070292B2B2F57A6F20D00120A9180E710E
:10448000AB52A1F802C022802071AB5AB3F57A6F0B
:10449000DED02B445A80DBE77047224603E01288C7
:1044A0002A44117921B18242F9D1C9F80000D3E739
:1044B000C9F80020D0E70648FBF7FEFF0548FBF7E8
:1044C000FBFF00BF30820020348200208C9A001055
:1044D0005C9A0010489A00102C170020F0B50424B4
:1044E0000027114D114B124E05F1280E033355F8DC
:1044F000042B23F0030337606CB10021B2F804C031
:104500000A4600E003460132A242196003EB0C00A8
:104510001946F7D13360AE4504D02A68D488D2E971
:104520000236E3E7F0BD00BF90AC001064790020D4
:10453000E8810020092810B50FD80E4B53F8204011
:10454000FFF7DCFAE3681C686CB122681A60A30705
:104550000CD1FFF7D5FA204610BD0748FFF73EF90A
:104560000024204610BDFFF7CBFAF9E70348FBF71C
:10457000A3FF00BF90AC0010F49A0010D09A001076
:10458000092812D838B50C4671B10B4B53F820509E
:104590008B070DD1FFF7B2FAEB681A6822601C6036
:1045A000BDE83840FFF7ACBA38BD0448FFF716B98C
:1045B0000348FBF781FF00BF90AC0010349B001054
:1045C000149B0010704700BFF0B5294D0446002928
:1045D00014BF0E462E46002A14BF17462F46002B46
:1045E00018BF1D46336883B06BB100213B68A268D9
:1045F000934218BFA3602B68E268934218BFE36040
:1046000029B103B0F0BD4268E2B90121EEE7636869
:1046100032689A42F5D0684601A9CDE9003201F02E
:10462000BFF8684601A902F043F9684601A900F005
:1046300075FB6946204601AA04F024FB33686360D9
:1046400003B0F0BD684601A9CDE9002301F0A8F848
:10465000684601A902F02CF9684601A900F05EFB4A
:104660006946204601AA04F00DFB33686360CCE77D
:10467000A4AD001000283AD038B543680446DBB931
:1046800094F83130DA0728D4194B1A68A24204BFD3
:1046900000221A60174A1368A34207D02BB11A6888
:1046A000A24206D01346002BF9D138BD236813600F
:1046B00038BD22681A6038BD051D0021284601F06A
:1046C0006FF80021284602F0F3F80021284600F098
:1046D00025FB94F83130DA07D6D523F001021B0709
:1046E00084F83120D0D5204603F0ECFCCCE77047AD
:1046F0000482002008820020024658B1064B186848
:1047000010B907E0006830B190F834300133DBB203
:104710009342F7D1704770470882002070B5054674
:1047200090B3002607E02B699BB3284698470136D3
:10473000F6B2ECB12546FFF7E1F9AB7B33B3013BB1
:10474000DCB2AC73FFF7DCF994B96A7B2C68920792
:104750002B7BE8D403F00F03022B0BD0012B0ED0E0
:10476000D3B928460136FFF735FDF6B2002CE1D16A
:10477000304670BD29460920FFF702FFD7E72946DA
:104780000820FFF7FDFED2E70646F1E70448FBF7F5
:1047900093FE0448FBF790FE0348FBF78DFE00BF35
:1047A000C09B0010D89B0010FC9B001008B5FFF7C1
:1047B000A5F90022084B1A70FFF7A2F9074B1868F9
:1047C00010B908E0C06830B1436F002BFAD0BDE8E3
:1047D000084001F02FB808BD529200200892002036
:1047E000B2F5C17F2DE9F843894655D04FF0000658
:1047F00061F30F06154661F31F4607D822F0400308
:10480000012B9CB227D03D48FBF756FEB2F5207F26
:10481000F9D1C31C01F1030929F0030923F00303B3
:104820004B449BB204464B4503F1100080B22ED39B
:1048300081452CD8FFF7D2FD8046C0B10022031974
:104840002F49133323F00303C160C0E9013602602E
:104850004046BDE8F8830820FFF76CFE804630B183
:104860000023C0E9003386600573C481437340466A
:10487000BDE8F883FFF742F90122224B1A70FFF7D7
:104880003FF9B8F1000F02D04046FFF747FF4FF065
:1048900000084046BDE8F8830024074640F2EC5685
:1048A000A046194D05E02060B9F1000FDFD00446A5
:1048B00000270920FFF73EFE0028DBD0FB1C23F079
:1048C0000303F31A9BB24B4528BF4B460022074413
:1048D000133727F003074381A9EB0303A0F80890DF
:1048E0004760C56002601FFA83F9B8F1000FDAD1A2
:1048F0008046B9F1000FDAD1B9E700BF109C001073
:1049000080000100529200208200010070B4002457
:10491000033061F30F04BDF810C020F0030061F311
:104920001F4401446145039D0DD805B1054400268F
:1049300002211A73012218465D609C601E60597343
:10494000DA8170BC7047002070BC704738B5002811
:1049500037D00446008988421FD9081A06E0238907
:10496000891A03442381246889B224B362898A4264
:10497000F5D30025237B61F30F05180761F31F456D
:1049800004D18A4202D0637B9B0707D52068A560CB
:1049900008B1FFF7C3FE0023236038BD63682046DB
:1049A0001B1B194489B2FFF7A9FC38B18442EDD032
:1049B0000548FBF781FD0548FBF77EFD0448FBF742
:1049C0007BFD0448FBF778FD789C0010449C0010A8
:1049D0005C9C00102C9C001010B5F0B1B1F5803F2C
:1049E0000BD2C1B103898AB213449BB29A4204D854
:1049F00090F90CC0BCF1000F01DB012010BD446830
:104A000000F1100C611A6145F7D3B0F80AC041609B
:104A1000624442810381002010BD0148FBF74CFD38
:104A2000949C001008B1FFF779BE08B50148FBF768
:104A300043FD00BF949C0010034630B100201B686A
:104A4000013080B2002BFAD17047704758B110B5D1
:104A50000446FFF753F8A37B0133A373FFF750F825
:104A6000A37B0BB110BD70470148FBF725FD00BFCC
:104A7000A09C0010C8B1C1B1884210B51AD002681C
:104A80000AB915E022460389B1F808C014686344E6
:104A900003811046002CF5D11089538983420CD133
:104AA000088911600344138110BD0548FEF796BEC6
:104AB0000246F1E70348FBF7FFFC0348FBF7FCFC69
:104AC000B49C0010EC9C0010089D001010B50C4622
:104AD00018B3E9B188422CD003683BB1028921891F
:104AE0000A44028118461B68002BF7D102894389CA
:104AF00093421BD12289046013440381FEF7FEFF19
:104B0000A37B0133A373FEF7FBFFA37B5BB110BD57
:104B10000948BDE81040FEF761BE0748FEF75EFE9B
:104B2000002CEBD110BD0548FBF7C6FC0448FBF791
:104B3000C3FC0448FBF7C0FCB49C0010A09C001010
:104B4000089D0010EC9C00102DE9F843002900F0AE
:104B500089801E460B89884693421546C0F08280A4
:104B60000746002800F08280028973199A42A8BF84
:104B70004FF000097ADB7C89B8F80A30A41BA3EB5C
:104B800009039C4228BF1C46AC4228BF2C467868CB
:104B9000D8F8041030444944224604F01BFD7B89B8
:104BA00026442D1BB342A144ADB266D3B8F80A2007
:104BB0004A455FD31ED0B34228D0B8F8083093429C
:104BC00013D01FB17A893B899A4204D0002DD2D1EB
:104BD0002846BDE8F8833B68002BF7D02848FEF74D
:104BE000FDFD6FF00500BDE8F883D8F80030002B1C
:104BF000E7D0F3E7D8F80080B8F1000F10D0B34247
:104C00004FF0000902D0B8F80A20D6E73F6877B124
:104C1000B8F80A20B8F808309A4214D00026D1E734
:104C2000B5B9B342A946CCD12E463F68C9E7ADB964
:104C3000B8F80A20B8F808309A42C9D1D8F800303C
:104C4000002BC5D0CAE7D8F80060002EBAD0C5E75F
:104C50000C48FEF7C3FD6FF00F00BAE70A48FEF7F5
:104C6000BDFDF8E70948FEF7B9FDF4E70848FEF78F
:104C7000B5FDF0E70748FBF71FFC0748FBF71CFCF6
:104C8000F09D0010D09D0010E09D0010389D001098
:104C90006C9D0010B49D00109C9D00102DE9F0410A
:104CA00068B30E4689B3174662B305464FF0000855
:104CB000B5F80AC006EB080053B16345A3EB0C023C
:104CC00006D32D6893B2002DF2D14046BDE8F081A5
:104CD000ACEB0304A4B2BC4228BF3C4669683F1B4E
:104CE000224619444444BFB204F074FC1FFA84F80D
:104CF0002D68002FE9D00023002DD9D1E5E7054824
:104D0000FEF76CFD4FF00008DFE70348FEF766FD95
:104D1000F8E700BF289E0010489E001088B1026886
:104D20007AB171B10B6863B10A4B1B684BB110B417
:104D30001C68944206D0DB68002BF9D15DF8044B67
:104D4000704770470A681A60DB68002BF6D002686B
:104D5000EEE700BFF491002010B5F8B1037D0446E2
:104D6000042B11D0072B03D0032B0DD0002010BD36
:104D700000F02EFF08B909230BE0431CF7D1638B29
:104D800043F008036383F1E700F022FF0028F4D129
:104D900005232046237501F053F8E7E70148FBF7A8
:104DA0008BFB00BF6C9E001070B50646806F18B17B
:104DB000FFF738FE0023B367746FB4B1D4E9005035
:104DC00058B1FFF72FFE21460420FFF7D9FB55B15C
:104DD0002C46D4E900500028F3D121460420FFF7E7
:104DE000CFFB002DF4D1002373674FF6FF73F46EF1
:104DF0003386A4B1D4E9005058B1FFF713FE214621
:104E00000420FFF7BDFB55B12C46D4E90050002823
:104E1000F3D121460420FFF7B3FB002DF4D1346F0A
:104E2000A4B1D4E9005058B1FFF7FCFD214604209D
:104E3000FFF7A6FB55B12C46D4E900500028F3D16A
:104E400021460420FFF79CFB002DF4D10023C6E986
:104E50001B33A6F8683070BD08B5FFF7A9F86FEAF4
:104E600080406FEA9040014B188008BD1008002078
:104E700000283AD038B5037D012B3CD042F6A05330
:104E8000028D114489B299421AD9194641F2D06E65
:104E9000C26A458E446A754594BF02EB050C02EB6D
:104EA0000E0C2344A3EB0C0CBCF1000F01850BDAB4
:104EB000121B17D4B2F5803F38BF428518D238BDD7
:104EC0008A42E2D80B46E1E740F667349B1AA342D8
:104ED0004185F4D9438B43F002034383BDE8384056
:104EE00000F0AEBF0023438538BD0448FEF776BC12
:104EF0000348FBF7E1FA0348FBF7DEFACC9E00100B
:104F0000B09E0010E49E00102DE9F04FB04EB14F5E
:104F100032683B7801320133DFF8CC9287B03260DF
:104F20003B70AD4B1C68002C5CD04FF00008237D1B
:104F3000002B00F01482012B00F00E820A2B00F0EF
:104F400011823A78A17F914200F03C81022BA27736
:104F500094F8422000F09A800B2A40F2C5804FF06E
:104F6000010A062B00F0E780627A120740F1928076
:104F7000042B40F0B981216A3268D4F89400521AA7
:104F8000964D00F5242101F6B841A5FB0151B2EB85
:104F9000511F40F29181656F0AF1010A4FF0010B38
:104FA0005FFA8AFA002D00F07981B4F9403003EB02
:104FB0004303B2EB430F7DD2237D032B5DD0092B3E
:104FC00025D0BAF1000F40F06981237F627F013361
:104FD000DBB29A42E568237740F2CD80A0462C46AA
:104FE000002CA4D17E4D0024296869B10B7D0A2BC9
:104FF00040F0BB8133680A6A9B1AF02B00F2D18023
:105000000C46C9680029F1D107B0BDE8F08F3368BC
:10501000226A9B1AF02B35D9D4F890502046FFF71E
:10502000C3FE6D4B1B68B8F1000F00F06E819C420F
:1050300000F0A181E368C8F80C30BBF1000F40F02C
:105040005781D4E903BA237D012B00F091812146D9
:105050000220FFF795FA002389F8003045B16FF080
:105060000C015046A84799F80030002B7FF459AF47
:105070005C46002C7FF45BAFB4E73368226A9B1A6E
:10508000282BC9D8BAF1000F9FD0C5E7052A2BD924
:105090004FF0010A656F002D00F00C81236A326821
:1050A0004FF0000BD21AB4F9403003EB4303B2EBDC
:1050B000430F81D30594D5E9004058B1FFF7B2FC06
:1050C00029460420FFF75CFA54B12546D5E9004093
:1050D0000028F3D129460420FFF752FA002CF4D11E
:1050E0000023059C636767E794F899A0BAF1000F65
:1050F0007CD0216F002940F04181E26E002A00F04F
:10510000438194F89A200B2A3FF629AF354A9244FE
:105110001AF8010C94F898208242C0F00181B4F88A
:105120006050A5B9204601F0B7F8B8B1237DAA4672
:10513000062B7FF419AF628BD00600F19F80627A54
:105140001107A7D4656F002DA8D1AB4639E72946D2
:10515000204600F089FC002800F0F5804FF0000A9E
:1051600094F8993084F898A0062B9CBF013384F8FA
:105170009930237DF5E60023D4F88C20237789F835
:10518000003052B121462069904799F80030002B39
:105190007FF4C7AE00287FF421AF204600F050FE18
:1051A0001CE72B68002C00F0B680994200F0EF80DD
:1051B000CF68E7600220FFF7E3F9394600297FF462
:1051C00015AF21E7A046E468002C7FF4B0AE09E7F4
:1051D000189200205692002008920020D34D6210B1
:1051E0001C92002058AD00105492002047F6FE702B
:1051F000B4F9302091B2814202D801310AB222863C
:10520000B4F9401091423FF7ACAE204600F056FD95
:10521000002840F08E80237D022B14D094F8423079
:1052200047F6FF720C2B28BF0C235C49B4F93C00F5
:10523000C95CB4F93E3003EBE0038B409342A8BF56
:105240001346A4F84030B4F84820B4F86030002188
:10525000934228BF1346628E5B08A4F84820520090
:1052600092B2934238BF13462046A4F84A302186B2
:10527000A4F86A1000F0AAFF237D72E63268216A62
:10528000521A282A7FF65EAF656F0AF1010A4FF0C5
:10529000000B5FFA8AFA002D7FF487AED4F89050A5
:1052A000002B3FF4BEAE0A2B3FF4BBAE012B7FF4C4
:1052B000B5AEB6E6AB467FE694F89B10384D05FBDD
:1052C00001003849A1FB0010B2EB501F7FF63AAF46
:1052D000204600F08DFF00287FF4DCAE94F89B3070
:1052E000013384F89B30D5E6072B3FF444AED1E67A
:1052F000238B626A216D0293E38A20460193231D6A
:105300000093234600F01AFD9BE69C4239D1E368E6
:10531000254A136091E699423CD1CF682F6049E756
:105320000132D2B2824284F89820BFF4F8AE8A46A5
:1053300017E6226F237D002A7FF413AEE26E002A67
:105340007FF46AAF0DE6204600F07AFD00287FF476
:1053500005AF8246237D04E61448FBF7ADF81448F8
:10536000FBF7AAF81348FBF7A7F81348FBF7A4F8D4
:105370001248FBF7A1F81248FBF79EF81148FBF71B
:105380009BF81148FBF798F81048FBF795F8104880
:10539000FBF792F80F48FBF78FF800BF60AD0010E5
:1053A000F8240100D34D621008920020389F0010AD
:1053B0000C9F0010649F001054A00010789E0010F5
:1053C000FC9F0010909F001028A00010C49F0010A8
:1053D00084A00010ACA0001058B110B5044640687D
:1053E00008B1FFF71FFB2146BDE810400420FFF77E
:1053F000C7B8704710B500294DD000284ED00368BB
:105400000C468B422AD02BB1DA68A2422ED013462A
:10541000002BF9D10022237DE2607BB9638BDA0790
:105420002CD4E36E002B3CD1236F002B3CD1636F57
:10543000002B3CD100232375E38210BD0A2BF0D052
:10544000012BF7D02046FFF7AFFC237D0A2BE8D0D5
:10545000012BE3D100232375E38210BD0022CB682A
:105460000360237DE260002BE8D1D7E7E268DA60D1
:105470000022237DE260002BE0D1CFE743F002035E
:105480006383204600F0DCFC237D012BC9D100237F
:105490002375E38210BD0748FBF70EF80648FBF7BB
:1054A0000BF80648FBF708F80548FBF705F8054830
:1054B000FBF702F8D4A00010F0A0001010A100101B
:1054C00028A1001044A10010002800F0AD802DE9B3
:1054D000F04F037D0546012B87B000F0A8800A2B12
:1054E00000F09480D0F89020D0F850A0D0F824B0EC
:1054F000D0F81090B0F816800592002B5BD1B8F16F
:10550000000F61D14FF0000846462C6FA4B1D4E9DA
:10551000007058B1FFF786FA21460420FFF730F8F3
:1055200057B13C46D4E900700028F3D1214604204D
:10553000FFF726F8002FF4D1EC6EA4B1D4E9007087
:1055400058B1FFF76FFA21460420FFF719F857B159
:105550003C46D4E900700028F3D121460420FFF72F
:105560000FF8002FF4D16C6FA4B1D4E9007058B1DA
:10557000FFF758FA21460420FFF702F857B13C46DE
:10558000D4E900700028F3D121460420FEF7F8FF8B
:10559000002FF4D13EBB2B7D012B4BD0294602209E
:1055A000FEF7EEFF059B5BB36FF00C01484607B0BA
:1055B000BDE8F04F18470E4601462048FFF71AFF96
:1055C00001221F4B1A70A0E71E4A136883421AD0AB
:1055D00033B1DA68AA4201D01346F9E7EA68DA6023
:1055E0000023EB608EE7CDF804802B8B5A460293A4
:1055F0002B1D009351462B46284600F09FFBCAE71F
:1056000007B0BDE8F08FC3681360E9E701460E48B4
:10561000FFF7F0FE2B7D012B0CD02946022007B0AE
:10562000BDE8F04FFEF7ACBF0848FEF7D7B8084812
:10563000FAF742FF0748FAF73FFF00BF0892002041
:10564000549200200C9200201C9200205CA10010BB
:1056500078A10010789E0010F8B5002830D0002303
:10566000856FD0F884606F7B0446836756B101462E
:105670002A460069B04758B10D301ED06FF00400C3
:10568000A567F8BD2989FFF7F3FB2846FFF7CAF99C
:10569000BB0610D542F6A052238DD4F88450934215
:1056A0001CBF0133238535B1002321461A462069EA
:1056B000A8470D3001D00020F8BD6FF00C00F8BDF8
:1056C0000248FEF78BF86FF00F00F8BDACA1001098
:1056D0002DE9F84300271C4DDFF874802B781B4E12
:1056E00001332B70D8F80040BCB1A37F2A789342D5
:1056F00015D0638BA277D9071AD41A0711D4A36FD8
:10570000D4F80C9033B120463770FFF7A5FF3378FB
:10571000002BE7D14C46002CE7D1BDE8F883E468C4
:10572000E2E723F0080320466383FFF715FBE6E773
:1057300043F002036383204600F082FB638B23F077
:1057400003039BB26383D8E7569200205492002053
:105750000892002008B5FFF7BBFF064A1378013313
:10576000DBB21370DB0700D408BDBDE80840FFF7CB
:10577000CBBB00BF5592002008B55AB149B10B8D83
:105780003BB1282B38BF2823283B9BB2984228BF27
:10579000184608BD0148FAF78FFE00BFD4A10010DB
:1057A00000283FD0036870B5054603B970BD1E4A96
:1057B0000E46106878B10268C468934206D054B1AE
:1057C00020462B680268C4689342F8D10121FFF794
:1057D0007BFE002CF4D1154B1C6854B122682B6859
:1057E00020469A42E468F8D10121FFF76DFE002CB3
:1057F000F4D1002EDAD03368002BD7D00C4B1A68C6
:10580000002AD3D02B681168994205D0D268002AAB
:10581000CCD011689942F9D133681360D268002A5C
:10582000F0D170BD704700BF089200200C9200209C
:105830001492002070B5446FBCB10646D4E9005004
:1058400058B1FFF7EFF821460420FEF799FE55B155
:105850002C46D4E900500028F3D121460420FEF75D
:105860008FFE002DF4D10023736770BD2DE9F04742
:105870009DF820A0002851D00E4600294BD00746A5
:10588000042090469946FEF755FE4FEA8A050446E5
:1058900005F0040500283AD0002380F80CA03289D6
:1058A0004660AA4203603CD3521B4381028114210B
:1058B0003046FFF791F8064610BB6368F88AD3F8C4
:1058C00004A0AD02C4F810A0FEF79EFBAAF80000E9
:1058D000388B2769FEF798FB788048462769FEF7E2
:1058E00097FB05F5A045786048EA05002569FEF7B5
:1058F0008BFB2369A88120469E74DE74BDE8F08787
:105900002046FFF769FD00242046BDE8F0873046B9
:10591000FFF788F8F7E70448FAF7CEFD0348FAF7EF
:10592000CBFD0348FAF7C8FD1CA20010FCA1001033
:1059300040A200102DE9F04385B0002948D005466B
:105940000C4690461E4680B3007A18BB184602F0FB
:105950007FFF074618B3009643460621204622895A
:10596000D4F80490FEF70AFCA9F81000EB7AAD7A9F
:10597000009506252046324641460297019502F0E1
:105980009FFF034620461C46FFF74CF8204605B013
:10599000BDE8F083FEF7B0FE07460028DBD12046C5
:1059A000FFF740F86FF00304F0E7184602F050FFED
:1059B00007460028F3D00096434606212046228958
:1059C000D4F80490FEF7DAFBFF23A9F81000CFE724
:1059D0000148FAF771FD00BF6CA200102DE9F047F5
:1059E000C0B304461431D0F82490C58A174622204B
:1059F0004FF4207289B2B4F818A0B4F82A80FEF7E8
:105A0000EFFE064618B34389132B26D9284675683E
:105A1000FEF7FAFA28805046FEF7F6FA6F606880C3
:105A20004846FEF7F5FA034645F21000AB60FEF774
:105A3000EBFAA8814046FEF7E7FA0023628D2B744B
:105A40006B74AB74EB74636AE8811344E3623046B1
:105A5000BDE8F0870248FAF72FFD0248FAF72CFD5F
:105A600098A20010C0A200102DE9F04F83B00028CA
:105A700000F0A180C56E0646002D00F096800C4611
:105A8000002900F09580B5F8089089457DD9438EAE
:105A90008B42C0F0938095F80CA0A9EB01074FEA68
:105AA0008A0BBFB20BF0040B0BEB07014FF4207213
:105AB000362089B2FEF794FE8046002875D06868CB
:105AC0002A890389D8F804109B1A23443A469BB2CA
:105AD0005944FFF7E3F8B84264D12B699889FEF77F
