:020000041000EA
:10000000002008205D0100101B0100101D010010E0
:100010001101001011010010110100101101001058
:100020001901001019010010190100101F01001022
:10003000110100101901001021010010230100100E
:100040001101001011010010110100101101001028
:100050001101001011010010110100101101001018
:100060001101001011010010110100101101001008
:1000700011010010110100101101001011010010F8
:1000800011010010110100101101001011010010E8
:1000900011010010110100101101001011010010D8
:1000A00011010010110100101101001011010010C8
:1000B00011010010110100101101001011010010B8
:1000C00011010010110100101101001011010010A8
:1000D0001101001011010010110100101101001098
:1000E0001101001011010010110100101101001088
:1000F0001101001011010010110100101101001078
:100100001101001011010010110100101101001067
:10011000EFF30580103800BE00BE00BE00BE00BE7A
:1001200000BE00BEF2EB8871B8C50010D8C5001043
:10013000A001001090A31AE7D3DEFFFF42012110B7
:10014000FF01000048DA0000793512AB4FF00000E3
:100150001E49086006C881F3088810474FF05040D8
:10016000006810B14FF00000F2E70DA40ECC00299A
:1001700002D000F012F8F9E71549164A002000E015
:1001800001C19142FCD11449884714498847144958
:10019000884700BEFDE701C901C29A42FBD3704700
:1001A000D8C5001010010020B816002080DB001018
:1001B000000008200000082080DB0010001008204C
:1001C00000100820000000007047000008ED00E06B
:1001D000B8160020D83A01209D4900107502001081
:1001E00095490010F8B500BF0348044B834202D084
:1001F000034B03B118477047B8160020B81600200B
:1002000000000000064B0749C91A891048BF013198
:10021000491003D0044B0BB101481847704700BF89
:10022000B8160020B81600200000000010B5064CDB
:10023000237843B9FFF7D8FF044B13B10448AFF359
:1002400000800123237010BD201900200000000051
:1002500000BE001008B5044B1BB104490448AFF3BD
:100260000080BDE80840CDE7000000002419002010
:1002700000BE001000B583B004F0BCFC4FF4FA607F
:1002800002F00CF900F052FB00F0FEFB00210846E2
:1002900000F09CFA324800F0F3FA0021032201201A
:1002A00007F086FF02462F4B01201A6008F01AF96A
:1002B00004462D4B0021032201201C6007F078FF2B
:1002C00002462A4B01201A6008F00CF90546284C1A
:1002D000012225600125274C04210F20264B01F027
:1002E0006FF8CDE900540224244E00234FF400722D
:1002F000234924480AF046FACDE90046224E00235D
:100300004FF40072214922480AF03CFACDE9004638
:100310000024032600234FF400721E491E480AF0F1
:1003200031FA4FF4007223461C49CDE900641C48A1
:100330000AF028FACDE9005404254FF40072234650
:10034000184919480AF01EFA4FF40072234617495B
:10035000CDE9005416480AF015FA0AF063FBFEE7EF
:1003600000BE0010043A0120483A0120083A01205A
:10037000D4390120783A0120FD0C0010003A012008
:1003800014BE0010290B00109C3A012018BE00106A
:10039000290D001020BE0010A10E001024BE001078
:1003A000AD0F001028BE0010F90F00102CBE001079
:1003B000BD10001010B5044601F068F82046BDE8F5
:1003C00010400022012100F0E7BF00BF10B5044635
:1003D00001F05CF84FF0010343EC444010BD00BF56
:1003E00008B507F061F81F211B2000F0B7FF0022BD
:1003F0001B20114600F0D0FF00211B2001F036F831
:100400001F211A2000F0AAFF00221A20114600F036
:10041000C3FFBDE8084000211A2001F027B800BF43
:10042000F0B500253C273826C14C85B02046C1498F
:1004300007F0F4F80321042000F090FF03210520C9
:1004400000F08CFF00220121042000F0A5FF002213
:100450000121052000F0A0FF322002F01FF80DF16D
:100460000F0201232721204600958DF80F7007F019
:10047000FBF80120002101F0F9FF0DF10F0201232B
:100480002721204600958DF80F6007F0EDF8002138
:10049000322001F0EBFF052002F000F80DF10F0211
:1004A00001232721204600958DF80F7007F0DCF816
:1004B0000120002101F0DAFF0DF10F0201232721B5
:1004C000204600958DF80F6007F0CEF8322000210D
:1004D00001F0CCFF9620002101F0C8FF0DF10F02C2
:1004E00001238DF80F7027212C272046009507F057
:1004F000BBF80120002101F0B9FF8DF80F6028261C
:100500000DF10F02012327212046009507F0ACF8DA
:100510003220002101F0AAFF0DF10F020123272153
:10052000204600958DF80F7007F09EF801200021FD
:1005300001F09CFF0DF10F020123272120460095B9
:100540008DF80F6007F090F83220002101F08EFF47
:100550000DF10F0201232721204600958DF80F7021
:1005600007F082F80120002101F080FF0DF10F0259
:1005700001232721204600958DF80F6007F074F8BD
:100580003220002101F072FF8C2201238DF80F2010
:1005900027210DF10F022046009507F065F8012094
:1005A000002101F063FF88220C27082601238DF823
:1005B0000F2027210DF10F022046009507F054F877
:1005C0003220002101F052FF0DF10F0201232721FB
:1005D000204600958DF80F7007F046F801200021A5
:1005E00001F044FF0DF10F02012327212046009561
:1005F0008DF80F6007F038F83220002101F036FF47
:10060000CC230DF10F028DF80F3027210123204656
:10061000009507F029F80120002101F027FFC823E9
:100620000DF10F028DF80F30272101232046009590
:1006300007F01AF83220002101F018FF0DF10F0227
:1006400001232721204600958DF80F7007F00CF844
:100650000120002101F00AFF0DF10F0201232721E3
:10066000204600958DF80F6006F0FEFF3220002135
:1006700001F0FCFE1C230DF10F028DF80F30272135
:1006800001232046009506F0EFFF0120002101F034
:10069000EDFE18230DF10F028DF80F3027210123F5
:1006A0002046009506F0E0FF0021322001F0DEFE3A
:1006B000022001F0F3FE0DF10F0201232721204655
:1006C00000958DF80F7006F0CFFF0120002101F09A
:1006D000CDFE0DF10F0201232721204600958DF854
:1006E0000F6006F0C1FF3220002101F0BFFE6C2236
:1006F000682601238DF80F2027210DF10F022046D7
:10070000009506F0B1FF0120002101F0AFFE0123AA
:10071000272120460DF10F0200958DF80F6006F09D
:10072000A3FF3220002105B0BDE8F04001F09EBEDD
:100730009C160020A086010030B500244FF00C0C60
:10074000214D85B00DF10F02012327212846009489
:100750008DF80FC006F088FF0120002101F086FE11
:10076000082201238DF80F2027210DF10F022846C2
:10077000009406F079FF3220002101F077FE1C2260
:1007800001238DF80F2027210DF10F022846009438
:1007900006F06AFF0120002101F068FE4FF0180CFE
:1007A00001230DF10F022721284600948DF80FC078
:1007B00006F05AFF3220002101F058FE022005B059
:1007C000BDE8304001F06ABE9C160020F0B5074637
:1007D0004FF4804C0C46002585B01037ADF80CC0A6
:1007E0006F4417F8047C254E3C4404F0F00767F092
:1007F000730C0DF10B0201232721304600958DF873
:100800000BC0E4B206F030FF0120002101F02EFE03
:1008100067F077070DF10B02012327213046009581
:1008200024018DF80B70E4B206F01EFF3220002187
:1008300001F01CFE44F00C0201238DF80B2027214F
:100840000DF10B023046009506F00EFF012000214D
:1008500001F00CFE44F008040123272130460DF17D
:100860000B0200958DF80B4006F0FEFE32200021B1
:1008700005B0BDE8F04001F0F9BD00BF9C160020B6
:100880002DE9F041047884B0002C4AD08046264FF0
:10089000002504F0F00646F00D0C01230DF10F02C7
:1008A0002721384600958DF80FC006F0DDFE0120A7
:1008B000002101F0DBFD46F0090601230DF10F02D6
:1008C00027213846009524018DF80F60E4B206F028
:1008D000CBFE3220002101F0C9FD44F00D060123BA
:1008E0000DF10F022721384600958DF80F6006F0B4
:1008F000BBFE0120002101F0B9FD44F009040123F1
:1009000027210DF10F02384600958DF80F4006F0B3
:10091000ABFE3220002101F0A9FD18F8014F002C98
:10092000B6D104B0BDE8F0819C16002008B50920BE
:10093000FFF74CFD0A20FFF749FD0B20FFF746FDAE
:100940000C20FFF743FD0D20FFF740FD0020FFF7CF
:1009500031FD0120FFF72EFD0220FFF72BFD0320C4
:10096000FFF728FD0620FFF725FD0F20FFF722FDEA
:10097000FFF736FDFFF754FD00F052F8BDE80840E0
:1009800000F082B838B511254FF0000343EC405019
:100990000B4C0C4B2168022203EB41010A480BF07F
:1009A00003FA012040EC4050236803445A4202F00D
:1009B0003F0203F03F0358BF5342236038BD00BFDE
:1009C000083900200C3900200000084030B500250F
:1009D0000446094B85B01D6001F0D4FB074A084965
:1009E00092FBF4F2074B5242CDE901530091D31729
:1009F00001F0C8FD05B030BD0839002040420F00AD
:100A0000850900108017002008B5044801F04AFE4F
:100A100011234FF0010242EC403008BD8017002046
:100A2000F8B50227124C1349204606F025FE124B5A
:100A300062685F602368114E114D83F007033A40EE
:100A400003F0CF03336001216A60122000F086FCBE
:100A50000121132000F082FC112000F017FD11236A
:100A60004FF0010242EC443042EC4030F8BD00BF90
:100A70000000084080841E0000300840001008403C
:100A800000200840000000002DE9F04B0FF2900913
:100A9000D9E900891E4D4FF6F7432E462DED048B04
:100AA0000124B7EE009AF6EE008A9FED1A8A40F60E
:100AB000FC7B194F26F8013B204602F0D9F942464B
:100AC0004B4602F053F90022144B02F04FF902F0AA
:100AD000C1F902F02DFB07EE900A77EE897A67EEF6
:100AE000A87A67EE887AFCEEE77A17EE903A0BEA7E
:100AF00083033B43C3F3072205F8142006F81430A0
:100B00000134402CD8D1BDEC048BBDE8F08B00BF84
:100B10000C39002000C07F4400F0FFFF0000903F30
:100B2000182D4454FB2119402DE9F04F2DED048B75
:100B3000DFF8C08185B098F80030002B00F0BC8051
:100B40004FF0000BE946604E604DDFF8ACA15F4608
:100B50009FED5F9ADFED5F8A5F4C4FF0FF313068A9
:100B600007F0EEFE042123685C485D4A83F480535D
:100B700003F47043036011602368DB05FCD5002398
:100B8000D4F804B01A4619461FFA8BFB306807F0F8
:100B90004FFB07EE90BAB8EEE78A28EE098A18EE06
:100BA000100A0BF0D9F802460B464E48594604F09D
:100BB000E7F8B1EE047AC8EE287A67EE877AF8FE95
:100BC000677AFDEEE77A17EE90BA4FF0FF312868AA
:100BD00007F0B6FEBBF1000F2ADC09234FF000023C
:100BE00042EC40300A234FF0000242EC40300B232D
:100BF0004FF0000242EC40300C234FF0000242EC78
:100C000040300D234FF0000242EC403000232868B2
:100C10001A46194607F00CFBBB453CD164200AF08C
:100C20007BF898F8003003F0FF07FBB15F4694E7CC
:100C300009224FF0010343EC4020BBF1010FD1D05A
:100C40000A2243EC4020BBF1020FD0D00B2243EC30
:100C50004020BBF1030FCFD00C2243EC4020BBF16E
:100C6000040FCED00D2243EC4020CFE7FFF764FD08
:100C70001D48FFF705FE01203946FFF7A7FD1B4879
:100C8000FFF7FEFD64200AF047F898F80030002BCB
:100C90007FF45DAFF6E70BEB8B07BF003B461021FF
:100CA000134A484603F032FECAF80070FFF744FDCD
:100CB0004846FFF7E5FDB1E7E946034E034DDFF88F
:100CC00038A003F0FF0BDDE7D4390120483A0120BA
:100CD0006740533A3333534000000A4000100A4043
:100CE00000200A4030BE001064BE001074BE001028
:100CF00054BE0010D33A012000340020002300B578
:100D0000084A83B0106801A9019307F073FC019BA6
:100D10002BB14FF0E0234FF08052C3F8042D03B005
:100D20005DF804FB043A01202DE9F84F4D4C4E4E7E
:100D30004E4FDFF86091DFF860B1DFF860814C4D15
:100D40004FF0FF31206807F0FBFD01288246F7D104
:100D5000642009F0E1FF4FF050435B681B0412D49C
:100D6000337803F0FF0273B93B7803F0FF016BBBEC
:100D700087F800A089F800109BF80030012BDAB248
:100D800001D188F800204FF0FF31286807F0D8FD26
:100D900009224FF0000343EC40200A2243EC40209C
:100DA0000B2243EC40200C2243EC40200D2243EC6C
:100DB0004020002328681A46194607F039FA002116
:100DC000206807F0BDFD0128BAD1F8E798F8003097
:100DD0002BB188F800203A7089F800A0D3E7254AA3
:100DE00013782BB9244B1B7813B982F800A0CAE7FB
:100DF00020490B7843B12048037803F0FF021BB968
:100E000001230A700370BEE74FF000021A4B1B4823
:100E10001A7001233A7089F8003003680068184A94
:100E200003EB830300EB800002EB830302EB800003
:100E3000144A102112681A61134B144A03F066FD1C
:100E400000230E4802680132991AC9B2D2B258BFC3
:100E50004A4202600E481A461946006807F0E8F94F
:100E600091E700BF043A0120CF3A0120D43A012093
:100E7000483A0120CC3A0120D33A012048380020DA
:100E8000D01A002000340020F015002080BE001091
:100E9000083A012000160020D23A0120CB3A012066
:100EA0002DE9F84F002702254FF0FF08364EDFF8F6
:100EB000F490DFF8F4A015E0002D59D0FFF73CFCCA
:100EC0005AF82B00FFF7DCFC00210120FFF77EFC25
:100ED0002E4B002553F82B00FFF7D2FCA046322002
:100EE00009F01AFF4FF0504251685368506803F000
:100EF0000203526800F0040001F0010103430B43B8
:100F000002F00802317843EA020B5C460029D3D193
:100F100099F800305BB9022DE1D025B9FFF70CFC40
:100F20001B48FFF7ADFC02254FF0FF08D7E7012D66
:100F300021D025B9FFF700FC1548FFF7A1FC154BA0
:100F40001F78A7F10207B7FA87F77F09FFF7F4FBCD
:100F5000BFB1114B53F82B502846FFF791FC2B469D
:100F600010210E4A0E4803F0D1FC0125A046B6E739
:100F7000D845B4D0A2E7D845B1D0FFF7DDFB002FAC
:100F8000E7D15AF82B50E7E7CB3A0120C8C200104E
:100F900000BE0010D23A012088C2001080BE0010AE
:100FA000F0150020CC3A012008C3001008B50F4C02
:100FB0000F4D104E4FF0FF31206807F0C1FC0128A3
:100FC000F8D12B78002BF5D14FF4DC40FFF7FEFC75
:100FD00033783BB92B782BB9642009F09DFE337828
:100FE000002BF7D0FFF710FDE4E700BF083A01201F
:100FF000CF3A0120D43A01202DE9F8432DED028BA0
:10100000DFED268A264F274EDFF8A890264CDFF822
:10101000A8803B788BB34FF0FF31306807F090FC2D
:1010200004212368214A03F47043C8F8003011609A
:101030002368DB05FCD5002365681A461946ADB266
:10104000306807F0F5F807EE905AB8EEE78A28EE18
:10105000288A18EE100A0AF07FFE02460B46144852
:10106000294603F08DFEF0EE007AB4EEE78AF1EE49
:1010700010FA06DB012389F80030C82009F04CFE85
:10108000C7E7F6EE007AB4EEE78AF1EE10FA4CBF4D
:101090000223002389F80030EFE700BF6740533A8E
:1010A00000160020D439012000000A4000200A4028
:1010B00084BE0010D23A012000100A402DE9F04F02
:1010C000DFF8D490314FDFF8D4B0DFF8D4A085B08A
:1010D0004FF050456B685C062BD5322009F01CFEA2
:1010E0006B68580625D5012389F80030FFF78CFC82
:1010F000584603F045FE3B68FBB9FFF71DFB24484B
:10110000FFF7BEFB40F2DC5009F006FE4FF0504402
:101110006368590605D5322009F0FEFD63685B0659
:10112000F9D4002389F80030FFF706FB5046FFF79B
:10113000A7FB642009F0F0FDCAE73B68002BE5DD62
:101140000026144CDFF85C801BE0FFF7F5FA204620
:10115000FFF796FB00210120FFF738FB23691021E0
:101160004246684603F0D2FB6846FFF789FB40F22F
:10117000DC5009F0D1FD3B680136B34204F11404A0
:10118000C4DD6B685A06E0D4C0E700BF48380020D1
:10119000ACBE0010D01A0020CF3A01209CBE001037
:1011A00000BE0010BCBE00104FF050402DE9F84FBB
:1011B0006549D0F800A0654A654B51F82A70BAF12C
:1011C000000F0CBF904698464FB30026DFF884B15D
:1011D000DFF88491F3080C3358F82340354608367D
:1011E000CCB114F00F0110D05BF82A2005F00703F2
:1011F000EA40E8089B00D20701FA03F300F18C0CE7
:1012000003D4284649F82C30B847240905F10105D4
:1012100001D0B542E5D3202EDCD1BDE8F88F4D4892
:10122000F90801F10C0358F823303A460837002B2F
:1012300071D013F00F0508D050F82A40D440E407CD
:1012400003D4454C8C3144F82150190963D011F076
:101250000F010BD050F82A40551CEC40E60705D48E
:10126000EC083D4D09018C3445F82410190A52D080
:1012700011F00F010BD050F82A40951CEC40E40708
:1012800005D4EC08344D09028C3445F82410190BB0
:1012900041D011F00F0105D050F82A40D51CEC4088
:1012A000E6073CD5190C36D011F00F0106D0294CB9
:1012B00054F82A50141DE540ED0737D5190D2AD0F2
:1012C00011F00F0106D0234C54F82A50541DE5406C
:1012D000EE0732D5190E1ED011F00F010CD01D4CA7
:1012E00054F82A50941DE540ED0705D41A4DE40842
:1012F00009068C3445F824101B0F02F107020AD0AE
:1013000050F82A10D140C90705D41349D2081B0749
:101310008C3241F82230202F82D1BDE8F88FEC08C2
:101320000D4D09038C3445F82410BBE70A4DE40841
:1013300009048C3445F82410C0E7074DE40809057A
:101340008C3445F82410C5E7C033002048820240A1
:1013500090820240F83800200080024010B44FF420
:1013600080740C4B53F8202003EB8003C00082F004
:10137000400200F1804003F5805C02F0C00200F5FD
:10138000203003F54053CCF8002041601C605DF82C
:10139000044B70470480034010B4084CC90041EA74
:1013A000820154F8202004EB8003514003F5805360
:1013B00001F00C015DF8044B196070470480034094
:1013C0002DE9F0434FF050491646DFF89C80D9F8DC
:1013D00000201F4658F8223004460D4683B053B310
:1013E000002F34D04FF0504348F822701A681B4940
:1013F0001B4B002A18BF0B46E20804F00704A400A8
:1014000005FA04F4A1F5247102F18C0041F82040A2
:1014100003EB82034EB10121152003F500531C603C
:1014200003B0BDE8F04300F05DB903F540531C6024
:1014300003B0BDE8F083002FD9D048F82270152002
:101440001A46084900F0C0F9D9F80020CFE7152066
:101450000449019200F0ACFA019AC3E7908202407D
:1014600048820240A9110010C0330020064B4022E0
:1014700003EB800319B103F500531A60704703F5BD
:1014800040531A60704700BF0480034030B44FF0EF
:10149000000343EC440043EC400005254FF4807406
:1014A0000B4BC20053F8201003EB800081F0400189
:1014B00002F1804303F5203301F0C00200F58051B2
:1014C00000F540500A605D60046030BC704700BFAA
:1014D000048003400FB400B583B0049C074803F0B8
:1014E000CDFB3CB105A92046019103F039FA04482F
:1014F00003F0C4FB012003F04BFA00BFD8C000107A
:10150000E8C00010EFF3108072B6064BD3E8CF1F8F
:1015100001220029FAD1C3E8412F0029F6D1BFF3F7
:101520005F8F7047B72F00200023034AC2E88F3F28
:1015300080F31088704700BFB72F002070B5864633
:10154000EFF3108572B6124CD4E8CF6F0120002E55
:10155000FAD1C4E8460F002EF6D1BFF35F8F4FF0EB
:10156000010CC80801F007030CFA03F31EF800C0D1
:101570001CEA030608D14CEA030C0EF800C0C4E8CC
:101580008F6F85F3108870BD1046FFF7A3FF00BF73
:10159000B72F0020F8B5EFF3108572B6234CD4E8CE
:1015A000CF7F0126002FFAD1C4E8476F002FF6D174
:1015B000BFF35F8F9A4227D80126D70810F807E0BB
:1015C00002F0070C06FA0CFC1EEA0C0F00EBD20727
:1015D0000DD125E04FEAD20E10F80EE002F0070C14
:1015E00006FA0CFC1EEA0C0F00EBD20718D00132F1
:1015F0009342EFD24FF0FF300023C4E88F3F85F3D2
:101600001088984207DBF8BD0023C4E88F3F85F3BC
:1016100010884FF0FF300029F5D00698FFF75AFFE9
:101620004EEA0C0E104687F800E0E5E7B72F0020E1
:10163000044A1078431CDBB2182B28BF1023137008
:10164000704700BF011600200146024A0248FFF71A
:1016500075BF00BFECC00010D033002010B5054CA2
:1016600082B001461F23182200940348FFF792FF1F
:1016700002B010BD0CC10010D03300204FF0E022AA
:10168000936843F000539360704700BF0021044B00
:1016900003F12002C3E88F1F01339342FAD1704750
:1016A000AC2F00204FF0E0234FF08032C3F800242D
:1016B000C3F80424C3F80824C3F80C24C3F8102486
:1016C000C3F81424C3F81824C3F81C24C3F8202436
:1016D000C3F82424C3F82824C3F82C24C3F83024E6
:1016E00062B67047012300F01F029340400941B1E8
:1016F000800000F1604000F56140C0F88031036077
:101700007047024A203042F82030704700E100E084
:101710000123064A410952F8212000F01F008340AE
:10172000134214BF01200020704700BF00E100E019
:1017300001224309034900F01F008240403341F871
:101740002320704700E100E0054A10309268054B05
:1017500052F82000C01A2F288CBF002001207047AB
:1017600000ED00E004160020F8B50D46EFF31087F9
:1017700072B6124ED6E8CF2F0123002AFAD1C6E85E
:10178000423F002AF6D1BFF35F8F0D4B00F11004EA
:101790009B680C4A53F82430934203D0994201D0FD
:1017A00001F076F9064B9B6843F82450BFF35F8F36
:1017B0000023C6E88F3F87F31088F8BDB52F0020BF
:1017C00000ED00E0110100102DE9F04F81468B463D
:1017D000164683B0EFF3108372B6DFF8D0A1009302
:1017E000DAE8CF1F01230029FAD1CAE8413F0029D6
:1017F000F6D1BFF35F8F664B93F90040002CC0F227
:10180000A080644D04EB440705EB870898F80610A8
:1018100009F110091970604BBF009B6853F829004B
:101820006300411B2F292FD95C49884240F0A480D6
:101830001C445B4B02372F44043BDB1BC3F34A03BE
:101840006FEAC3434FF421416FEAD34325F82410D4
:1018500005EB840463804BF60153A380FF2348F01B
:101860000100E671C4F808B0A3714B4B9B6843F8C4
:101870002900BFF35F8F0023CAE88F3F009B83F3EB
:10188000108803B0BDE8F08F20F0010E9EF807101D
:10189000B1422ED84FF42143EB53414BB91C29449C
:1018A000043B04375B1A2F44AEF104013D4CC91BC5
:1018B000C1F34A012143A8F80410C3F34A033A498B
:1018C0002343A8F802304AF6AA2073465B1B5B410B
:1018D0005843000D88F8076088F80600C8F808B07B
:1018E00048F00100CEF80010BFE7D179B1422ED9FF
:1018F00096469EF906C00CEB4C02BCF1000F05EBBE
:101900008202F2DA4BF601510EF10402A8F104074B
:10191000BF1AC7F34A076FEAC7476FEAD7478EF87F
:10192000064003EB0408204C05EB8803AEF8047076
:1019300045F82840998083F806C0DE71C3F808B0E6
:1019400093E701F0A5F8124B93F9004059E772466E
:1019500032F8041F490514D44915023102EB410144
:1019600001916FF00701C91B019F491B3944C1F365
:101970004A0141F46041C9E7019301F089F8019BF4
:1019800056E701F5FF1101F5FF511F31E4E700BFF4
:10199000CD3A01200416002000ED00E011010010F6
:1019A0003416002000E0FFFF01488047B52F0020DB
:1019B0002DE9F04F83B0EFF3108A72B6744ED6E87B
:1019C000CF2F0123002AFAD1C6E8423F002AF6D1E0
:1019D000BFF35F8F6F4B00F110089B686E4A53F89E
:1019E000285095423FD08D420C464AD06B4FEB1B9E
:1019F0002F2B38D801214FEA50194FEA890909F1F4
:101A0000604909F5614900F01F0301FA03F0D9F8B4
:101A10000030C9F8800000EA030BBFF35F8FEFF3DB
:101A20000581C9B279B3884577D125F0010EDEF87A
:101A300008C0644505D17CE0D3F808C0644532D0C5
:101A40009E469EF9062002EB4203002A07EB830321
:101A5000F2DA644500F08180BBF1000F20D0C9F8B4
:101A60008001C9F800004B4B9B6843F82850BFF336
:101A70005F8F0023C6E88F3F8AF3108803B0BDE86C
:101A8000F08F1546EFE725F0010EDEF808C064453B
:101A9000D7D19EF906407346002C08DA154666E059
:101AA000C9F88000DFE793F90640002C56DB04EB11
:101AB000440C07EB8C0CDCF8082061009A609CF861
:101AC0000720DA719CF90620002A9A715DDBBCF8C8
:101AD0000420520504D502F5FF1202F5FF521F3211
:101AE000521502F1020C4FF0040E0C2212FB04E21C
:101AF00002EB4C026FF0070C3A44ACEB030C62446F
:101B0000C2F34A0242F460429A80254B21441A787B
:101B100007EB81011C708A719EE7CDE9000100F09E
:101B2000B7FFDDE9000125F0010EDEF808C06445CD
:101B300087D19EF906407346002CB8DA194A1A4C30
:101B4000D21A083AC2F30A316FEA01516FEA115111
:101B500044EA5202DA8099807EE773460029EDD18B
:101B6000FF228EF806204BF60152AEF804200C4CF2
:101B70004AF6AA2294F800C01946C91B49414A43B3
:101B8000120D83F806C0227066E74BF60152BBE7E0
:101B9000B52F002000ED00E0110100100416002018
:101BA000CD3A01203E16002000F8FFFF4FF0FF0C59
:101BB00020F0030303F1604303F5644300F00300E6
:101BC0001A68C0000CFA00FC22EA0C0281400A43A9
:101BD0001A607047F0B5EFF30585EDB2EFF3108CA6
:101BE00072B62649D1E8CF2F0123002AFAD1C1E8E5
:101BF000423F002AF6D1BFF35F8F214E40F0010E25
:101C0000B4684AF6AA2354F825701E4A0446A41A5A
:101C1000644163431B0D77455BB21BD092F90640CC
:101C20009C421CD092F912409C4223D092F91E4053
:101C30009C4221D092F92A409C4208BF03240FD035
:101C4000114A0024157813708571C1E88F4F8CF309
:101C50001088F0BDB2680D4C42F82540F0E7002432
:101C600004EB440402EB8402FF2494714BF601540C
:101C70009480E5E70124F3E70224F1E7B52F002083
:101C800000ED00E004160020CD3A01201101001003
:101C900010B5074C82B00146052300220094054888
:101CA000FFF778FC0028A8BFC0F1330002B010BDD8
:101CB00028C10010D63A0120014B0B440360704745
:101CC000AC2F0020F8B5124C124DAC4211D24FF09F
:101CD000FF36002723686BB1FFF7AAFC01462046B8
:101CE000FFF7EAFF66602772BFF35F8F0C34AC42E8
:101CF000F0D3F8BDFFF79CFC01462046FFF7DCFF60
:101D00006660BFF35F8F0834AC42E3D3F8BD00BF19
:101D1000A8160020B816002010B50446FFF788FC6E
:101D200001462046FFF7C8FF4FF0FF336360BFF363
:101D30005F8F10BD10B504460120FFF78FFC034BE9
:101D400003442360BFF35F8F10BD00BFAC2F0020A2
:101D5000024B0B440360BFF35F8F7047AC2F002032
:101D60002DE9F04F2DED028B85B0EFF30583DBB24B
:101D7000103B9A0818BF01224FF0010103F0030045
:101D800018BFAF4DAF4B08BFAF4D00EB820253F809
:101D9000226001FA00FB05F541539FEDA78B0190EE
:101DA000C3F804B02EE0B388180440F19280B379F0
:101DB000002B40F0DC80B6F908100029C0F21D812C
:101DC000736901EB410103EBC103D3E90247B7F1AA
:101DD000FF3F08BFB4F1FF3F0DD0019B05EB83012E
:101DE000AB6A0A69D21AE31A934203D32B6A13EA45
:101DF0000B0F00D10C61284600F0B4FCA042B941A1
:101E0000C0F2FB80B6F90830C5F83CB0002B009357
:101E1000C9DBD6F8149003EB430A284609EBCA073E
:101E2000D7E9024800F09EFCA04271EB0801BADB42
:101E3000B8F1000FC0F2C380D7E90431834A93425E
:101E400000F0ED807A88B6F9080092B242EA0040CC
:101E5000984702460B4652EA030100F0B080002B7F
:101E600080F2D180B4EB020E68EB030839F93A3006
:101E7000C7E902E8002B96DB716903EB430201EB33
:101E8000C202D2E90270BE4578EB000C4FEA430271
:101E900089DBB4462CF8083F0BE031F93230A44618
:101EA000002B0DDB03EB430001EBC0005A00D0E92F
:101EB0000270BE451A4478EB000001EBC204ECDA74
:101EC00029F83A30009BACF80030B38818043FF58D
:101ED0006EAF3369EFF3108272B6D3E8CF0F0121F2
:101EE0000028FAD1C3E8401F0028F6D1BFF35F8F66
:101EF0004FF6FF74B0880023316900B2B480C1E8A6
:101F00008F3F82F310889842FFF651AF0746A946EB
:101F1000746906F1080807EB470E04EBCE03D3E91A
:101F20000250B6F90830C446002B13DBB2460097C6
:101F300004E034F936309446002B09DB03EB43060A
:101F400004EBC602D2E90271BD4270EB0101F0DA86
:101F50005646009FACF8007034F93E7024F83E30CD
:101F6000002FD8DAB3794D46002B3FF424AF00237D
:101F7000B371B6F9083006F10808591C3DD019466E
:101F8000776903E080465A1C3FF417AF03EB430226
:101F900007EBC200B0F802C01C461CF4004F9E467E
:101FA00037F93230EED08C4280ED028B05D0A8F8A4
:101FB0000030318927F8321034817146E3E739F86F
:101FC0003A3033813369EFF3108272B6D3E8CF0F22
:101FD00001210028FAD1C3E8401F0028F6D1BFF341
:101FE0005F8F7388316929F83A30009B7380002332
:101FF000C1E88F3F82F31088D5E640BF05B0BDEC45
:10200000028BBDE8F08F2846CDE9022300F0AAFB41
:10201000029A039B10EB020E43EB010826E70846E9
:102020000B69029198470028C9D00299D1E9002391
:1020300011E700BFAFF30080FFFFFFFFFFFFFFFFCF
:1020400000800B405838002000000B40611D00103C
:102050000B4808B50368EFF3108172B6D3E8CFCF11
:102060000122BCF1000FF9D1C3E84C2FBCF1000FE5
:10207000F4D1BFF35F8F05F089FD0020002108BD7A
:102080008C3900202DE9F84F364C25692DB1BDE87B
:10209000F84F0A213448FFF70FBEDFF8E480032130
:1020A000404600F04DFB0326C4F80C80FFF7C0FA51
:1020B0004FF0504C2D4B267003442361DCF8003068
:1020C0000F216370636961801D834FF00405A3F8DD
:1020D00078504FF00505A3F890504FF00605A3F88F
:1020E000A8504FF007050E214FF6FF7208274FF05A
:1020F0000A0EA3F8C0504FF001094FF00C0C4FF03E
:10210000020B4FF0090A0D204FF00B05A3F86811E0
:102110001749A280A3F808E1A160A3F848B0A3F88A
:10212000F0A0A3F82051A3F838C1A3F85001A3F8F8
:102130003090A3F86060A3F8D8701A800D4B304639
:10214000C8F820700C49DC60FFF70EFB49463046AA
:10215000FFF7C8FA094B0A211F640348BDE8F84F8E
:10216000FFF7AABD4C1600208C390020AC2F0020B0
:10217000FFFF100058380020611D001000200B40A8
:1021800000000B40004870474C160020F8B59DF841
:102190002070044616461D4637B900F0EBFA864219
:1021A00065EB010100295CDB2369EFF3108772B650
:1021B000D3E8CF1F01220029FAD1C3E8412F00291B
:1021C000F6D1BFF35F8FB4F902C063690CEB4C0129
:1021D000BCF1000F4FEAC10203EBC10138DB985A92
:1021E0004FF0000E60802069C0E88FEF87F3108801
:1021F0000698C1E90265086107984861488801307E
:10220000C0F30E00012838BF0120488040EA0C408E
:102210002169EFF3108572B6D1E8CF7F0126002F38
:10222000FAD1C1E8476F002FF6D1BFF35F8FA188C5
:102230009952A4F804C02369C3E88FEF85F310888E
:102240000122E368217803F501538A405A60F8BD02
:1022500000232269C2E88F3F87F310884FF0FF30D8
:10226000F8BD3846F8BD00BF0146F0B50069EFF390
:10227000108772B6D0E8CF5F0124002DFAD1C0E8F4
:10228000454F002DF6D1BFF35F8FB1F902E04C69E5
:102290000EEB4E0CBEF1000F4FEACC0504EBCC0C5C
:1022A0003DDB605B002648800869C0E88F6F87F3DC
:1022B0001088BCF80200CCE902230130C0F30E0004
:1022C000012838BF0120059BACF80200CCF8103083
:1022D000069B40EA0E40CCF814300B69EFF31082F5
:1022E00072B6D3E8CFCF0127BCF1000FF9D1C3E814
:1022F0004C7FBCF1000FF4D1BFF35F8F8B88635329
:10230000A1F804E00B69C3E88F6F82F31088012203
:10231000CB68097803F501538A405A60F0BD002369
:102320000A69C2E88F3F87F310884FF0FF30F0BD95
:1023300003464089B0EB214F37DD58690A1402EBA0
:10234000420210B500EBC2001C69EFF3108C72B6AC
:10235000D4E8CFEF0122BEF1000FF9D1C4E84E2F2F
:10236000BEF1000FF4D1BFF35F8F428889B292B201
:102370008A4207D000221B69C3E88F2F8CF3108894
:10238000002010BD42F40042428001210022186961
:102390009971C0E88F2F8CF310881C78DA68084692
:1023A00002F50153A140596010BD0020704700BFE5
:1023B000407870472DE9F043B0F1960641F1FF35C2
:1023C000B04271EB050338BF002683B038BF3546F5
:1023D00004460F4600F0CEF9301A65EB01030128E0
:1023E00073F1000306DA2046394603B0BDE8F04336
:1023F00000F0CAB900F0BEF9864265EB0101002980
:102400000ADB0021154B3246009315482B460191FB
:10241000FFF72AFF0028E6DBDFF84C80DFF8449066
:10242000D8F824309D4205D8D8F82820B242DAD214
:102430009D42D8D1D9F80030EFF3108172B6D3E8BD
:10244000CF0F01220028FAD1C3E8402F0028F6D18F
:10245000BFF35F8F034805F059FBE1E751200010FF
:102460004C1600208C39002000000B4038B5044683
:102470000D4600F07FF94FF0FF326FF00043201857
:1024800045EB0101824273EB010438BF1946BDE8F8
:10249000384038BF1046FFF78DBF00BF10B5044667
:1024A00000F068F94FF47A734FF0FF3C6FF0004290
:1024B000E4FB0301BDE81040844572EB01033CBF1F
:1024C00060461146FFF776BF2DE9F04306460D46FC
:1024D00083B0EFF30584E4B23CB1274B586AA842BD
:1024E0001CD2002003B0BDE8F083244FD7F80C9035
:1024F00097F80080484600F035F908F1040859F8CB
:1025000028301B1A301A65EB0101984271F1000165
:1025100011DB20BF184B586AA842E2D39B6AB34232
:1025200003D3012003B0BDE8F083401B18BF012096
:1025300003B0BDE8F08300F01DF9864265EB0101B0
:102540000029CADB0E4B3846CDE9003432462B4613
:10255000FFF78AFE011EC0DD074B5A6AAA4208D364
:102560009B6AB34203D30548FFF7E2FEB5E7AA42F0
:10257000F9D120BFF7E700BF00000B404C16002048
:10258000512000102DE9F0410446DDE9071552EA1B
:10259000030070D0002B16461F4671DB0698C5E974
:1025A00000232861AC60696100F0E4F84FF0FF326D
:1025B0006FF00043801947EB0107824273EB07017C
:1025C0003CBF1F4610462369EFF3108872B6D3E86C
:1025D000CF1F01220029FAD1C3E8412F0029F6D1EB
:1025E000BFF35F8FB4F90260616906EB4603002E0A
:1025F0004FEAC30C01EBC30346DB31F80C204FF06C
:10260000000E62802269C2E88FEF88F310885A8832
:10261000C3E902070132C2F30E02012A38BF0122C8
:102620001F485A805D61186142EA06422369EFF350
:10263000108072B6D3E8CF8F0127B8F1000FF9D11F
:10264000C3E8487FB8F1000FF4D1BFF35F8FA388D0
:1026500021F80C30A6802369C3E88FEF80F310883F
:1026600001202178E36800FA01F103F50153596074
:10267000EA60BDE8F0810126002732463B468DE73F
:10268000564263EB430789E700202369C3E88F0FB5
:1026900088F310884FF0FF32EA60BDE8F08100BF98
:1026A000611D00100246C06800B9704791680314AC
:1026B000B1F80AC0BCEB204F3DDD30B54C6903EBEF
:1026C000430304EBC30C0B69EFF3108E72B6D3E82F
:1026D000CF5F0124002DFAD1C3E8454F002DF6D17C
:1026E000BFF35F8F83B2BCF8020080B2834209D08F
:1026F00000230969C1E88F3F8EF310880023002072
:10270000D36030BD43F40043ACF802304FF0010C0D
:102710000023086981F806C0C0E88F3F8EF3108857
:10272000CB68097803F501530CFA01F159600023D5
:102730006046D36030BD00230020D360704700BFE7
:1027400010B4054B054C064AA04214BF1846581C4D
:102750005DF8044BFEF7F2BED433002000800B403E
:1027600044C100100346416A0A46986A596A8A427F
:10277000FAD17047034B596A0A46986A596A9142DE
:10278000FAD1704700000B40074A536A9942FCD8BF
:10279000994207D1044B02E05A6A914202D19A6AE7
:1027A0008242F9D3704700BF00000B4000EB400CA1
:1027B0004FEA8C0C0CF1804C0CF5803CF0B51646C1
:1027C000DCF80420051FB2F5803F38BF4FF480329B
:1027D000EDB238BFCCF80420012D2AD94FF40067A0
:1027E000254C0CF54052176054F82020B2B9DCF8A3
:1027F0000020012D82EA461202F0E0020CF580561C
:1028000032602AD94FF4006144F820304FF480330D
:102810000CF500521160CCF80430F0BD6769B7FBCD
:10282000F2FE0EF1010E0EEB4E0EBEF1030EFCD2C7
:10283000DDE70129D2D103240CF540521460DCF805
:102840000820D207FBD5DCF800200B4C82EA4612A8
:1028500002F0E0020CF5805632600122DCF80050F4
:102860004D4005F00305356002FA01F1DCF808205F
:102870000A42FBD0C6E700BFD8330020014B53F813
:1028800020007047D833002070B4039D04682D03E6
:1028900045EA03451B4B002CB3FBF1F3B2FBF3F607
:1028A0001FDB194A194B904214BF4FF480424FF47A
:1028B0000042174C1A6003F580531A60A36832EA8D
:1028C0000303FBD1212200F54053043301608660ED
:1028D0001A600268002AFCDA0822C5601A6070BC1F
:1028E0007047036803F03F038B42DAD18368C3F378
:1028F0000B03B342D5D1C36803F4EE23AB42D0D16E
:10290000EDE700BF001BB70000800540002002403B
:102910000000024030B44FF080441C4B1C60E0B11A
:102920001B4CA3F54053DC611A4C40F001004440BD
:102930001C62596298624FF080454FF0E061134B82
:102940001548164C1D60846019604AB930BC4FF0C0
:102950000042A3F580531A607047114BD861EAE733
:102960004FF47A7303FB02F2B2F1807F2ABF6FF05B
:102970007F4313461A464FF080410A4C08482360B3
:10298000094B426030BC1960704700BF00B00D4079
:10299000D3C007B02D3FF84F00A00140F3FFFF0167
:1029A00000800D404038002000A00D40012300EBC6
:1029B0004000800000F1804000F584104160036019
:1029C000704700BF002370B5DB8A04460D46002225
:1029D00042E800F2520254BF1021042144F2522076
:1029E000984786462B462246F446BDE870400A21A9
:1029F0004FF48170604700BF0023DB8A002242E869
:102A000000F2520201D4102118470421184700BFD8
:102A100008B503460846191E02DB1AB140F0300023
:102A2000FFF7D0FF40F02000FAE700BF034AD2F8DA
:102A30002838002BFBD0BFF35F8F704700000E409B
:102A40000021044B044ABFF35F8F43F8041B9342F9
:102A5000F9D170470C080E402C080E4010B44FF40A
:102A60008D704FF42A64064A064B07491460D06003
:102A700019605368002BFCDA5DF8044B704700BF07
:102A80000080044000A0044000B0FA00704700BF7E
:102A900008B50148FEF71EFD68C1001038B5054CA9
:102AA000054DAC4204D254F8043B9847AC42FAD3EB
:102AB00038BD00BFB0BD0010F0BD001038B5054CEA
:102AC000054DAC4204D254F8043B9847AC42FAD3CB
:102AD00038BD00BFDCBD0010F0BD001010B40748C9
:102AE000074C084B084A094904601A608B6832EAAF
:102AF0000303FBD15DF8044B704700BF0020024088
:102B00007F3BEFEF00300240F6FFF303000002408E
:102B1000044BDB6CB3F5004F03D14FF48022024B22
:102B2000DA64704700001150002011504FF0E0228D
:102B3000044BD2F8881D0B43C2F8883D10EE3004D8
:102B4000704700BF030330006FF06041044B054A3B
:102B500019609368DB4333F06043FAD1704700BFDC
:102B6000003002400000024010B545F25320FFF74C
:102B700043FFBDE8104003460420184710B545F256
:102B80005320FFF739FFBDE81040034601201847E6
:102B9000FEF77CBD70B51449144C154D641AA6108F
:102BA000442E324628BF44222846920008F0D0FF27
:102BB000B4F5867F13D80F4AC6F1440112D02B1901
:102BC000480803EBC000C3E9002208338342FAD16E
:102BD000CB0704D521F00103334445F82320064BED
:102BE0009D6070BD4323F8E7000000101001001045
:102BF000000000201101001000ED00E0002370B57E
:102C00002B4C82B0C4F88430FFF728FF0122294BF7
:102C1000DA63636C012BFCD10321264A244B116338
:102C20009C6B012CFCD10226052521460523224A56
:102C300022480096FFF728FE21462B46204A2148CD
:102C40000095FFF721FE0022042031461E4BFFF7BE
:102C5000ADFD2146284600221C4BFFF7A7FD0022B0
:102C6000082011461A4BFFF7A1FD0022092011464A
:102C7000174BFFF79BFD002206201146134BFFF771
:102C800095FD0022114B07201146FFF78FFD042010
:102C9000FFF7F4FD00240F4BA3FB0035AD0CE0B2B1
:102CA00029460134FFF782FE062CF8D102B070BD30
:102CB0000000014000300140002F6859000005402D
:102CC000008C864700800540001BB70080D1F008CB
:102CD000006CDC0283DE1B4386B003B451FC0804A5
:102CE000CDE9020151FC0904CDE9040151EC0A04CB
:102CF000CDE9060103BCF047BDE800504EEC00C42E
:102D0000BDE800504EEC01C4BDE800504EEC02C4DA
:102D100000BD000000B5FFF7DFFF02E010FE30F459
:102D2000F8D441EC100443EC112400EE010410EE41
:102D3000010480EE200451EC1004704700B5FFF749
:102D4000CBFF02E010FE30F4F8D441EC100443EC69
:102D5000112400EE010410EE210480EE200451EC59
:102D60003004704700B5FFF7B7FF02E010FE30F403
:102D7000F8D410B541EC100443EC112451EC0404D8
:102D800053EC0524A0FB024C5FF0000EE0FB03CEE9
:102D9000E1FB02CE4CEC20440024E1FB03E444ECD4
:102DA00030E480EE200451EC5004BDE81040704740
:102DB00000B5FFF791FF02E010FE30F4F8D441ECCB
:102DC000100443EC112451EC2104A0FB01126FEA22
:102DD000820252FB100052FB12F252FB1000A0EBD9
:102DE000D07C53EC04245CFB13F153EC1524A1FBC1
:102DF000022001FB030053EC4424A2EB000050FB33
:102E00001CF24FEA111312EB017043EBE27140EA3E
:102E1000515020EA915020F0070053EC7524A0FB9C
:102E2000023C53EC752400FB03CC01FB02CC53ECB9
:102E30000424ACEB824C40EA5C70A0F1010041EC50
:102E4000400480EE200451EC7004704700B5FFF799
:102E500043FF02E010FE30F4F8D441EC100480EEA1
:102E6000220410EEB204704700B5FFF735FF02E010
:102E700010FE30F4F8D440EC700400EE010410EEC3
:102E8000210480EE200451EC3004704700B5FFF7B8
:102E900023FF02E010FE30F4F8D440EC600400EEB2
:102EA000010410EE210480EE200451EC3004704740
:102EB00000B5FFF711FF02E010FE30F4F8D441EC4A
:102EC000800400EE010410EE010480EE400410EED8
:102ED0001304704700B5FFF7FFFE02E010FE30F468
:102EE000F8D441EC800400EE010410EE010480EE01
:102EF000400410EE3304704700B5FFF7EDFE02E02A
:102F000010FE30F4F8D441EC100443EC112400EE30
:102F1000010410EE3004C0F30070704700B5FFF7F5
:102F2000DBFE02E010FE30F4F8D443EC102441EC58
:102F3000110400EE010410EE30F48CBF01200020DB
:102F4000704700BF00B5FFF7C7FE02E010FE30F487
:102F5000F8D441EC100443EC112400EE010410EE0F
:102F600030F42CBF01200020704700BF00B5FFF7F0
:102F7000B3FE02E010FE30F4F8D441EC100443EC50
:102F8000112400EE010410EE30F48CBF012000206B
:102F9000704700BF000000000000000000000000BB
:102FA000DB60BE284A059193F4D5097F70374D7DCB
:102FB00066A5D83610E4104FAFF224024B1102EB95
:102FC000830201F01F034FF001049C40A4FB003476
:102FD000D568A5FB0456956805FB0466E5FB03561A
:102FE000556805FB03667047410201D150F000406F
:102FF00050F480007047F0B5012363F3DF50C1F156
:1030000009014FF07E07FFF7D7FFB30F53F100031D
:103010009C44B6EB8376B20028BF5242B2F1805F87
:103020000BD20231FFF7C8FF96EA260242F10002F6
:10303000B2F1805F01D2023FF3D50A4CA2FB042417
:10304000B4FA84F29440240AA7EB020244EBC25083
:10305000C10DD1F17F01F60F00EBC673BDE8F04062
:1030600073E00000A2DA0FC911F1800FBCD030EA82
:10307000CC7248BF0CF1020C20F0004000EE100AA8
:103080000DA2F2EC032A22EE802A11F1080FB9FEFC
:10309000422AB0DDA2EE630AA2EE430A10EE103A15
:1030A000FDEEC21AC3F3C752782AA4D3D2F17F012E
:1030B00011EE902A944448E083F9223F7A7795B63E
:1030C0000010C93F07B5C0F3C751FF2925D000F054
:1030D00032F8BDE80640CEF800000ED2C9438CEAB3
:1030E000D17C63EEA02AE1EE032A73EE622A12EE8F
:1030F000900A80EACC70106000BD8CEAD17C21EE91
:10310000232AA3EE602A8CEAD37133EEC22A12EE90
:10311000100A80EAC170106000BD4102BDE80E4097
:1031200001D150F0004050F48000106018607047EA
:103130005FF0000C01E05FF0010CC0F3C751A1B3D8
:10314000D1F17F0190D920EACC7323F0004000EE4A
:10315000100AC0F38440203030FA01F1834A51F163
:103160000001B2EC024A02EB810202EBC102D2EC96
:10317000032A70EE620A20EEA01A5FEA5C0C61EE90
:10318000201A15D221EE041A61EEA41A70EEE10A9B
:1031900021EE232AA3EE602A8CEAD37133EEC22AF1
:1031A00012EE100A80EAC170704700F00040C7E7D5
:1031B00061EEA41A70EEE10A21EE041A63EEA02A71
:1031C000E1EE032A73EE622A12EE900A80EACC70D6
:1031D000704700BFAFF30080C1FEFF3E25AA2A3E24
:1031E000000000000000803F0000000061C9FC3CBE
:1031F000CDE07F3F1CBFFC3C7605813DFE7D7F3FDF
:103200009EEF803D090CBF3D0FE37E3F22C5BE3DD2
:10321000B624FF3D14047E3FE27BFE3D13071F3EB4
:1032200048EB7C3FA0631E3E6D30403E1D817B3FDE
:1032300015103F3EA2AD603ECFDC793F3EE15E3EE1
:103240007B0D803EFA08783F96717D3E6E988F3EEA
:1032500065FF753F68B88D3EF4E19F3E939E733FD6
:10326000FD4B9D3EC654B03EAEF7703FB3DDAC3E65
:10327000C589BF3E604B6E3F0A1ABB3E26C4CF3E97
:10328000CA356B3F631CCA3EF254E03E66D1673FCD
:103290000739D93EDDF0EF3E4B66643F1641E73E0D
:1032A000312B003F8894603F0FC3F53E07E4073F92
:1032B000A2C55C3F2B99013FC51F103F8F7D583F32
:1032C00065A1083F8AF6173FB534543FCA310F3F16
:1032D000E2FF1F3F599B4F3FD7C8153F4606283F87
:1032E0006BCF4A3FC4371C3F4130303FE0B9453FC8
:1032F000E49A223FA71D383FCA98403F20A6283FA6
:103300002FC73F3FAC763B3F4A562E3FDB13483F2B
:10331000CCB6353F6B52343F79C74F3F2F35303FE6
:10332000D0B4393F52DD573F70412A3F912D3F3F86
:1033300026CE5F3F9F3E243FC35D443FF125683F5B
:1033400050C21D3F1C9D493FE13B703F4150173F1C
:10335000BF7E4E3F7810783F71ED103FAF06533F70
:10336000D4F47F3FA75A0A3F9B64573FD8310010DF
:103370009A4238BF88547047704700BF2DE9F04F1C
:1033800083B09946DDE90DAB0F9B884611469A073D
:10339000074616D1DA453AD20C460D46ABEB0A0683
:1033A0000E4422464B46414620200134B847B442E1
:1033B000F7D12946BAF1000F08D1204603B0BDE885
:1033C000F08F0C46BAF1000F10D00E4655460C9BFC
:1033D0002E449A440191721B4B46013D41461AF816
:1033E000010D3446B847002DF5D101990F9B9B077D
:1033F000E3D5651AAB45E0D922464B46414620202D
:103400000135B8475D4504F10104F5D3D5E7BAF1BC
:10341000000FDAD10C46D0E72DE9F04F0F9FDDF811
:1034200024E017F0020F0A9C9DF82C900E9DDDE918
:103430000C8629D1002D6FD1B44225D2202C07F063
:10344000010B00F0128104F1FF3C4FF0300AF4440C
:1034500001E0202C7AD00134A6420CF801AFF8D854
:10346000BBF1000F10D0AC420ED2202C74D004F16E
:10347000FF3C4FF0300AF44401E0202C29D0013405
:10348000AC420CF801AFF8D117F0100F3AD017F496
:10349000806F28D11CBBB8F1100F00F0CA80B8F1C2
:1034A000020F00F0D48030248EF800400124B9F1DE
:1034B000000F67D17E0740F1AA802B260EF804602A
:1034C0000134CDE90B57CDE909E4BDE8F04FFFF732
:1034D00055BFFC0640F189807C0535D42024A642E6
:1034E0006AD0AC4268D0B8F1100F00F08780B8F114
:1034F000020F5AD0202CE4D0264601344FF0300C75
:103500000EF806C0202CD2D1CDE90B57CDE909E445
:10351000BDE8F04FFFF732BF17F0010B3ED0B9F115
:10352000000F47D117F00C0F44D1B4429BD2202C8E
:1035300089D1202D10D8FC0657D57C0555D4202ED6
:1035400000F0B980202D10D02024CCE7BBF1000F73
:1035500000F0A580202DBCD9FC0646D57C0544D4BE
:10356000202E00F0A880202D3FD12C461F26B8F138
:10357000100F7FD0B8F1020FC0D14FF0620C0EF8DF
:1035800006C0B7E72D260EF804600134CDE90B57CD
:10359000CDE909E4BDE8F04FFFF7F0BEB442BFF457
:1035A00073AF202C7FF44FAFD6E7202C89D026466E
:1035B0000134E2E7013DB8E7661ED8D1B8F1100F3B
:1035C00064D0B8F1020F7FF46EAF62268EF800600F
:1035D000302644468EF80160B9F1000F3FF46AAF1F
:1035E000D0E7B8F1100F7FF46CAF2024CDE90B5772
:1035F000CDE909E4BDE8F04FFFF7C0BEBE060ED42A
:10360000202CF2D078260EF80460013472E73E07D1
:103610007FF557AF20260EF80460013451E7202CC7
:10362000E3D04FF0580C0EEB040686F800C00134CE
:1036300060E7BE0617D558248EF8004030248EF877
:1036400001400224B9F1000F3FF434AF9AE762243D
:103650008EF8004030248EF801400224B9F1000FAA
:103660003FF428AF8EE77824F2E7BBF1000F7FF438
:1036700062AF71E717F0200F0CBF4FF0780C4FF0DE
:10368000580CA61E0EF806C0013C35E7BC06EAD56C
:1036900058248EF8004030248EF80140DDE717F002
:1036A000100F3FF40EAF17F4806F9AD1202E7FF4E5
:1036B00018AF1F265BE734461F2658E700B970474E
:1036C00001F09ABA10B1D1E900311847704700BF34
:1036D0002DE9F04F9FB09DED287BDDE92AA558EC40
:1036E000177B83461E460D91109243463A46384654
:1036F00041468DED087B2C9CFFF702FC002840F032
:10370000D880384641464FF0FF32754BFFF732FC08
:10371000002840F0CE80384641464FF0FF326FF42B
:103720008013FFF7FFFB002840F0C380DDE9087835
:103730000022384641460023FFF7F4FB002840F002
:10374000C081CDE90A78DDE90A2390461F4614F4CA
:10375000806308BF4FF0060A139304F4006258EA2E
:103760000703119240F0C080002A00F0A2819FED73
:103770005A7B00278DED0E7B4FF00009BA45CCBF78
:10378000AAEB070A4FF0000A4F46C8BF0AF1FF3AFA
:1037900044F480644D4594BF4FF00008A5EB090840
:1037A00014F00203119304D0B9F1000F18BF4FF0C9
:1037B00000083FB1DDE90A01DDE90E23FFF7FCFA5D
:1037C000CDE90A01DDE9080100220023FFF7AAFB89
:1037D00030B1DDE90A01024601F10043CDE90A23D7
:1037E0009DED0A7BCDE902A8DDF834A024F4006346
:1037F00004938DED007B334651465846109A00F0F5
:1038000097F98046B9F1000F4FD014F0200F02460F
:1038100000F1010433460CBF652045205146D847CE
:1038200009F1FF3087EAE77C0DF1580900224B4689
:10383000DFF8B080ACEBE77C4FEAD77E01E0202ACE
:1038400010D0E246A8FB0C71C90801EB8107ACEB74
:1038500047073037BAF1090F8C4602F1010203F82D
:10386000017BECD805230590069300200A230D9FC9
:10387000CDE90330CDE9012E33462246394658467C
:10388000CDF80090FFF7C8FD119B80466BB1109BEF
:10389000C41AA54209D9424633463946202001348C
:1038A000D847A54208F10108F5D840461FB0BDE849
:1038B000F08F9DED087B33465846109A0D998DED9B
:1038C000287BCDE92B54CDF8A8A01FB0BDE8F04F60
:1038D00000F02EB9AFF300800000000000000000EF
:1038E000FFFFEF7FCDCCCCCCC7F30A50A0F2FF3066
:1038F000FFF7BEFA8AA3D3E90023FFF737FA8AA3BA
:10390000D3E90023FFF70AFAC7F31307CDE90E0145
:1039100047F07F51404600227B4B41F44011FFF7B6
:1039200011FA6BA3D3E90023FFF720FA02460B46F6
:10393000DDE90E01FFF7F2F9FFF7BEFA0746FFF7E0
:1039400097FA65A3D3E9002380468946FFF70EFA6C
:1039500000226E4BFFF7E2F9FFF7AEFA0346494645
:10396000404612935EA3D3E90023FFF7FFF9804698
:1039700012988946FFF77CFA5BA3D3E90023FFF78F
:10398000F5F902460B4640464946FFF7DBF9024689
:103990000B4680468946FFF7E9F942464B46CDE99A
:1039A0000E0140464946FFF7B9F90022CDE914015E
:1039B000DDE90E01564BFFF7FFF90022554BFFF7EB
:1039C000ADF902460B46DDE90E01FFF7F5F90022DD
:1039D000514BFFF7A3F902460B46DDE90E01FFF755
:1039E000EBF942464B468046894600204FF0804125
:1039F000FFF7A8F902460B4640464946FFF78EF905
:103A000002460B46DDE91401FFF7D6F90022434BCD
:103A1000FFF784F9129B002203F2FF3C4FEA0C539C
:103A2000FFF7A4F980468946DDE90A0142464B4684
:103A3000CDE90E89FFF776FA68BB4346494607F1A0
:103A40006302C62A119A8CBF4FF005094FF0040992
:103A5000002A3FF49FAE0B433FF48EAEDDE90A012E
:103A600023A3D3E90023FFF771FA48B1DDE90A0186
:103A700021A3D3E90023FFF755FA00287FF47CAE99
:103A8000BAF1000F3FF486AE139B002B3FF482AED9
:103A90000AF1FF3A7EE600221E4B40464946FFF7F8
:103AA0008BF90A4601460346CDE90E12013F114645
:103AB000C5E79FED137B17464FF004098DED0E7B94
:103AC00068E608F100430A970B933CE6AFF30080E9
:103AD00061436F63A787D23F71A379094F930A406F
:103AE0001655B5BBB16B0240EF39FAFE422EE63FE8
:103AF0002D431CEBE2361A3F0000000080842E416B
:103B000000000000000000000000F83F0000E03F5F
:103B100000002C4000002440000018400000F03F4E
:103B2000FB799F501344D33FB3C8608B288AC63FAC
:103B30002DE9F04F97B0DDE92089CDE90401DDE9F9
:103B4000224BCDE90623404642464B464946DDF826
:103B500090A0FFF7D5F9002840F0C58140464946BE
:103B60004FF0FF326FF48013FFF7DCF9002840F0CC
:103B70001D81404649464FF0FF32C14BFFF7FAF92D
:103B8000002840F0E380B8A3D3E90023404649462B
:103B9000FFF7F0F9002840F0CB80B5A3D3E900236C
:103BA00040464946FFF7BEF9002840F0C180404634
:103BB000494600220023FFF7B5F9002840F0E080D5
:103BC0001AF480650D9000F0E980092C40F296818E
:103BD0000EAB1A460C9330210023A4F109050133E2
:103BE000202B02F8011BA4EB030600F03A81AB4244
:103BF000F5D19FED9D7B8DED087B49464046FFF753
:103C00005BF90446FFF734F902460B464046494645
:103C1000FFF798F8DDE90823FFF7A8F802460B46FE
:103C2000CDE90A23FFF75AF90746FFF733F90246B1
:103C30000B46DDE90A01FFF785F802460B46CDE9A0
:103C40000A2300228F4BFFF795F9002800F0DB8054
:103C500001373846FFF71EF9DDE90823FFF776F94B
:103C600008B100270134002E40F0B1802046FFF754
:103C7000FFF802460B4640464946FFF763F800222C
:103C8000804B06460F46FFF74DF940B9304639469E
:103C900000227C4BFFF76EF9002800F015810C9B89
:103CA000691E7948194410E080FB0462C3EBA2034B
:103CB00003EB8302A4EB420404F1300201351C46FD
:103CC00001F8012F002B00F0AB80202D4FEAE473A8
:103CD000EAD10AF00303012B1CD1BBF1000F19D06C
:103CE0000D9B002B40F0F9801AF00C0F40F0F5808E
:103CF000AB4540F2D380202D0BD030220C996B1EA7
:103D00000B4401355D4503F8012F00F08D80202D17
:103D1000F7D12025DDE90623DDE904010C9CCDE97E
:103D200002BA01950094FFF729FB17B0BDE8F08FA8
:103D3000CDE92089DDE90623DDE90401CDE923BAD7
:103D4000229417B0BDE8F04FFFF7C2BC4F4DCDF83D
:103D50008CA00AF0040ABAF1000F4D4C18BF2C4693
:103D6000DDE90623DDE9040120940CBF03240424CB
:103D7000CDF888B0219417B0BDE8F04FFFF7FEBA38
:103D80004B46424600200021FEF7DCFF01231AF4D7
:103D90008065804689460D937FF417AF9FED367B93
:103DA0000EAB06268DED087B0C9326E70424DDE997
:103DB0000623DDE90401374DCDF88CA0CDF888B09D
:103DC0002095219417B0BDE8F04FFFF7D7BA0C9BB0
:103DD000681EDFF8C4C018440DE0ACFB0721C90819
:103DE00001EB8102A7EB42023032092F00F8012FCC
:103DF00027D90F461D46202D05F1010306F1FF3698
:103E0000EBD120254BE70022DDE90A011D4BFFF72E
:103E100089F800287FF427AF002F5AD1013722E715
:103E20000AF00303012B75D0202D3FF473AF0D9BD7
:103E3000BBB32D2205F158036B4403F8202C013548
:103E400068E7202BDDD0AEB30C9A1E441544302217
:103E500001E0B3422ED00133202B05F8012FF8D119
:103E6000CFE71D46C5E600BF0000000065CDCD418F
:103E70000000000065CDCDC10000000080842E410F
:103E8000FFFFEF7F0000E03F67666666B8C1001085
:103E9000C0C10010C8C10010CDCCCCCC202D3FF447
:103EA00039AF1AF0040F0DD11AF0080F3FF432AFFA
:103EB0002022BFE72E2103F158026A4402F8201C99
:103EC0005D1CECE62B22B5E7E3077FF5E8AE013495
:103ED000E5E6FA077FF5C7AEA0E70BF1FF3BAB4580
:103EE0003FF609AFA0E70324DDE90623DDE904017D
:103EF0000A4DCDF88CA0CDF888B061E7084B264676
:103F000003EBC40393ED007B0EAB8DED087B002526
:103F10000C9372E6BBF1000F86D0E1E6C4C100103D
:103F2000A0C300102DE9F04F9A469BB0249C964DFB
:103F30000B94964C0B1E18BF834625609AF8000020
:103F4000934C0A9308BFA3460992002800F0BC8254
:103F50004FF000090AE04A46099B0A9909F1010954
:103F6000D8479AF80000002800F0CE8025280AF1F2
:103F7000010AF0D10023524612F8010BA0F12001F2
:103F800010290AD8DFE801F04009093C09090909AC
:103F900009090938093409093000A0F1300109295B
:103FA00040F28C802A2800F0F58000210C912E2808
:103FB00000F099800027A0F1680112292DD8DFE8D0
:103FC00011F057012C0051012C0045012C002C0050
:103FD0002C002C002C002C002C0027002C002C0086
:103FE0002C002C002C002700924643F00103C2E76E
:103FF000924643F00203BEE7924643F00403BAE759
:10400000924643F01003B6E7924643F00803B2E746
:104010009AF8010043F4807301326728924600F257
:104020008280242840F2C680A0F12502422A00F2B4
:10403000C180DFE812F05F01BF00BF00BF00BF001A
:10404000BF00BF00BF00BF00BF00BF00BF00BF0078
:10405000BF00BF00BF00BF00BF00BF00BF00BF0068
:10406000BF00BF00BF00BF00BF00BF00BF00BF0058
:10407000BF00BF00BF00260145012601BF00BF00F1
:10408000BF00BF00BF00BF00BF00BF00BF00BF0038
:10409000BF00BF00BF00BF00BF00BF00D301BF0013
:1040A000BF00BF00BF00BF00BF00BF00BF00BF0018
:1040B000D3016701D301260145012601002100E05B
:1040C000013201EB810100EB410110789246A0F131
:1040D0003004092CA1F13001F2D92E280C9102F103
:1040E00001027FF467AF9AF801001146A0F1300693
:1040F000092E43F4806340F231812A2800F03E818A
:1041000092460027013256E74C46099B994501D358
:1041100003F1FF394A460020099B0A99D8472046F7
:104120001BB0BDE8F08FA0F16902D2B20F2A41D8CE
:10413000012649F2410196400E4040F001810A2AD1
:104140003FD0072A36D10B9C54F8042B002A00F0EC
:10415000288143F021010DF1480E704603E0202E26
:1041600000F029811A4602F00F052B46092D94BF55
:10417000303337330F2A00F8013B06F101064FEACE
:104180001213ECD817E100BF253F00103C38002087
:10419000793300100B9C9AF8010054F8045B9246A6
:1041A000002DBDBF694243F002030C910C950B94A6
:1041B0000132FCE64A46099B0A9909F10109D847F0
:1041C000CFE60B9951F8048B98F800201046002F89
:1041D00040F0E18072B16FF0010C0CF1010C464629
:1041E000C44401E0664503D016F8014F002CF9D114
:1041F000A6EB080613F4806C02D0BE4228BF3E46F0
:1042000013F0020400F08781002A00F02B81BCF13A
:10421000000F00F041810B940D964A46DDE90954E8
:104220000E464F4408E02B462146D84718F8010FA8
:1042300009F1010910B14A464F45F4D131460B9CB2
:104240000D9E002C40F00E810B918AE69AF8010039
:104250006C287FF4DFAE9AF8020043F440730AF151
:104260000302DAE69AF8010043F400730132D4E65F
:104270009AF80100682800F0208143F080030132A1
:10428000CBE6672800F0E780472800F0008145284A
:1042900000F0FF800B9C04930C9B0734CDE9027364
:1042A00024F007031C46DDE90931F4E802674A46B9
:1042B0005846CDE900670B94FFF70AFA814650E6AD
:1042C00046280B9C08BF43F0200304930C9B073443
:1042D000CDE9027324F007031C46DDE90931F4E857
:1042E00002674A465846CDE900670B94FFF720FC69
:1042F000814636E64A462520099B0A9909F10109BB
:10430000D8472EE60B9A9C0702F1040709F1010633
:1043100040F1E6801078099B4A460A99D8470C9BE1
:10432000012B40F22C81DDE90954994432462B4699
:10433000214620200136D8474E45F7D10B9710E68D
:104340006F2800F08B8040F26581782800F00881AA
:104350004FF00A0823F01003C44647E0002707EB9C
:10436000870700EB4700A0F1300711F8010FA0F11B
:104370003002092AF3D98A464A1C1CE60B9C9AF89B
:10438000020054F8047B0AF1020A0AF101020B94BC
:1043900027EAE7770FE6002A3FF42CAF07F1FF3C4E
:1043A0001BE723F0100113F4806241F021013FF478
:1043B000D2AE0DF1480E08231020059300234A4683
:1043C000CDE9023006915846DDE90931CDE900E634
:1043D0000497FFF721F80B948146C2E5582879D05D
:1043E000622840F051824FF00208C44613F4806006
:1043F0006DD123F00C0313F4007240F0C2800B99CE
:1044000004310D9113F4807140F02E825E060B9AF8
:1044100040F1AA801278002A40F0DA8023F01003DD
:10442000002800F0D58011460DF1480E06930C9B34
:10443000CDF80CC0CDE90473019100234A460293E4
:104440005846DDE90931CDF800E0FEF7E5FF0D9BA8
:1044500081460B9385E543F400631BE74FF00808A2
:10446000C446C3E70C9B4C46B3427FF6EDAE0F4605
:104470004B44A3EB0609DDE909652246334629468C
:1044800020200134D8474C45F7D13946DCE643F4C7
:10449000006343F02003FDE60F460B94DDE9095469
:1044A0004A462B462146D84718F8010F09F1010961
:1044B0000028F5D139460B9CC3E69AF8020043F078
:1044C000C0030AF10302A8E5044681461DE623F075
:1044D0000D0390E74FF0100843F02003C44685E732
:1044E0000C9B012B45D9DDE909544E4609F1FF38F3
:1044F000984432462B46214620200136D84746456F
:10450000F7D10C9B324699440B9B1878DDE90931B1
:10451000D8470B9725E50C9BB34240F2EE81CDE9DD
:104520000D48DDE9095488464B449E1BCDF82CC04C
:104530004A462B462146202009F10109D847B145BA
:10454000F6D14146DDF838800C9BDDF82CC00D9C7F
:1045500098F800205E1C1046002A7FF458AE73E6DF
:104560004FF01008C44641E71D064CBF1288126880
:1045700051E713464A461878DDE90931D847B14674
:10458000DCE60B9C073424F007042246656852F8E9
:10459000084B0B9254EA050240F02C8123F01003E3
:1045A000002800F0278100260DF1480E06930C9B91
:1045B0004A46CDE904730023CDE900E6CDF80CC0EE
:1045C00002935846DDE90931FEF726FF8146C8E42B
:1045D00013F0200F14BF412061200DF1480E7646E4
:1045E000A0F10A0803E020293FF420AF2246B2FBE5
:1045F000FCF40CFB1425E8B2092D00F130058ABF4C
:104600004044E8B2C0B2624506F8010B01F1010175
:10461000E9D20BE723F0100269280D9240F06F8178
:1046200013F4806204D04FF4806223F011030D93E1
:104630000D9B13F4007640D10B9B03F104080D9BF6
:1046400013F4807040F09880590640F1C6800B9BAF
:1046500019780C46CB0F002900F0B98022460DF1E5
:10466000480E74461646DFF8A0C201E020280FD09D
:104670003546ACFB0621C90801EB8102A6EB4202DC
:104680003032092D0E4600F1010004F8012BEDD85F
:104690000D9ACDE9010306920C9ACDE904720A2322
:1046A0004A4603935846DDE90931CDF800E0FEF7AC
:1046B000B3FECDF82C80814653E40B9C073424F0E4
:1046C000070421460846636850F8081BDC0F0B906E
:1046D00051EA030000F0C3800A46191E48DB134666
:1046E0000DF1480EF4460026CDE90E94DFF818824D
:1046F00001E0202E2DD05A1842F10002A8FB0259E9
:1047000029F0030505EB9905521B1C469B1A61F124
:10471000000508464FF0CC3101FB03F108FB051101
:10472000A3FB08531944052305F00109A9FB03392C
:104730009B180A2C03F130034FEA550570F1000075
:104740000CF8013B06F1010645EAC1734FEA51013D
:10475000CFD2DDE90E940D9B4A4606930C9BCDE922
:104760000164CDE904730A23CDF800E0039328E740
:10477000524261EB4101B2E70B9B1968CB0F002954
:1047800000F0AB8081EAE172A2EBE1720DF1480E1C
:104790007046DFF874C101E0202E10D01546ACFB46
:1047A0000241C90801EB8104A2EB440404F1300288
:1047B000092D00F8012B06F101060A46ECD80D9AE6
:1047C000CDE9016306920C9ACDE9047267E7002AED
:1047D0003FF445AF0DF1480E5AE713F0800F0B9BE5
:1047E00000F08180B3F9001081EAE174A4EBE17478
:1047F000A4B22FE713F0200F14BF412261220DF164
:10480000480E0A3ACDE90D97CDF844B00026774618
:10481000F3469146CDE90F3C03E0202E17D0044625
:104820000D46294642460023204607F099FAD2B2A7
:10483000092A02F1300388BF02EB09034445DBB2C9
:1048400075F1000507F8013B06F10106E5D2DE46E9
:10485000DDE90D97DDE90F3CDDF844B0A6E6002A5E
:1048600047D1134611463BE70B990968A1B923F0DC
:10487000100388B10DF1480E06930C9BCDF80CC0C7
:10488000CDE904730192D8E513F480627FF4CBAED6
:1048900023F010030D93CBE613F0200F14BF41203B
:1048A00061200DF1480E7646A0F10A0802E0202AA8
:1048B000E2D02146B1FBFCF40CFB1415E8B2092D43
:1048C00000F130058ABF4044E8B2C0B2614506F845
:1048D000010B02F10102EAD2CEE7002A3FF456AF03
:1048E0000DF1480E6BE7196881EAE174A4EBE174FD
:1048F000B0E600260DF1480E2DE701362BE64FF00D
:104900000A081346C44671E5CDCCCCCC84460CB421
:1049100010B584B006AC54F8043B0A4600946146D6
:1049200004480394FFF7FEFA04B0BDE8104002B05B
:10493000704700BF7133001070B594461E4605469F
:104940000C4684B04FF0FF32634602A9009603483C
:10495000CDE90254FFF7E6FA04B070BDC536001089
:1049600010B5094B84B01C684CB1034600914FF060
:10497000FF3203A90548A047012004B010BD00F094
:104980007DF9204604B010BD3C380020BD36001033
:1049900000BEFDE708B5FFF7FBFF00BF38B5064CCA
:1049A000064DFEF77BF8AC4204D254F8043B98471E
:1049B000AC42FAD338BD00BFF0BD001000BE0010FD
:1049C0000368084611461847437D2DE9F0478146A4
:1049D0000F461646002B43D0002A3BDD037D002006
:1049E0004D1E014615F8012FDFF884800A2A01F1D7
:1049F00001040ED0A6421CD02B782146A3F10D0352
:104A0000B3FA83F315F8012F5B090A2A01F10104B7
:104A1000F0D1002BEED18142A1EB000138441BDC28
:104A200002214046D9F800309847A64208D02046D7
:104A3000E2E7864204DD311AD9F80030384498475D
:104A4000374417F8013CA3F10D03B3FA83F35B0974
:104A500089F81430BDE8F087D9F800309847DFE7CF
:104A60003846D9F800301146BDE8F047184700BF76
:104A7000F0C300100B682DE9F041802B0D4606466F
:104A800005D05A1C2B442A601E71BDE8F0810F4BE3
:104A90001C68A4B10E4F01F1040801E0246974B14F
:104AA0002368002BFAD03B680BB1A342F6D1204615
:104AB00041462A68FFF788FF2469002CF0D10023C3
:104AC00001222B442A601E71BDE8F08130340020A1
:104AD000383400202DE9F04782B00D4692469946C1
:104AE0000746FDF747FE4FF0FF366FF000442F4AB0
:104AF000821841F10003964274EB03013CBF324639
:104B000023462B4807F03CF96B1C804603D13846FE
:104B100007F09AF80546274B274E1C68274BB9F13A
:104B2000000F18BF1E46B4B1BAF1000F1AD1DFF85A
:104B3000909001E0246974B12368002BFAD0D9F871
:104B400000300BB19C42F5D120462A463946B04789
:104B50002469002CF0D1B8F1000F1FD1284602B013
:104B6000BDE8F0874FF00A0ADFF8549002E02469AC
:104B7000002CF0D02368002BF9D0D9F800300BB10D
:104B8000A342F4D12A4639462046B04701222046A6
:104B90000DF107018DF807A0B047E8E7044807F0DA
:104BA000E3F8284602B0BDE8F08700BF40420F009E
:104BB000B016002030340020C1490010C94900104F
:104BC000383400200A4A13684BB1834202D109E00D
:104BD000984207D003F110021B69002BF8D101B1F4
:104BE000106070470029FCD10369136001617047B0
:104BF0003034002000F0E0BAF0B583B006468DF8FE
:104C00000700FDF7B7FD4FF0FF356FF00044174A7E
:104C1000821841F10003954274EB03013CBF234627
:104C20002A46134807F0ACF8124B07461C689CB1A3
:104C3000114D01E024697CB12368002BFAD02B6868
:104C40000BB19C42F6D1204601220DF10701FFF77E
:104C5000BBFE2469002CEFD117B9304603B0F0BD7C
:104C6000034807F081F8304603B0F0BD40420F0022
:104C7000B0160020303400203834002038B5044607
:104C800006F0E2FF012305461A4620462946FFF7B3
:104C900021FF084B1C682CB163682BB1984724692D
:104CA000002CF9D1284638BD2469002CF4D12846BF
:104CB00038BD00BF303400202DE9F041A2B00446D9
:104CC0000D46FDF757FD4FF0FF376FF00046274ABE
:104CD000821841F10003974276EB03013CBF3A464C
:104CE0003346234807F04CF800262B460746224659
:104CF000204801A90196FFF71FFE019B06467BB9DC
:104D00001D4B1C682CB1636843B198472469002C83
:104D1000F9D10FBB304622B0BDE8F0812469F1E73C
:104D2000DFF85480D8F80050EDB1144C01E02D6943
:104D300075B12B68002BFAD023680BB1AB42F6D1CA
:104D40002846019A02A9FFF73FFE2D69002DF0D1F8
:104D5000D8F800400195D5E7054807F005F830463A
:104D600022B0BDE8F0810195D3E700BF40420F00BB
:104D7000B0160020754A001030340020383400206E
:104D80000FB400B583B004A951F8040B0191FFF7EB
:104D900093FF03B05DF804EB04B07047704700BFA9
:104DA0000022014B1A707047CE3A01204B79FF2B3D
:104DB0000BD1887948B9CB79012B07D1082A05D9BD
:104DC000034B8A7809201A7070470020704700BF93
:104DD000CE3A012001207047012901D001207047FF
:104DE00008B5104B91881B78994201D0002008BD6E
:104DF0005378012B08D0022BF8D1002164220846F9
:104E0000FDF788FD012008BD5188CB054BBF4A0A3C
:104E10004A0A10464FF0FF3002F0010201F07F0114
:104E2000FDF7F6FDCE3A012000487047BCC40010E3
:104E3000012907D15378012B02D19388072B03D086
:104E400000207047012070471146A623014A01F057
:104E500041BA00BF14C400100346012201481A7071
:104E6000704700BFF4C3001008B50B68B3F5966F28
:104E700000D008BD00224FF0FF301146FDF7C8FDFD
:104E8000024A034B10601960704700BFC83300200E
:104E9000CC330020184B70B51A68002A28D0EFF3E5
:104EA000108172B6D2E8CF4F0120002CFAD1C2E8AF
:104EB000440F002CF6D1BFF35F8F00220F4C18680F
:104EC00059602270C0E88F2F81F3108800240025DC
:104ED0000B4E3078FCF71CFC20B90024002520463E
:104EE000294670BD3078FCF723FC2046294670BD6A
:104EF0004FF47A740025EBE750380020D13A0120B6
:104F0000D03A0120014B1878FCF712BCD03A0120AE
:104F100038B5044600200D4601F008FBA8B3002078
:104F200001F01AFB88B3FDF725FC4FF0FF3E6FF050
:104F3000004C174A821841F1000396457CEB0301AF
:104F40003CBF72466346134806F01AFFE8B10020E2
:104F500001F0ECFA58B900214FF0FF3000F012FDDB
:104F60006FF002040B4806F0FFFE204638BD00201B
:104F700001F0F2FA0028EED021462A46002001F086
:104F8000F7FA04460028EDD1EAE76FF00204ECE7F7
:104F900040420F009039002008B5FDF7EBFB4FF0C1
:104FA000FF3E6FF0004C0F4A821841F10003964516
:104FB0007CEB03013CBF724663460B4806F0E0FE03
:104FC00070B14FF0FF30002100F0DCFC002001F058
:104FD00015FB0028F5D1BDE80840034806F0C4BE23
:104FE00008BD00BF40420F00903900202DE9F84372
:104FF00007460E46FDF7BEFB4FF0FF356FF000444D
:10500000334A821841F10003954274EB03013CBF1F
:105010002A4623462F4806F0B3FE08B9BDE8F883B8
:10502000002001F083FA002848D0002E41DD002541
:10503000DFF8A480DFF8A49013E02246002001F0FE
:1050400023FB002104464FF0FF3000F09BFC0020C2
:1050500001F0D4FAFDF78EFBC8E900012544AE4209
:1050600027DD002001F032FB741B8442A8BF0446F8
:105070007919002CE1D121464FF0FF3000F082FC7D
:10508000204601F0BBFA204601F050FA88B12046D4
:1050900001F01CFB0028E2D1FDF76CFBD8F80030D2
:1050A000D8F8042013EB090342F1000283428A413D
:1050B000D5D20848BDE8F84306F056BE00200021CE
:1050C000054BC3E90001BDE8F843024806F04CBEB9
:1050D00040420F00903900201819002020A107003D
:1050E00030B5002185B02E4806F05AFEF0B92D4BA0
:1050F0001A68CAB1EFF3108172B6D2E8CF5F01240B
:10510000002DFAD1C2E8454F002DF6D1BFF35F8FD5
:10511000254C1D6822785960D3B201222270C5E85F
:105120008F0F81F31088CBB105B030BD00214FF057
:10513000FF3000F027FC002001F00EFA044618486A
:1051400006F012FE002CEFD0184B1B68002BEBD0A2
:10515000174A106805B0BDE830401847FDF712F84F
:105160000446FDF707FB4FF0FF3C6FF0004510F5DC
:105170007A7241F10003944575EB030138BF2B4669
:105180004FF000014FF0010520460A4C38BF62463F
:10519000CDE901150094FCF7F9FF05B030BD00BF63
:1051A0009039002050380020D13A0120C833002027
:1051B000CC330020954E00104FF0504330B585B0F1
:1051C0001C68FCF7DFFFFDF7F3F8A04202D00020D7
:1051D00005B030BD00212A4B08461B7801F046FD82
:1051E00028480368002B47D00120FCF751FD0346F7
:1051F000254C2649C0B22370FCF7B6FA207801216D
:10520000FCF770FA0E20FCF79FFA40BB204B0125FB
:10521000C3E90000FCF7B6FF0446FDF7ABFA4FF018
:10522000FF3E6FF0004C10F57A7241F10003964595
:105230007CEB03014FF000012046164C3CBF724648
:105240006346CDE901150094FCF7A0FF0028BEDB02
:1052500001211148FFF7B6FC012005B030BD012047
:10526000FCF7FCF901460A48FCF772FD00220E200B
:105270000A49FCF7A9FAEBE7FCF74EFDB4E700BFDB
:10528000D4C5001090390020D03A0120E150001020
:1052900050380020954E001064160020054F001075
:1052A0000048704758C500100048704704C50010FA
:1052B00038B5184B04461A780AB344B940F209428B
:1052C0004FF44173144D6A8013482B8038BD052C70
:1052D0001AD8124B104D53F82410284600230139D8
:1052E00003E0132B20F8022F10D011F8012F013307
:1052F000DBB2002AF5D15B0043F44073E4E71121EF
:10530000184600F025F8D8E7002038BD4FF44A735E
:10531000DAE700BFAC39012004340020ECC40010EF
:1053200000B545F247308BB0FDF766FB012203461E
:10533000092101A89847DDE90332044912BA1BBAD2
:10534000C1E900230BB05DF804FB00BF0039002069
:10535000012901F1FF3300F0B3805D490A784FEA7B
:10536000121C9F2A8CBF0CF1370C0CF1300C012B56
:1053700080F800C000F0A78002F00F02092A8CBF5D
:1053800037323032022B427000F09D804A784FEA6B
:10539000121C9F2A8CBF0CF1370C0CF1300C032B24
:1053A00080F802C000F08F8002F00F02092A8CBF43
:1053B00037323032042BC27000F085808A784FEA91
:1053C000121C9F2A8CBF0CF1370C0CF1300C052BF2
:1053D00080F804C077D002F00F02092A8CBF373260
:1053E0003032062B42716ED0CA784FEA121C9F2AC7
:1053F0008CBF0CF1370C0CF1300C072B80F806C079
:1054000061D002F00F02092A8CBF37323032082BEC
:10541000C27158D00A794FEA121C9F2A8CBF0CF136
:10542000370C0CF1300C092B80F808C04BD002F07F
:105430000F02092A8CBF373230320A2B427242D017
:105440004A794FEA121C9F2A8CBF0CF1370C0CF1E1
:10545000300C0B2B80F80AC035D002F00F02092A5D
:105460008CBF373230320C2BC2722CD08A794FEA83
:10547000121C9F2A8CBF0CF1370C0CF1300C0D2B39
:1054800080F80CC01FD002F00F02092A8CBF3732FF
:1054900030320E2B427316D0CA7911099F2A8CBF65
:1054A000373130310F2B81730DD002F00F02092AF2
:1054B00094BF30323732102BC27318BF103002D075
:1054C000002303707047184400230370704700BF27
:1054D0000039002070B500F033F90C2340261B4C36
:1054E000FF22A3670E201A49FCF76EF9194B3246CA
:1054F0000021184606F0DAFA034600210125802033
:10550000154A58849A60843A5D701E831E875960DC
:10551000C2F88410C2F8801002F58072DA60DA6294
:10552000803A83F8211083F83B1059629A624FF059
:10553000005606F029FC4FF480320849084B2564D8
:105540002846E664C4F89010DA6470BD000011507B
:10555000A90300203C3400208400105010D001002A
:105560000020115001210E20FCF7BCB80022024897
:10557000114600F005B900BF5C340020044B1970DF
:1055800021B14FF40032034BC3F89020704700BFA5
:10559000C93A0120002011500B785B0602D14B78EC
:1055A000052B00D070474B88014ADBB2136070476F
:1055B00000001150CB782DE9F04103F0030EBEF14D
:1055C000010FC3F301005DD0002791F802C0354CF4
:1055D0000CF07F035E00898806EBDC1204EB4212BC
:1055E0004FEADC15D076C1F30A0185F00100507056
:1055F00082F802C01183D77018B2DA008DBB2A4836
:10560000043204EB831C02EB0008CCF8088017502E
:105610008BB3264ADB001A44CCF80420244B3F31DC
:105620001A6821F03F01BEF1020F08BF4900114482
:105630001960204B771904EB47179942FA602CD870
:105640002E4404EB4613D97E82F0A04282F48012ED
:105650005B6842EA816242F000421A600120BDE8C4
:10566000F081DFF844C004EB83186244C8F82820B6
:105670004CF830704BB900220F4904EB4513D96048
:105680005A60EBE70020BDE8F081DB0003F1A043A6
:1056900003F58013C8F82430C0E7FDF7F9F9FA687C
:1056A000CEE700BF3C3400208000105004001050B2
:1056B0004C380020FF0F10500001105006F064BB62
:1056C0008C4608B5114607481A460CF07F034FEA8E
:1056D000DC1C0CEB430C00EB4C1000F051F80120EB
:1056E00008BD00BF3C340020CB0911F07F0103D17D
:1056F000064AC3F102009066054803EB41034FF4EC
:105700000062002100EB431006F036BB0020115070
:105710003C34002011F07F0300D17047002210B408
:10572000C809064C00EB430004EB40136FF4006122
:1057300018465DF8044BDA7006F01EBB3C340020BE
:105740004FF0805209480A4908B50A4B02600A60C6
:105750009968C94311F08051FAD14FF4805206483C
:1057600006F0A4F90922054B5A6708BD0020024043
:1057700000300240000002400000105000001150B4
:1057800000234FF0010C10B580F81AC08282C3824A
:105790000161044606F0FCFA20B14FF40032074BD9
:1057A000C3F89020204606F0F7FA10B101232377C2
:1057B00010BD2046BDE8104006F0CABA00201150C6
:1057C0002DE9F04100241D4E054623463278DFF8CE
:1057D00078801B4F0DE03B6813EB441325D0DB684A
:1057E0002846984732780134E4B2511CA14223463E
:1057F00006DBA242A3EB0203EDD808EB4313EEE76E
:10580000104C54220021204606F050F94FF0FF338F
:10581000251D6360C5E90133EB6004F1140020220B
:10582000BDE8F041FF2106F041B94FF0E023D3F885
:10583000F03DDB0700D500BEBDE8F081C83A01208D
:10584000D02E0020D82F00206CC50010704700BF5C
:10585000704700BF0020704700207047704700BFAE
:10586000704700BF704700BF704700BF024B5878B9
:10587000003818BF01207047D82F0020024B18783D
:10588000C0F38000704700BFD82F00202DE9F047FB
:10589000DFF8E8A09AF80030FF2B02D00120BDE825
:1058A000F0870E4600293ED00021542207462948A1
:1058B00006F0FCF80022284C284B20461A70FCF712
:1058C0002BFA274B27481C60274CFCF733FA20465D
:1058D00001F0B0FD254A264B264D146063B32846DF
:1058E000FFF7BAFA244B2A7818600024DFF890906A
:1058F0002346DFF884800EE0D8F8003013EB441321
:1059000011D05B687BB198472A780134E4B2511C0E
:10591000A142234612DBA242EED89B1A09EB4313A5
:105920005B68002BEFD14FF0E023D3F8F03DDB07AD
:1059300000D500BE0020B2E72A78D6E731463846C7
:105940008AF80070FFF7C6FD0028ECD03846FFF754
:1059500009FEA3E7D82F0020D02F0020CA3A01204B
:105960002C300020901600207C16002030300020C3
:10597000594E0010C83A0120D02E00209816002061
:105980006CC500102DE9F04FDFF8C8928BB099F884
:105990000030FF2B00F0F180A84CA94DDFF8B0A239
:1059A000DFF8B4B226687369EFF3108272B6D3E8F9
:1059B000CF0F01210028FAD1C3E8401F0028F6D1FB
:1059C000BFF35F8FB261304607A901F081FB00236E
:1059D0007269C2E88F3FB36983F31088002800F032
:1059E000CC809DF81D30013B072B00F27D83DFE862
:1059F00003F0A7B1959D8E350A04089B002BD1D0EA
:105A000009989847CEE79DF8201001F07F0605EB36
:105A1000460000EBD11090F8343023F0010380F8F9
:105A2000343090F8343023F0040380F83430002E02
:105A300000F0A680037D9AF80020934280F09380C6
:105A4000804A126812EB431300F090809E699DF823
:105A50002120099B9DF81C00B047A3E79BF800306C
:105A6000002B00F083809BF80030013BDBB28BF809
:105A700000309BF8003003F0FF00002B92D1704FF4
:105A80009DF81C803B7843F001033B7097F834305D
:105A900060F3000387F8343097F8343060F3820302
:105AA00087F8343097F8353060F3000387F83530E5
:105AB00097F8353060F3820387F8353000F06AFCE0
:105AC0009DF8203003F06002602A6CD0402A7CD020
:105AD00003F01F03012B00F0C180022B00F0818036
